:100000000C946C000C94120C0C94EB0B0C940A09DD
:100010000C940A090C940A090C9494000C94940012
:100020000C9494000C9494000C9494000C94940000
:100030000C9494000C9494000C9494000C949400F0
:100040000C94A10B0C9494000C94D8080C94B20856
:100050000C9494000C9494000C9494000C949400D0
:100060000C9494000C9494002C20002C20002C2044
:10007000002C20002C20002C200000000000240078
:1000800027002A0000000008000201000003040706
:100090000000000000000000000000002500280013
:1000A0002B000000000023002600290004040404A3
:1000B0000404040402020202020203030303030312
:1000C00001020408102040800102040810200102EF
:1000D00004081020EB15E11511241FBECFEFD8E066
:1000E000DEBFCDBF26E0ACE2B2E001C01D92A1347C
:1000F000B207E1F712E0A0E0B1E0E4EBF3E302C005
:1001000005900D92AC32B107D9F710E0CBE6D0E004
:1001100004C02197FE010E94C219CA36D107C9F74F
:100120000E94E10D0C94CD190C940000FC01538D3C
:10013000448D252F30E0842F90E0821B930B5417C1
:1001400010F0CF96089501970895FC01918D828D4E
:10015000981761F0828DDF01A80FB11D5D968C911B
:10016000928D9F5F9F73928F90E008958FEF9FEF26
:100170000895FC01918D828D981731F0828DE80FE2
:10018000F11D858D90E008958FEF9FEF0895FC019C
:10019000918D228D892F90E0805C9F4F821B910969
:1001A0008F73992708958DEF94E00E94C70021E096
:1001B000892B09F420E0822F0895FC01848DDF0152
:1001C000A80FB11DA35ABF4F2C91848D90E00196CA
:1001D0008F739927848FA689B7892C93A089B189B9
:1001E0008C9180648C93938D848D981306C00288C3
:1001F000F389E02D80818F7D80830895EF92FF92B7
:100200000F931F93CF93DF93EC0181E0888F9B8D39
:100210008C8D981305C0E889F989808185FD24C0FB
:10022000F62E0B8D10E00F5F1F4F0F731127E02E7E
:100230008C8DE8120CC00FB607FCFACFE889F9895B
:10024000808185FFF5CFCE010E94DD00F1CF8B8D3F
:10025000FE01E80FF11DE35AFF4FF0820B8FEA8990
:10026000FB898081806207C0EE89FF896083E8890D
:10027000F98980818064808381E090E0DF91CF9173
:100280001F910F91FF90EF900895CF93DF93EC01B2
:10029000888D8823C9F0EA89FB89808185FD05C0A6
:1002A000A889B9898C9186FD0FC00FB607FCF5CFE0
:1002B000808185FFF2CFA889B9898C9185FFEDCF28
:1002C000CE010E94DD00E7CFDF91CF91089580E05D
:1002D00090E0892B29F00E94D30081110C9400003A
:1002E00008958EBD00000DB407FEFDCF8EB50895B4
:1002F0008FEF0C94710120912E0230912F0228175C
:10030000390771F490912C0280912D02981741F0D9
:10031000E0912C02F0E0EB54FD4F808190E00895D5
:100320008FEF9FEF089508951F93CF93DF93DC0124
:100330005C962D913C915D972115310539F481E052
:1003400090E013969C938E9312973DC05196ED9139
:10035000FC91529750969C915097892F80951FB78A
:100360005E964C915E9741FB772770F941FD609551
:10037000F8944081772311F0492B01C04823408332
:10038000E9012197F1F748E0508160FF02C0592B45
:1003900001C058235083E9012197F1F76695415038
:1003A00099F7772321F090818923808303C080818E
:1003B000982B90831FBF5C968D919C915D970197C0
:1003C000F1F721E030E0C901DF91CF911F9108954D
:1003D00020912E0230912F022817390771F4809155
:1003E0002D0220912C0290E0805C9F4F821B91098E
:1003F00060E470E00E947819089580E090E008952C
:1004000020912E0230912F0228173907B9F49091CC
:100410002C0280912D02981789F0E0912C02F0E0D7
:10042000EB54FD4F808120912C0230E02F5F3F4F35
:100430002F73332720932C0290E008958FEF9FEFC6
:100440000895089580E090E00895809130029091A1
:100450003102A0913202B09133020196A11DB11D6B
:100460008093300290933102A0933202B093330212
:1004700008950E94C8190F931F93CF93DF93EB0148
:100480000E94950B8B010E9478018F3F49F00E94DA
:10049000950B601B710B6C177D07A8F380E001C002
:1004A00081E0DF91CF911F910F91089561E0FC01F0
:1004B00084810E946B0A8091F50281111092F502ED
:1004C0000895CF93DF93EC018E81882389F08F818B
:1004D00098859C012F5F3F4F38872F838230924051
:1004E00018F40E947801F3CFCE010E9456021E82BA
:1004F000DF91CF910895CF92DF92FF920F931F93D8
:10050000CF93DF9300D000D0CDB7DEB76C01F62ECD
:1005100029833A834B835C830E9461028091F502B8
:1005200029813A814B815C81811109C081E08093EE
:10053000F50290919A0580919B059CBD8DBD60E070
:10054000F601848129833A834B835C830E946B0A82
:100550006CE271E0C6010E943B028F2D80640E9414
:10056000710108E110E05C814B813A812981DA0157
:10057000C901002E04C0B695A795979587950A9452
:10058000D2F729833A834B835C830E947101085020
:10059000110929813A814B815C81083FFFEF1F07D8
:1005A00031F7FF2029F088E0F81204C087E803C083
:1005B00085E901C08FEF0E94710110E00E9478016F
:1005C000F601828787FF04C01F3F11F01F5FF6CF3F
:1005D0000F900F900F900F90DF91CF911F910F917F
:1005E000FF90DF90CF900895EF92FF920F931F93AB
:1005F000CF93DF93EC017901411551056105710538
:1006000011F482E13CC08B85833039F089E0440FDE
:10061000551F661F771F8A95D1F79A01AB0168E1D4
:10062000CE010E947B02882311F084E028C08EEF67
:100630000E94710187018EEFF81AF80181918F01F4
:100640000E9471010E151F05C1F78FEF0E94710105
:100650008FEF0E9471010E9478018A878F71853027
:1006600031F081E18D83CE010E94560209C068E518
:1006700072E0CE010E943B02811107C085E18D83AB
:10068000CE010E94560280E013C020E030E0A901B4
:100690006DE0CE010E947B02811104C00E947801AE
:1006A000882311F084E1EBCFCE010E94560281E055
:1006B000DF91CF911F910F91FF90EF900895CF930D
:1006C000DF938091F802882399F1C091F602D091CE
:1006D000F702409108015091090160910A0170915F
:1006E0000B012DEF32E0CE010E94F402811102C015
:1006F00080E01FC04091F9025091FA026091FB0224
:100700007091FC02411551056105710579F02DEFDD
:1007100032E0CE010E94F402882351F31092F902D4
:100720001092FA021092FB021092FC021092F80250
:1007300081E0DF91CF910895BF92CF92DF92EF9247
:10074000FF920F931F93CF93DF936B017C01B42E25
:100750008091080190910901A0910A01B0910B01CB
:100760008C159D05AE05BF0509F476C00E945F0398
:10077000882309F478C0C091F602D091F7028E81E7
:10078000882369F088819981AA81BB81C816D9061E
:10079000EA06FB0621F48F819885892BB1F1C88286
:1007A000D982EA82FB828B85A7019601833039F0DA
:1007B00089E0220F331F441F551F8A95D1F761E14D
:1007C000CE010E947B02882319F083E08D8337C01D
:1007D0000E94950B8B010E9478018A878F3F49F414
:1007E0000E94950B601B710B6D327140A0F38FE07E
:1007F00003C08E3F31F08DE08D83CE010E94560202
:100800001EC018861F8281E08E830DEF12E00E94C9
:100810007801F80181938F01F4E00D3F1F07B9F7CC
:100820008F8198859E5F98878F832985222319F071
:100830008115924048F0CE010E94610205C0CE01B0
:100840000E94560280E00FC0C0920801D0920901B8
:10085000E0920A01F0920B018091F802482F4B2997
:100860004093F80281E0DF91CF911F910F91FF90AB
:10087000EF90DF90CF90BF9008954F925F926F926C
:100880007F928F929F92AF92BF92CF92DF92EF9220
:10089000FF920F931F93CF93DF93EC016A017B01CB
:1008A00028013901423051056105710510F480E0DD
:1008B00073C089859A85AB85BC850196A11DB11D44
:1008C00084179507A607B70790F38B889C88AD8897
:1008D000BE888F89803129F4BB27AF2D9E2D8D2DA9
:1008E00009C0DB01CA0147E0B695A79597958795A2
:1008F0004A95D1F7880E991EAA1EBB1E8091080149
:1009000090910901A0910A01B0910B0188169906F6
:10091000AA06BB0679F48F898031A1F4DD24EE2488
:10092000FF24C601880F991FFC01E350FD4F51823F
:10093000408219C040E0C501B4010E949C038111AE
:10094000EACFB5CFE894C7F8DD24EE24FF24C60132
:10095000880F991F880F991FFC01E350FD4F4082BB
:100960005182628273828091F80281608093F802E2
:100970008A89823080F08D819E81AF81B885880E12
:10098000991EAA1EBB1E8092F9029092FA02A092B2
:10099000FB02B092FC0281E0DF91CF911F910F9199
:1009A000FF90EF90DF90CF90BF90AF909F908F908F
:1009B0007F906F905F904F9008958F929F92AF922B
:1009C000BF92CF92DF92EF92FF920F931F93CF933C
:1009D000DF93FC0181859285A385B4850196A11DD5
:1009E000B11D84179507A607B70710F480E05CC017
:1009F00083899489A589B689C789C03129F4852E50
:100A0000962EA72EBB2409C04A015B01C7E0B6940D
:100A1000A79497948794CA95D1F7E9016A017B015D
:100A20008F01BC01CD01680D791D8A1D9B1D809031
:100A3000080190900901A0900A01B0900B0168157F
:100A400079058A059B0599F4F80187898031A9F415
:100A5000B701A601552766277727440F551FFA01CE
:100A6000E350FD4F80819181A0E0B0E018C040E0EC
:100A70000E949C038111E8CFB9CFB701A6014F773F
:100A8000552766277727440F551F440F551FFA0136
:100A9000E350FD4F80819181A281B381BF70888333
:100AA0009983AA83BB8381E0DF91CF911F910F913E
:100AB000FF90EF90DF90CF90BF90AF909F908F907E
:100AC00008953F924F925F926F927F928F929F9282
:100AD000AF92BF92CF92DF92EF92FF920F931F934C
:100AE000CF93DF93CDB7DEB72C970FB6F894DEBF68
:100AF0000FBECDBF5C01DC015B968D909C905C9736
:100B00001696CD90DD90ED90FC901997C114D1040C
:100B1000E104F10439F0BFEFCB1ADB0AEB0AFB0A60
:100B2000312C07C0F401C080D180E280F3803324EF
:100B30003394F40181859285A385B4859C01AD0130
:100B40002F5F3F4F4F4F5F4F29873A874B875C8717
:100B5000260137011D821E821F821886F4018185BD
:100B60009285A385B4852D813E814F8158852817B4
:100B700039074A075B0708F063C089859A85AB850A
:100B8000BC858C159D05AE05BF0550F482E0C82ECE
:100B9000D12CE12CF12C92E0492E512C612C712C9E
:100BA0009E012F5F3F4FB701A601C4010E94DD04E3
:100BB000882309F445C089819A81AB81BC81892B46
:100BC0008A2B8B2B41F0260137019FEF491A590AD6
:100BD000690A790A05C0C414D504E604F70491F043
:100BE0002D813E814F8158852F5F3F4F4F4F5F4F83
:100BF0002D833E834F8358873FEFC31AD30AE30AFE
:100C0000F30AACCF0FEF1FEF2FEF3FE0B301A201CC
:100C1000C4010E943D04882399F0D50116964D9198
:100C20005D916D917C911997411551056105710593
:100C300049F093018201C4010E943D04811102C068
:100C400080E02AC0D50116964D925D926D927C92FD
:100C50001997332051F0D301C2010196A11DB11D96
:100C6000F40180839183A283B383F5018789908DFA
:100C7000A18DB28D892B8A2B8B2B69F4D5015796C8
:100C80004D925D926D927C925A9714968C91149726
:100C9000806814968C9381E02C960FB6F894DEBF92
:100CA0000FBECDBFDF91CF911F910F91FF90EF90BD
:100CB000DF90CF90BF90AF909F908F907F906F907C
:100CC0005F904F903F9008954F925F926F927F9206
:100CD0008F929F92AF92BF92EF92FF920F931F93CA
:100CE000CF93DF9300D000D01F92CDB7DEB78C0139
:100CF0006D83DC0115968C911597813009F057C0F2
:100D000014968C9181FF53C05AC0038CF48DE02D52
:100D1000258530E0275F3F4F2A013B01B1E04B1AA8
:100D2000510861087108022E04C0769467945794A4
:100D300047940A94D2F7D501C4010197A109B109DA
:100D400004C0B695A795979587952A95D2F78415EF
:100D50009505A605B70508F070C0F8014789508DC4
:100D6000618D728D46835783608771872C013D01A9
:100D70007801E6E0EE0EF11CD80141145104610443
:100D8000710409F464C016964D915D916D917C914A
:100D9000199797015B968D919C915C970E94DD0459
:100DA000B1E04B1A5108610871088111E5CF81E06B
:100DB00090E0F8019383828380E090E04FC182FF4E
:100DC0000EC0F801428553856485758583889488B3
:100DD000A588B688481559056A057B05F1F4D80140
:100DE0001A964D915D916D917C911D975B968D91B9
:100DF0009C915C97FC0174807A944A015B0129E024
:100E0000B694A794979487942A95D1F778207A017D
:100E1000F1E0FF22772011F164C081149104A10454
:100E2000B10409F072CF1682178210861186F8017C
:100E30001286138614861586D2CF452B462B472B58
:100E400009F48BCF84199509A609B7098FCF1A9693
:100E50008D929D92AD92BC921D97C1CFE114F10489
:100E600009F03FC0F80146815781608571854115C1
:100E700051056105710549F48789908DA18DB28D69
:100E80000097A105B10541F521C09E012F5F3F4F9D
:100E90000E94DD04882309F48FCF89819A81AB8178
:100EA000BC81F801238D348DF9012789203129F087
:100EB00048EF5FEF6FEF7FE004C048EF5FEF60E067
:100EC00070E084179507A607B70730F0C8010E94A5
:100ED0006105811106C06BCFF80186839783A087D7
:100EE000B187D8015B96ED91FC915C9716968D9039
:100EF0009D90AD90BC901997B2E08B1A9108A10813
:100F0000B108058404C0880C991CAA1CBB1C0A9457
:100F1000D2F786859785A089B189880E991EAA1E69
:100F2000BB1E870C911CA11CB11CE114F10409F536
:100F3000F801428553856485758583899489A589DF
:100F4000B689481759076A077B0798F00E945F0324
:100F5000882309F42CCF8092080190920901A09275
:100F60000A01B0920B018091F80281608093F8022F
:100F700008C041E0C501B4010E949C03882309F424
:100F800016CFF701E350FD4F8D818083F8018285F4
:100F90009385A485B5850196A11DB11D8287938790
:100FA000A487B58743895489658976894817590785
:100FB0006A077B0738F4838B948BA58BB68B84816F
:100FC00080688483D80114968C9183FD03C081E0EE
:100FD00090E044C0F8019581992309F4E8CE87FF99
:100FE00038C0668577858089918941E00E949C039D
:100FF000882309F4DCCED8015296EC91B0E2EB9F45
:1010000090011124D901A350BD4F109709F4CFCE00
:10101000F8018581823050F4438954896589768945
:101020005C964D935D936D937C935F97F8018789F0
:10103000908DA18DB28DF901E350FD4F938F828F7A
:10104000B58BA48BD80114968C9114978F77149636
:101050008C930E945F038111BACFA9CE0F900F909D
:101060000F900F900F90DF91CF911F910F91FF90F4
:10107000EF90BF90AF909F908F907F906F905F9018
:101080004F9008950E94360B2091B1023091B20228
:10109000621B730B709335026093340280913402AB
:1010A0009091350297FF0BC08091340290913502E8
:1010B00091958195910990933502809334020E9415
:1010C000360B6093B1027093B2028093B302909397
:1010D000B40208950F931F930E94360B0091AD0246
:1010E0001091AE022091AF023091B002DC01CB0131
:1010F000801B910BA20BB30B8093A9029093AA02C1
:10110000A093AB02B093AC028091A9029091AA0285
:10111000A091AB02B091AC02B7FF17C08091A902B9
:101120009091AA02A091AB02B091AC02B095A095AB
:10113000909581959F4FAF4FBF4F8093A902909399
:10114000AA02A093AB02B093AC020E94360B60934C
:10115000AD027093AE028093AF029093B0021F91E4
:101160000F9108951F920F920FB60F9211242F9393
:101170003F934F935F936F937F938F939F93AF931F
:10118000BF93EF93FF938DEF94E00E94DD00FF91FA
:10119000EF91BF91AF919F918F917F916F915F91EF
:1011A0004F913F912F910F900FBE0F901F90189568
:1011B0001F920F920FB60F9211242F938F939F932C
:1011C000EF93FF93E0910D05F0910E058081E09182
:1011D0001305F091140582FD12C0908180911605CF
:1011E0008F5F8F7320911705821751F0E0911605DC
:1011F000F0E0E350FB4F958F8093160501C080818E
:10120000FF91EF919F918F912F910F900FBE0F90B3
:101210001F9018951F920F920FB60F9211242F93C3
:101220003F934F935F936F937F938F939F93AF936E
:10123000BF93EF93FF93E0912E02F0912F0230972E
:1012400009F451C0968DA685B785858591FF04C0A8
:101250009C91892329F447C09C91892309F043C0BC
:10126000A389B4899C918589809589238C938689EB
:1012700097890197F1F7608D718DA685B7855585A2
:1012800038E020E0CB010197F1F7822F90E09595AF
:101290008795282F4C91452309F02068315091F70C
:1012A000868D81FD209580912D0290E001968F73AF
:1012B000992730912C02381749F0A0912D02B0E007
:1012C000AB54BD4F2C9380932D0203C0868D81605B
:1012D000868F828D938D0197F1F7A389B4899C91B4
:1012E0008589892B8C93FF91EF91BF91AF919F914D
:1012F0008F917F916F915F914F913F912F910F90BF
:101300000FBE0F901F901895E0912E02F0912F02C2
:10131000E817F90769F4A389B4899C9185898095B8
:1013200089238C9310922F0210922E0281E008954F
:1013300080E0089560E070E08AE00E94D70A60E0F3
:1013400070E089E00C94D70A833081F028F4813072
:1013500099F08230A1F008958730A9F08830B9F073
:101360008430D1F4809180008F7D03C08091800013
:101370008F7780938000089584B58F7702C084B5FD
:101380008F7D84BD08958091B0008F7703C08091D8
:10139000B0008F7D8093B00008950895DC01ED9139
:1013A000FC910190F081E02D0994CF92DF92EF92B1
:1013B000FF920F931F93CF93DF936C017A018B0100
:1013C000C0E0D0E0CE15DF0589F0D8016D918D0128
:1013D000D601ED91FC910190F081E02DC6010995B7
:1013E000892B11F47E0102C02196ECCFC701DF9159
:1013F000CF911F910F91FF90EF90DF90CF900895C4
:10140000E9E6F0E08081837F84608083E99A089533
:101410000F931F93CF93DF9300E111E0C1E0D0E081
:10142000F80161918F01CE010E944B182196C530C1
:10143000D105B1F784E090E0DF91CF911F910F913A
:1014400008950F931F93CF93DF938C01C0E0D0E0FA
:10145000F801EC0FFD1F6491662371F0E0919C058B
:10146000F0919D050190F081E02D8CE995E00995C2
:10147000892B11F02196ECCFCE01DF91CF911F91F6
:101480000F910895CF93DF93282F30E0F901EC57A7
:10149000FF4F8491F901E054FF4FD491F901E455D5
:1014A000FF4FC491CC2391F081110E94A409EC2F2D
:1014B000F0E0EE0FFF1FEE55FF4FA591B491EC91B8
:1014C000ED2381E090E021F480E002C080E090E034
:1014D000DF91CF9108951F93CF93DF93282F30E0B2
:1014E000F901EC57FF4F8491F901E054FF4FD4917B
:1014F000F901E455FF4FC491CC23C9F0162F811197
:101500000E94A409EC2FF0E0EE0FFF1FE856FF4FFA
:10151000A591B4918FB7F894111105C09C91ED2F4E
:10152000E095E92302C0EC91ED2BEC938FBFDF91A6
:10153000CF911F910895CF93DF9390E0FC01E05489
:10154000FF4F2491FC01E455FF4F8491882361F102
:1015500090E0880F991FFC01E658FF4FC591D49188
:10156000FC01E856FF4FA591B491611109C09FB7E6
:10157000F8948881209582238883EC912E230BC0D8
:10158000623061F49FB7F8943881822F809583236D
:101590008883EC912E2B2C939FBF06C08FB7F894B5
:1015A000E8812E2B28838FBFDF91CF9108951F9361
:1015B000CF93DF93182FEB0161E00E949B0A2097E5
:1015C00011F460E004C0CF3FD10539F461E0812F10
:1015D000DF91CF911F910C946B0AE12FF0E0EC5753
:1015E000FF4FE491E330F9F048F4E130B9F0E23034
:1015F000A1F584B5806284BDC8BD34C0E730E9F090
:10160000E83019F1E43049F58091800080628093E0
:101610008000D0938B00C0938A0024C084B580687A
:1016200084BDC7BD1FC0809180008068809380000A
:10163000D0938900C093880015C08091B000806865
:101640008093B000C093B3000DC08091B000806261
:101650008093B000C093B40005C0C038D1050CF031
:10166000B5CFAFCFDF91CF911F9108953FB7F894D9
:101670008091F4059091F505A091F605B091F705DC
:1016800026B5A89B05C02F3F19F00196A11DB11DDD
:101690003FBFBA2FA92F982F8827820F911DA11D18
:1016A000B11DBC01CD0142E0660F771F881F991F55
:1016B0004A95D1F708958F929F92AF92BF92CF92A1
:1016C000DF92EF92FF926B017C010E94360B4B017F
:1016D0005C01C114D104E104F104F1F00E94360B65
:1016E000DC01CB0188199909AA09BB09883E9340FE
:1016F000A105B10570F321E0C21AD108E108F10893
:1017000088EE880E83E0981EA11CB11CC114D10480
:10171000E104F10419F7DDCFFF90EF90DF90CF9057
:10172000BF90AF909F908F9008952FB7F8946091DD
:10173000F0057091F1058091F2059091F3052FBFAE
:1017400008951F920F920FB60F9211242F933F937B
:101750008F939F93AF93BF938091F0059091F10584
:10176000A091F205B091F3053091EF0523E0230F2E
:101770002D3720F40196A11DB11D05C026E8230FC9
:101780000296A11DB11D2093EF058093F005909363
:10179000F105A093F205B093F3058091F4059091C3
:1017A000F505A091F605B091F7050196A11DB11DB3
:1017B0008093F4059093F505A093F605B093F70593
:1017C000BF91AF919F918F913F912F910F900FBE3D
:1017D0000F901F9018951F920F920FB60F92112421
:1017E0002F933F934F935F936F937F938F939F9329
:1017F000AF93BF93EF93FF93E0910E01F0910F0130
:101800000995FF91EF91BF91AF919F918F917F913A
:101810006F915F914F913F912F910F900FBE0F905D
:101820001F9018951F920F920FB60F9211242F93AD
:101830003F934F935F936F937F938F939F93AF9358
:10184000BF93EF93FF93E0910C01F0910D01099587
:10185000FF91EF91BF91AF919F918F917F916F9188
:101860005F914F913F912F910F900FBE0F901F905E
:1018700018956115710579F0FB0101900020E9F7D9
:101880003197AF01461B570BDC01ED91FC910280B3
:10189000F381E02D099480E090E00895CF93DF93E9
:1018A000BC018CE995E00E94390CEC016CE571E01B
:1018B0008CE995E00E94390C8C0F9D1FDF91CF9130
:1018C00008954F925F926F927F92EF92FF920F93E3
:1018D0001F93CF93DF93CDB7DEB7A1970FB6F894E0
:1018E000DEBF0FBECDBF7C01FA01CB0119A22230B1
:1018F00008F42AE08E010F5D1F4F422E512C612CFF
:10190000712CBF01A30192010E948C19F901CA0137
:10191000015011096A3014F4605D01C0695CD8019E
:101920006C93232B242B252B61F7B801C7010E9450
:10193000390CA1960FB6F894DEBF0FBECDBFDF9174
:10194000CF911F910F91FF90EF907F906F905F90DC
:101950004F900895CF92DF92EF92FF920F931F93D3
:10196000CF93DF9377FF1DC06A017B01EC016DE22D
:101970000E94CE098C0144275527BA014C195D09F4
:101980006E097F092AE0CE010E94610C800F911F31
:10199000DF91CF911F910F91FF90EF90DF90CF904B
:1019A00008952AE0DF91CF911F910F91FF90EF9062
:1019B000DF90CF900C94610CCF93DF93AC01990F23
:1019C000660B770B8CE995E00E94AA0CEC016CE5A4
:1019D00071E08CE995E00E94390C8C0F9D1FDF911E
:1019E000CF9108954F925F926F927F928F929F92C4
:1019F000AF92BF92CF92DF92EF92FF926B017C0188
:101A0000B42E9B01AC010E947319882319F060E287
:101A100072E027C026013701E89477F82FEF3FEFF7
:101A20004FE75FE7C301B2010E94731981110DC036
:101A30002FEF3FEF4FE75FE7C301B2010E941F178F
:101A400018161CF464E272E00CC02FEF3FEF4FE772
:101A50005FE4C701B6010E946E19181694F468E29B
:101A600072E08CE995E0FF90EF90DF90CF90BF900F
:101A7000AF909F908F907F906F905F904F900C945D
:101A8000390C2FEF3FEF4FE75FECC701B6010E9423
:101A90001F1787FDE4CF20E030E0A901C701B601A0
:101AA0000E941F1787FF0BC06DE28CE995E00E9432
:101AB000CE094C01F7FAF094F7F8F09402C0812CAB
:101AC000912CA12C60E070E080E09FE3AB1441F02A
:101AD00020E030E040E251E40E94C618A394F6CF23
:101AE0009B01AC01C701B6010E945A182B013C01B1
:101AF0000E943F196B017C010E9424179B01AC01DD
:101B0000C301B2010E9459182B013C012AE0B70120
:101B1000A6018CE995E00E94610C7C01E80CF91C9F
:101B2000BB2039F06EE28CE995E00E94CE09E80E08
:101B3000F91EDB2CDD2031F120E030E040E251E401
:101B4000C301B2010E9485172B013C010E943F197D
:101B50004B01A12CB12C2AE0B501A4018CE995E040
:101B60000E94610CE80EF91EC501B4010E94241701
:101B70009B01AC01C301B2010E9459182B013C0129
:101B8000DA94D8CFC701FF90EF90DF90CF90BF904D
:101B9000AF909F908F907F906F905F904F9008953F
:101BA000CF93DF9342E00E94F20CEC016CE571E010
:101BB0008CE995E00E94390C8C0F9D1FDF91CF912D
:101BC0000895CF93DF93CDB7DEB76E970FB6F89435
:101BD000DEBF0FBECDBF789484B5826084BD84B56E
:101BE000816084BD85B5826085BD85B5816085BD18
:101BF00080916E00816080936E00109281008091D0
:101C00008100826080938100809181008160809357
:101C10008100809180008160809380008091B1007C
:101C200084608093B1008091B00081608093B000A7
:101C300080917A00846080937A0080917A0082603B
:101C400080937A0080917A00816080937A008091FD
:101C50007A00806880937A001092C100E0910D05AF
:101C6000F0910E0582E08083E0910905F0910A056C
:101C70001082E0910B05F0910C058FEC808310929F
:101C80001505E0911105F091120586E08083E09141
:101C90000F05F0911005808180618083E0910F0530
:101CA000F0911005808188608083E0910F05F091AC
:101CB0001005808180688083E0910F05F091100508
:101CC00080818F7D80831092B7051092B6051092A7
:101CD000B5051092B4051092B3051092B2058DE9C6
:101CE00091E09093B9058093B8059091A80596313D
:101CF00008F057C02DEB30E03093B3052093B205C8
:101D00002BE931E03093B5052093B4052CE231E0A6
:101D10003093B7052093B60520916800983050F0B5
:101D200031E09E3008F430E081E001C0880F3A9540
:101D3000EAF701C084E0822B80936800983038F085
:101D40009E3040F0963148F020E030E008C02DE6AB
:101D500030E005C02BE630E002C02CE630E03093E6
:101D6000B0052093AF05983030F481E001C0880FB2
:101D70009A95EAF70EC0292F30E09E3018F42850CB
:101D8000310902C02E50310981E001C0880F2A9527
:101D9000EAF78093B1058091B8059091B905019754
:101DA000F1F78091B6059091B705892B21F18091CB
:101DB0002E0290912F0225E08C399207E1F00097D6
:101DC00011F00E9484098091BA058E7F8093BA0534
:101DD00010922D0210922C028CE995E090932F0224
:101DE00080932E02E091AF05F091B0059081809133
:101DF000B105892B80838EE591E00E944E0C80E036
:101E000090E00E94431890910001891709F44AC09C
:101E10000E94080A04E011E032E3E32EF12CD8011D
:101E20006D918D01C7010E944B18BFEFEB1AFB0AA1
:101E3000E6E3EE16F10499F7609102018BE490E07D
:101E40000E944B18609103018CE490E00E944B18B3
:101E50006091140189E190E00E944B186091150196
:101E60008AE190E00E944B186091000180E090E0D0
:101E70000E944B1886E491E00E944E0C80E090E0B6
:101E80000E944318482F50E060E070E02AE08CE99F
:101E900095E00E94610C6CE571E08CE995E00E9490
:101EA000390C04C08FE591E00E944E0C60E080E1A7
:101EB0000E949B0A61E086E00E949B0A8DE691E009
:101EC0000E944E0C00E111E0EE24E394F12CC701D6
:101ED0000E944318D8018D938D01BFEFEB1AFB0AC6
:101EE000E5E0EE16F10499F704E011E092E3E92E43
:101EF000F12CC7010E944318D8018D938D01BFEFCB
:101F0000EB1AFB0AE6E3EE16F10499F78BE490E096
:101F10000E944318809302018CE490E00E944318D1
:101F20008093030189E190E00E944318809314019B
:101F30008AE190E00E94431880931501609114019A
:101F400070911501072E000C880B990B0E94261723
:101F50009B01AC0160E070E080E89FE30E94C6183E
:101F600020E034E244E759E40E9485176093EB05D2
:101F70007093EC058093ED059093EE0560E871E0B9
:101F80008CE995E00E94390C60911001709111016B
:101F900080911201909113010E94D00D66E871E0CA
:101FA0008CE995E00E94390C809114019091150103
:101FB0000E94DC0C6CE871E08CE995E00E94390C21
:101FC0006091EB057091EC058091ED059091EE0527
:101FD0000E94D00D62E971E08CE995E00E94390C15
:101FE00060910401709105018091060190910701B3
:101FF0000E94D00D61EA71E08CE995E00E94390CF5
:1020000080910201909103010E94DC0C60E083E06A
:102010000E949B0A60E081E10E949B0A61E085E0EA
:102020000E949B0AE6E3F2E08AE097EDA3E2BCE3BC
:1020300081939193A193B19322E0EE35F207C1F71A
:102040008AE698E090930F0180930E010E94000AA7
:1020500060E082E00E949B0A60E085E00E949B0AAB
:1020600061E086E00E949B0AEBE6F2E01192119299
:102070001192119233E0E333F307C1F782E498E061
:1020800090930D0180930C01809169008C7F816099
:1020900080936900E89A61E08AE00E949B0A61E00F
:1020A00089E00E949B0A61E088E00E949B0A60E050
:1020B00070E08AE00E94D70A6FEF70E089E00E942A
:1020C000D70A68E873E180E090E00E945B0B0E9411
:1020D0009A098EEA91E00E944E0C8DEC282E89E040
:1020E000382E80E10E94420A892B39F481E10E9456
:1020F000420A892B09F44EC03EC00E94950B6093A2
:10210000A3027093A4028093A5029093A60280E19B
:102110000E94420A892B51F30E94950B0091A30261
:102120001091A4022091A5023091A602DC01CB01FE
:10213000801B910BA20BB30B883E9340A105B10508
:1021400030F36091A202F1E06F276093A20286E073
:102150000E946B0A63EC71E08CE995E00E94390CF7
:102160008091A20290E00E94DC0C80E10E94420A71
:10217000892BD9F7CCCF0E94950B6093A302709363
:10218000A4028093A5029093A60281E10E94420AD4
:10219000892BA1F4C090EB05D090EC05E090ED0503
:1021A000F090EE05809134029091350218161906D0
:1021B0000CF4D4C0C12CD12C7601E8C00E94950B40
:1021C0000091A3021091A4022091A5023091A602D1
:1021D000DC01CB01801B910BA20BB30B883E93401B
:1021E000A105B10590F28CED91E00E944E0C61E0EA
:1021F00085E00E946B0A81E10E94420A892BD9F78F
:10220000E99830920F0120920E0110923002109244
:10221000310210923202109233020E94950B6B0130
:102220007C0185E292E090930F0180930E010E9461
:10223000000A81E10E94420A892B79F50E94950BE0
:10224000DC01CB018C199D09AE09BF09843A91408C
:10225000A105B10550F080916202F1E08F278093D3
:1022600062020E94950B6B017C016091620285E025
:102270000E946B0A4091300250913102609132020B
:10228000709133028DEF94E00E94AA0C6CE571E02E
:102290008DEF94E00E94390CCCCFE99830920F0179
:1022A00020920E01609130027091310280913202D1
:1022B000909133020E9426179B01AC0160E070E010
:1022C00088E492E40E94C61820E034E244E759E42E
:1022D0000E94851760935E0270935F028093600294
:1022E000909361022AE638E030930F0120930E01AB
:1022F000698F7A8F8B8F9C8F0E94000A698D7A8DEF
:102300008B8D9C8D6093100170931101809312014D
:10231000909313010E94080A6091100170911101BD
:1023200080911201909113010E94D00D81EF91E0F4
:102330000E944E0C60E085E00E946B0A0E94950BA3
:102340006093A3027093A4028093A5029093A602C7
:1023500081E10E94420A892BD9F717CF609134029C
:1023600070913502072E000C880B990B0E942617DE
:102370009B01AC01C701B6010E94C61820E030E005
:1023800040E752E40E9485176B017C0120916702AF
:10239000309168024091690250916A02C701B6010A
:1023A0000E941F1781111AC00E94950B00916302B1
:1023B000109164022091650230916602DC01CB012C
:1023C000801B910BA20BB30B843F9140A105B1057B
:1023D000B8F010923502109234022EC00E94950B74
:1023E0006093630270936402809365029093660227
:1023F000C0926702D0926802E0926902F0926A028B
:1024000020E030E0A901C701B6010E946E1918163C
:102410009CF420E030E048EC52E4C701B6010E9491
:102420001F1787FF09C020E030E0A901C701B601EE
:102430000E941F1718161CF0C12CD12C7601809118
:102440006F0290917002A0917102B091720280931C
:102450006B0290936C02A0936D02B0936E02809118
:10246000730290917402A0917502B09176028093EC
:102470006F0290937002A0937102B09372028091E8
:10248000770290917802A0917902B0917A028093BC
:10249000730290937402A0937502B09376028091B8
:1024A0007B0290917C02A0917D02B0917E0280938C
:1024B000770290937802A0937902B0937A02C09247
:1024C0007B02D0927C02E0927D02F0927E020BE6CB
:1024D00012E060E070E0CB01D8012D913D914D916B
:1024E0005D918D010E945A18B2E00F371B07A1F7CA
:1024F00020E030E040EA50E40E94C6186D837E83FD
:102500008F83988760937B0270937C0280937D0217
:1025100090937E0220E030E040E85FE30E941F17C6
:1025200087FF04C01D821E821F8218868DEF94E0F3
:102530000E94C7001816190654F48DEF94E00E940B
:10254000A5008093A0029093A102BC0104C06091F9
:10255000A0027091A102072E000C880B990B0E941B
:102560002617698B7A8B8B8B9C8B60910201709103
:102570000301072E000C880B990B0E94261729894E
:102580003A894B895C890E9485172091040130911A
:10259000050140910601509107010E94851720E036
:1025A00030E046E154E40E94C61869837A838B8345
:1025B0009C8320E030E0A9010E941F1787FD15C011
:1025C00020E030E040EA51E469817A818B819C818E
:1025D0000E946E1918166CF480E090E0A0EAB1E455
:1025E00089839A83AB83BC8304C019821A821B82BD
:1025F0001C828090BF059090C005A090C105B0904E
:10260000C2052091BB053091BC054091BD0550919C
:10261000BE05C501B4010E945A189B01AC01C50159
:10262000B4010E94C6182B013C016093CF05709342
:10263000D0058093D1059093D205C090CB05D09062
:10264000CC05E090CD05F090CE0520E030E040EAEA
:1026500051E46D817E818F8198850E94C61820E0AB
:1026600030EC4FE754E40E94851720E030E0A901E8
:102670000E945A180E943819072E000C880B990BDB
:102680000E942617A70196010E9459189B01AC01D0
:10269000C301B2010E9485179B01AC01C701B601BD
:1026A0000E945A1869877A878B879C876093C70531
:1026B0007093C8058093C9059093CA05A301920140
:1026C00060E070E080E89FE30E945918A501940142
:1026D0000E9485174B015C0129853A854B855C85F5
:1026E000C701B6010E9459189F772091C305309108
:1026F000C4054091C5055091C6050E9485179B01F0
:10270000AC01C501B4010E945A186093BF057093D3
:10271000C0058093C1059093C20589859A85AB85D4
:10272000BC858093CB059093CC05A093CD05B09349
:10273000CE058090D7059090D805A090D905B0908F
:10274000DA052091D3053091D4054091D5055091FB
:10275000D605C501B4010E945A189B01AC01C50100
:10276000B4010E94C6182B013C016093E7057093E9
:10277000E8058093E9059093EA05C090E305D090C1
:10278000E405E090E505F090E60520E030E040EA61
:1027900051E469817A818B819C810E94C61820E076
:1027A00030EC4FE754E40E94851720E030E0A901A7
:1027B0000E945A180E943819072E000C880B990B9A
:1027C0000E942617A70196010E9459189B01AC018F
:1027D000C301B2010E9485179B01AC01C701B6017C
:1027E0000E945A186D877E878F87988B6093DF05CC
:1027F0007093E0058093E1059093E205A3019201B7
:1028000060E070E080E89FE30E945918A501940100
:102810000E9485174B015C012D853E854F855889A7
:10282000C701B6010E9459189F772091DB053091AE
:10283000DC054091DD055091DE050E9485179B0166
:10284000AC01C501B4010E945A186093D70570937A
:10285000D8058093D9059093DA058D859E85AF853F
:10286000B8898093E3059093E405A093E505B093C0
:10287000E60520E030E040E050E469897A898B8900
:102880009C890E941F172091010187FF18C0809129
:10289000940290919502843191053CF0109295023A
:1028A00010929402109293021FC001969093950289
:1028B00080939402809193028823B1F007C0109214
:1028C00095021092940291E09093930221111AC004
:1028D00084E092E00E944E0C61E088E00E946B0A66
:1028E000A1E0A093010120C1222309F41DC182E1CE
:1028F00092E00E944E0C60E088E00E946B0A109209
:10290000010112C16D857E858F8598890E943819D5
:102910002B013C0169857A858B859C850E9438193D
:102920006D8B7E8B8F8B988FF2012D893E89E21BF8
:10293000F30BFE8FED8FF0939F02E0939E020091C8
:102940009A0210919B02B801012E000C880B990B82
:102950000E9426174B015C016D8D7E8D77FF03C0B1
:10296000719561957109072E000C880B990B0E94D7
:1029700026172DEC3CEC4CE45FE30E9485170E9487
:102980003819072E000C880B990B0E9426176B0133
:102990007C012AE037ED43EA5DE3C501B4010E9402
:1029A00085179B01AC01C701B6010E945A180E940D
:1029B0003819072E000C880B990B0E9426176B0103
:1029C0007C0160919802709199026419750977FFF2
:1029D00003C0719561957109072E000C880B990B46
:1029E0000E94261720E030E040EC50E40E9485175A
:1029F0009B01AC01C701B6010E945A180E94381908
:102A00006B017C012DEC3CEC4CEC5DE3C501B401A9
:102A10000E9485174B015C0120E030E040E85FE355
:102A20000E941F1787FD05C0D0929D02C0929C0294
:102A300010C0B601DD0C880B990B0E942617A5016A
:102A400094010E9485170E94381970939D0260932B
:102A50009C020F5F1F4F10939B0200939A0280917C
:102A60009C0290919D028F3F910539F034F08FEFD9
:102A700090E090939D0280939C0280919C029091A3
:102A80009D0297FF04C010929D0210929C028D8DB2
:102A90009E8D0496099740F410929D0210929C021C
:102AA00010929B0210929A02AD8DBE8D1A161B06D3
:102AB0008CF40E949A0983E290E00197F1F700916B
:102AC0009C0210919D0260E070E08AE00E94D70AAB
:102AD000B80113C0ED8DFE8DEF2B91F00E949A0985
:102AE00083E290E00197F1F760919C0270919D0262
:102AF0008AE00E94D70A60E070E089E00E94D70A6D
:102B000050929902409298022D893E893093970203
:102B10002093960260E070E0CB010E945B0B009175
:102B20009C0210919D0202C000E010E042E0698921
:102B30007A898B899C890E94F20C87E790E00E9439
:102B4000210A42E06D817E818F8198850E94F20C7E
:102B500084E790E00E94210A42E069817A818B81BA
:102B60009C810E94F20C81E790E00E94210A42E0E1
:102B70006D857E858F8598890E94F20C8EE690E0A7
:102B80000E94210A42E069857A858B859C850E9496
:102B9000F20C8BE690E00E94210AA801110F660B4F
:102BA000770B8CE995E00E94AA0C88E690E00E94E1
:102BB000210A8091010190E00E94DC0C0E946701D3
:102BC00090CA88E391E090939D0580939C058CE9E1
:102BD00095E00C948409CF92DF92EF92FF921092CD
:102BE00000051092FF0498EEC92E93E0D92EE12C37
:102BF000F12CC0920105D0920205E0920305F092FB
:102C000004058AE191E09093FE048093FD0485EC35
:102C100090E090930A058093090584EC90E09093EE
:102C20000C0580930B0580EC90E090930E0580934B
:102C30000D0581EC90E09093100580930F0582ECD8
:102C400090E0909312058093110586EC90E09093AC
:102C50001405809313051092160510921705109213
:102C600018051092190580E580939A0510929B052E
:102C70001092FD051092FE051092010610920306B7
:102C800082E090E0A0E0B0E0809304069093050617
:102C9000A0930606B093070610921B061092250615
:102CA000109224068CE291E09093230680932206F2
:102CB000109227066091140170911501072E000CE7
:102CC000880B990B0E9426179B01AC0160E070E015
:102CD00080E89FE30E94C61820E034E244E759E40C
:102CE0000E9485176093EB057093EC058093ED05CA
:102CF0009093EE0580E090E0A8ECB2E48093D305D9
:102D00009093D405A093D505B093D6058093D705AD
:102D10009093D805A093D905B093DA054DEC5CECFF
:102D20006CEC7DE34093DB055093DC056093DD059F
:102D30007093DE058093BB059093BC05A093BD0501
:102D4000B093BE058093BF059093C005A093C105C5
:102D5000B093C2054093C3055093C4056093C50565
:102D60007093C60510929F0510929E05C092A00513
:102D7000D092A105E092A205F092A30588E391E02C
:102D800090939D0580939C051092B3051092B20517
:102D90001092B5051092B4051092B7051092B605C1
:102DA0001092B9051092B8056091BA056E7F6D7FDB
:102DB0006093BA056695617081E0682783E10E949F
:102DC0006B0A61E083E10E949B0AE3EDF0E0E4918D
:102DD000E093AC05EFEBF0E0E491F0E0EE0FFF1FC5
:102DE000E856FF4F859194919093AE058093AD0581
:102DF00060E082E10E949B0A8091BA0581FD04C0D7
:102E000061E082E10E946B0A82E18093A805E2ED15
:102E1000F0E0E491E093A905EEEBF0E0E491F0E05E
:102E2000EE0FFF1FEE55FF4F859194919093AB05E8
:102E30008093AA05FF90EF90DF90CF9008950E94B5
:102E4000611708F481E00895E89409C097FB3EF407
:102E500090958095709561957F4F8F4F9F4F9923E7
:102E6000A9F0F92F96E9BB279395F6958795779565
:102E70006795B795F111F8CFFAF4BB0F11F460FF25
:102E80001BC06F5F7F4F8F4F9F4F16C0882311F07D
:102E900096E911C0772321F09EE8872F762F05C091
:102EA000662371F096E8862F70E060E02AF09A952C
:102EB000660F771F881FDAF7880F9695879597F921
:102EC0000895990F0008550FAA0BE0E8FEEF1616BB
:102ED0001706E807F907C0F012161306E407F5070E
:102EE00098F0621B730B840B950B39F40A2661F082
:102EF000232B242B252B21F408950A2609F4A14025
:102F0000A6958FEF811D811D08950E9498170C943E
:102F100009180E94FB1738F00E94021820F0952330
:102F200011F00C94F2170C94F81711240C943D181E
:102F30000E941A1870F3959FC1F3950F50E0551F2A
:102F4000629FF001729FBB27F00DB11D639FAA27FE
:102F5000F00DB11DAA1F649F6627B00DA11D661F4D
:102F6000829F2227B00DA11D621F739FB00DA11D6E
:102F7000621F839FA00D611D221F749F3327A00D28
:102F8000611D231F849F600D211D822F762F6A2FC4
:102F900011249F5750409AF0F1F088234AF0EE0F29
:102FA000FF1FBB1F661F771F881F91505040A9F756
:102FB0009E3F510580F00C94F2170C943D185F3F32
:102FC000E4F3983ED4F3869577956795B795F79592
:102FD000E7959F5FC1F7FE2B880F911D969587950A
:102FE00097F9089597F99F6780E870E060E0089589
:102FF0009FEF80EC089500240A9416161706180611
:103000000906089500240A941216130614060506EC
:103010000895092E0394000C11F4882352F0BB0F7D
:1030200040F4BF2B11F460FF04C06F5F7F4F8F4FE0
:103030009F4F089557FD9058440F551F59F05F3F1B
:1030400071F04795880F97FB991F61F09F3F79F0CA
:1030500087950895121613061406551FF2CF46954C
:10306000F1DF08C0161617061806991FF1CF8695CE
:103070007105610508940895E894BB2766277727B2
:10308000CB0197F90895F999FECF92BD81BDF89AC9
:10309000992780B50895262FF999FECF1FBA92BDC2
:1030A00081BD20BD0FB6F894FA9AF99A0FBE019629
:1030B00008955058BB27AA270E9471180C9409182C
:1030C0000E94FB1738F00E94021820F039F49F3F4D
:1030D00019F426F40C94F8170EF4E095E7FB0C9421
:1030E000F217E92F0E941A1858F3BA1762077307EC
:1030F0008407950720F079F4A6F50C943C180EF49B
:10310000E0950B2EBA2FA02D0B01B90190010C01F7
:10311000CA01A0011124FF27591B99F0593F50F40F
:10312000503E68F11A16F040A22F232F342F442767
:10313000585FF3CF469537952795A795F04053955F
:10314000C9F77EF41F16BA0B620B730B840BBAF02F
:103150009150A1F0FF0FBB1F661F771F881FC2F79A
:103160000EC0BA0F621F731F841F48F487957795AE
:103170006795B795F7959E3F08F0B0CF9395880F68
:1031800008F09927EE0F9795879508950E94DA1811
:103190000C9409180E94021858F00E94FB1740F086
:1031A00029F45F3F29F00C94F21751110C943D184B
:1031B0000C94F8170E941A1868F39923B1F3552359
:1031C00091F3951B550BBB27AA276217730784073A
:1031D00038F09F5F5F4F220F331F441FAA1FA9F3D0
:1031E00035D00E2E3AF0E0E832D091505040E695BE
:1031F000001CCAF72BD0FE2F29D0660F771F881F1F
:10320000BB1F261737074807AB07B0E809F0BB0B11
:10321000802DBF01FF2793585F4F3AF09E3F510525
:1032200078F00C94F2170C943D185F3FE4F3983E4D
:10323000D4F3869577956795B795F7959F5FC9F70E
:10324000880F911D9695879597F90895E1E0660F8F
:10325000771F881FBB1F621773078407BA0720F008
:10326000621B730B840BBA0BEE1F88F7E095089571
:103270000E943F196894B1110C943D1808950E9462
:10328000221888F09F5798F0B92F9927B751B0F0BE
:10329000E1F0660F771F881F991F1AF0BA95C9F7DA
:1032A00014C0B13091F00E943C18B1E008950C9424
:1032B0003C18672F782F8827B85F39F0B93FCCF3D7
:1032C000869577956795B395D9F73EF49095809557
:1032D000709561957F4F8F4F9F4F08950E946117A2
:1032E00008F48FEF08950E946117880B990B0895D9
:1032F00097FB072E16F4009407D077FD09D00E94A3
:10330000AE1907FC05D03EF4909581959F4F089526
:10331000709561957F4F0895A1E21A2EAA1BBB1BE1
:10332000FD010DC0AA1FBB1FEE1FFF1FA217B30791
:10333000E407F50720F0A21BB30BE40BF50B661FA7
:10334000771F881F991F1A9469F76095709580956B
:1033500090959B01AC01BD01CF010895AA1BBB1B39
:1033600051E107C0AA1FBB1FA617B70710F0A61B85
:10337000B70B881F991F5A95A9F780959095BC01A6
:10338000CD010895EE0FFF1F0590F491E02D0994F3
:1033900081E090E0F8940C94CD1910E0CBE6D0E0F9
:1033A00004C0FE010E94C2192196CC36D107C9F78C
:0433B000F894FFCFBF
:1033B40065013C000000C040FFFFFFFFCD09CD09BF
:1033C400003C40472D0300000000FE00D509960094
:1033D4004501C700A500B900000000006406D50936
:1033E40022022102000000009401D5092202930167
:1033F400E80100027B0143616C6962726174696F68
:103404006E4B65792073746F726564000D0A004F0A
:103414006B20454550524F4D204B657900537461E4
:103424007274696E67207661726961626C6573009B
:103434004D50503A200050504C3A20004C50503AD5
:1034440020004D616368696E6557696474683A2049
:10345400004C6974657250657248613A2000696E67
:10346400697469616C697A6174696F6E20646F6EE6
:10347400652E00537065656453696D756C6174697C
:103484006F6E207365742061733A20005370656514
:103494006443616C6962726174652053746172740F
:1034A40000537065656443616C6962726174652080
:1034B400656E64004F70656E696E672056616C7648
:1034C4006500436C6F73696E672056616C766500A6
:0C34D4006E616E00696E66006F76660027
:00000001FF
