:100000000C9491000C9466120C943F120C94B9005D
:100010000C94B9000C94B9000C94B9000C94B9007C
:100020000C94B9000C94B9000C94B9000C94B9006C
:100030000C94B9000C94B9000C94B9000C94B9005C
:100040000C94F5110C94B9000C947D020C94570299
:100050000C94B9000C94B9000C94B9000C94B9003C
:100060000C94B9000C94B9004E414E494E49545974
:10007000494E46CDCCCC3D0AD7233C17B7D1387773
:10008000CC2B329595E6241FB14F0A000020410089
:1000900000C84200401C4620BCBE4CCA1B0E5AAED3
:1000A000C59D742C20002C20002C20002C20002C1E
:1000B00020002C200000000000240027002A00005F
:1000C000000000250028002B00000000002300266F
:1000D00000290004040404040404040202020202CD
:1000E00002030303030303010204081020408001FC
:1000F000020408102001020408102000000008007B
:100100000201000003040700000000000000007C62
:100110003C3E5E2B3D3F2F5B5D3B2C2A225C00006A
:10012000B81E11241FBECFEFD8E0DEBFCDBF27E041
:10013000AEEAB2E001C01D92AF31B207E1F712E0C2
:10014000A0E0B1E0EAE4FBE402C005900D92AE3A13
:10015000B107D9F710E0C1E9D0E004C02197FE0152
:100160000E947523C039D107C9F70E944F130C9420
:10017000A3250C940000FC01538D448D252F30E005
:10018000842F90E0821B930B541710F0CF960895A4
:1001900001970895FC01918D828D981761F0828DF1
:1001A000DF01A80FB11D5D968C91928D9F5F9F73AB
:1001B000928F90E008958FEF9FEF0895FC01918D4D
:1001C000828D981731F0828DE80FF11D858D90E0BA
:1001D00008958FEF9FEF0895FC01918D228D892F57
:1001E00090E0805C9F4F821B91098F73992708953F
:1001F00088EF95E00E94EC0021E0892B09F420E0D3
:10020000822F0895FC01848DDF01A80FB11DA35A30
:10021000BF4F2C91848D90E001968F739927848F26
:10022000A689B7892C93A089B1898C9180648C931D
:10023000938D848D981306C00288F389E02D808108
:100240008F7D80830895EF92FF920F931F93CF933A
:10025000DF93EC0181E0888F9B8D8C8D981305C016
:10026000E889F989808185FD24C0F62E0B8D10E088
:100270000F5F1F4F0F731127E02E8C8DE8120CC0FB
:100280000FB607FCFACFE889F989808185FFF5CFA1
:10029000CE010E940201F1CF8B8DFE01E80FF11D0E
:1002A000E35AFF4FF0820B8FEA89FB8980818062DD
:1002B00007C0EE89FF896083E889F98980818064BD
:1002C000808381E090E0DF91CF911F910F91FF90AB
:1002D000EF900895CF93DF93EC01888D8823C9F0C8
:1002E000EA89FB89808185FD05C0A889B9898C913F
:1002F00086FD0FC00FB607FCF5CF808185FFF2CFDA
:10030000A889B9898C9185FFEDCFCE010E940201A9
:10031000E7CFDF91CF91089580E090E0892B29F01D
:100320000E94F80081110C9400000895DC01599698
:10033000ED91FC915A973097B9F083899489A589FA
:10034000B6894285538564857585841B950BA60BFC
:10035000B70B811520E89207A105B10538F08FEFA2
:100360009FE7A0E0B0E0089580E090E00895CF938B
:10037000DF931F92CDB7DEB76983DC01ED91FC916D
:100380000280F381E02D41E050E0BE016F5F7F4FBE
:1003900009950F90DF91CF910895089580E090E046
:1003A00008958091AE029091AF02A091B002B091F9
:1003B000B1020196A11DB11D8093AE029093AF02D0
:1003C000A093B002B093B10208950E9472250E94DA
:1003D0005E112091EB033091EC03621B730B709361
:1003E000B3026093B2028091B2029091B30297FF80
:1003F0000BC08091B2029091B302919581959109C1
:100400009093B3028093B2020E945E116093EB035B
:100410007093EC038093ED039093EE0308950F9394
:100420001F930E945E110091E7031091E803209151
:10043000E9033091EA03DC01CB01801B910BA20B95
:10044000B30B8093B4029093B502A093B602B0931D
:10045000B7028091B4029091B502A091B602B0911A
:10046000B702B7FF17C08091B4029091B502A09176
:10047000B602B091B702B095A095909581959F4F27
:10048000AF4FBF4F8093B4029093B502A093B602D2
:10049000B093B7020E945E116093E7037093E80384
:1004A0008093E9039093EA031F910F9108951F929F
:1004B0000F920FB60F9211242F933F934F935F9398
:1004C0006F937F938F939F93AF93BF93EF93FF931C
:1004D00088EF95E00E940201FF91EF91BF91AF91EB
:1004E0009F918F917F916F915F914F913F912F914C
:1004F0000F900FBE0F901F9018951F920F920FB67E
:100500000F9211242F938F939F93EF93FF93E0917A
:100510000806F09109068081E0910E06F0910F0621
:1005200082FD12C09081809111068F5F8F732091A0
:100530001206821751F0E0911106F0E0E850FA4FF0
:10054000958F8093110601C08081FF91EF919F915B
:100550008F912F910F900FBE0F901F9018958FB70E
:10056000F8948091F0038FBF089561E0FC018481CD
:100570000E9493108091EF0381111092EF03089570
:100580008EBD00000DB407FEFDCF8EB508958FEF30
:100590000C94C0020F931F93CF93DF93EB010E9443
:1005A000BD118B010E94C7028F3F49F00E94BD110F
:1005B000601B710B6C177D07A8F380E001C081E020
:1005C000DF91CF911F910F910895CF93DF93EC01AD
:1005D0008E81882389F08F8198859C012F5F3F4F02
:1005E00038872F838230924018F40E94C702F3CFDD
:1005F000CE010E94B5021E82DF91CF9108958CBD7D
:100600009DBD0895CF93DF93EC018091EF0381119D
:1006100009C081E08093EF03809195069091960642
:100620000E94FF0260E08C81DF91CF910C949310C7
:10063000CF92DF92FF920F931F93CF93DF9300D05F
:1006400000D0CDB7DEB76C01F62E29833A834B83F9
:100650005C830E94E502C6010E9402036CE271E025
:10066000C6010E94CA028F2D80640E94C00208E168
:1006700010E05C814B813A812981DA01C901002EA9
:1006800004C0B695A795979587950A94D2F72983C4
:100690003A834B835C830E94C00208501109298170
:1006A0003A814B815C81083F8FEF180731F7FF20BB
:1006B00029F0E8E0FE1204C087E803C085E901C024
:1006C0008FEF0E94C00210E00E94C702F6018287ED
:1006D00087FF04C01F3F11F01F5FF6CF0F900F90F0
:1006E0000F900F90DF91CF911F910F91FF90DF90AE
:1006F000CF900895AF92BF92CF92DF92EF92FF9288
:100700000F931F93CF93DF93EC016901C801820F10
:10071000931F8130924008F070C08E81882371F061
:1007200088819981AA81BB81481759076A077B078D
:1007300029F48F819885C816D906B0F54883598366
:100740006A837B838B85833039F089E0440F551FA2
:10075000661F771F8A95D1F79A01AB0161E1CE013F
:100760000E941803882319F083E08D8346C00E94FD
:10077000BD115B010E94C7028A878F3F49F40E9426
:10078000BD116A197B096D327140A0F38FE003C07F
:100790008E3F31F08DE08D83CE010E94B5022DC0D9
:1007A00018861F8281E08E838F8198858C159D0528
:1007B00040F40E94C7028F819885019698878F83A5
:1007C000F3CF6701E00EF11ECE14DF0431F00E947A
:1007D000C702F60181936F01F7CF8F819885080FCB
:1007E000191F18870F838985882319F00115124076
:1007F00048F0CE010E94E50205C0CE010E94B5027C
:1008000080E001C081E0DF91CF911F910F91FF90B7
:10081000EF90DF90CF90BF90AF900895EF92FF924E
:100820000F931F93CF93DF93EC017901411551058D
:100830006105710511F482E13CC08B85833039F08C
:1008400089E0440F551F661F771F8A95D1F79A01DB
:10085000AB0168E1CE010E941803882311F084E007
:1008600028C08EEF0E94C00287018EEFF81AF801AF
:1008700081918F010E94C0020E151F05C1F78FEFF5
:100880000E94C0028FEF0E94C0020E94C7028A87A6
:100890008F71853031F081E18D83CE010E94B502E8
:1008A00009C068E572E0CE010E94CA02811107C04A
:1008B00085E18D83CE010E94B50280E013C020E067
:1008C00030E0A9016DE0CE010E941803811104C03F
:1008D0000E94C702882311F084E1EBCFCE010E9471
:1008E000B50281E0DF91CF911F910F91FF90EF90C2
:1008F00008958091F7038823A9F140911401509144
:100900001501609116017091170128EF33E0809175
:10091000F5039091F6030E940E04811102C080E05D
:1009200008954091F1035091F2036091F3037091A7
:10093000F403411551056105710591F028EF33E08D
:100940008091F5039091F6030E940E04882339F3F9
:100950001092F1031092F2031092F3031092F40339
:100960001092F70381E008958F929F92AF92BF9209
:10097000EF92FF920F931F93CF934B015C01C42F13
:100980008091140190911501A0911601B091170169
:1009900088159905AA05BB0501F10E94790481110A
:1009A00002C080E020C088EFE82E83E0F82E00E04F
:1009B00012E020E030E0B501A4018091F5039091B0
:1009C000F6030E947A03882361F3809214019092C7
:1009D0001501A0921601B09217018091F703C82B60
:1009E000C093F70381E0CF911F910F91FF90EF909B
:1009F000BF90AF909F908F9008954F925F926F92AB
:100A00007F928F929F92AF92BF92CF92DF92EF929E
:100A1000FF920F931F93CF93DF93EC016A017B0149
:100A200028013901423051056105710510F480E05B
:100A300073C089859A85AB85BC850196A11DB11DC2
:100A400084179507A607B70790F38B889C88AD8815
:100A5000BE888F89803129F4BB27AF2D9E2D8D2D27
:100A600009C0DB01CA0147E0B695A7959795879520
:100A70004A95D1F7880E991EAA1EBB1E80911401BB
:100A800090911501A0911601B09117018816990651
:100A9000AA06BB0679F48F898031A1F4DD24EE2407
:100AA000FF24C601880F991FFC01E850FC4F5182BA
:100AB000408219C040E0C501B4010E94B404811114
:100AC000EACFB5CFE894C7F8DD24EE24FF24C601B1
:100AD000880F991F880F991FFC01E850FC4F408236
:100AE0005182628273828091F70381608093F70361
:100AF0008A89823080F08D819E81AF81B885880E91
:100B0000991EAA1EBB1E8092F1039092F203A0923E
:100B1000F303B092F40381E0DF91CF911F910F9125
:100B2000FF90EF90DF90CF90BF90AF909F908F900D
:100B30007F906F905F904F9008958F929F92AF92A9
:100B4000BF92CF92DF92EF92FF920F931F93CF93BA
:100B5000DF93FC0181859285A385B4850196A11D53
:100B6000B11D84179507A607B70710F480E05CC095
:100B700083899489A589B689C789C03129F4852ECE
:100B8000962EA72EBB2409C04A015B01C7E0B6948C
:100B9000A79497948794CA95D1F7E9016A017B01DC
:100BA0008F01BC01CD01680D791D8A1D9B1D8090B0
:100BB000140190901501A0901601B09017016815CE
:100BC00079058A059B0599F4F80187898031A9F494
:100BD000B701A601552766277727440F551FFA014D
:100BE000E850FC4F80819181A0E0B0E018C040E067
:100BF0000E94B4048111E8CFB9CFB701A6014F77A5
:100C0000552766277727440F551F440F551FFA01B4
:100C1000E850FC4F80819181A281B381BF708883AD
:100C20009983AA83BB8381E0DF91CF911F910F91BC
:100C3000FF90EF90DF90CF90BF90AF909F908F90FC
:100C400008954F925F926F927F92AF92BF92CF9230
:100C5000DF92EF92FF920F931F93CF93DF9300D019
:100C600000D0CDB7DEB78C0149835A836B837C8378
:100C70005901C12CD12C7601412C82E0582E612CD7
:100C8000712C49815A816B817C819E012F5F3F4F7E
:100C9000C8010E949D05882351F1D301C201F801CA
:100CA000058404C0880F991FAA1FBB1F0A94D2F79E
:100CB000C80ED91EEA1EFB1E49815A816B817C81B8
:100CC0008789803129F088EF9FEFAFEFBFE004C044
:100CD00088EF9FEFA0E0B0E0481759076A077B074D
:100CE00080F2F501C082D182E282F38281E00F902E
:100CF0000F900F900F90DF91CF911F910F91FF9068
:100D0000EF90DF90CF90BF90AF907F906F905F900B
:100D10004F9008958F929F92AF92BF92CF92DF92A1
:100D2000EF92FF920F931F93CF93DF93EC018D818E
:100D3000811102C080E077C00B891C892D893E8912
:100D40000417150726073707A8F36A017B018230CD
:100D500029F4CA86DB86EC86FD860DC0C114D10459
:100D6000E104F10451F41E821F82188619861A8646
:100D70001B861C861D8681E056C08A849B84AC84B9
:100D8000BD84EB8DFC8D258530E0275F3F4FB5019D
:100D9000A4014150510961097109022E04C07695E0
:100DA0006795579547950A94D2F7D701C6010197E1
:100DB000A109B10904C0B695A795979587952A957D
:100DC000D2F784179507A607B70720F089288A2845
:100DD0008B2849F44F89588D698D7A8D4E835F83B6
:100DE0006887798704C0841B950BA60BB70B4C0151
:100DF0005D018E010A5F1F4F81149104A104B104AB
:100E000009F4A7CF4E815F816885798598018B8D24
:100E10009C8D0E949D0591E0891A9108A108B10856
:100E20008111EACF87CFDF91CF911F910F91FF9072
:100E3000EF90DF90CF90BF90AF909F908F900895EC
:100E40003F924F925F926F927F928F929F92AF925A
:100E5000BF92CF92DF92EF92FF920F931F93CF93A7
:100E6000DF93CDB7DEB72C970FB6F894DEBF0FBE79
:100E7000CDBF5C01DC015B968D909C905C971696D3
:100E8000CD90DD90ED90FC901997C114D104E10450
:100E9000F10439F0BFEFCB1ADB0AEB0AFB0A312C65
:100EA00007C0F401C080D180E280F3803324339402
:100EB000F40181859285A385B4859C01AD012F5FE6
:100EC0003F4F4F4F5F4F29873A874B875C872601FB
:100ED00037011D821E821F821886F401818592854A
:100EE000A385B4852D813E814F8158852817390708
:100EF0004A075B0708F063C089859A85AB85BC8586
:100F00008C159D05AE05BF0550F482E0C82ED12C8E
:100F1000E12CF12C92E0492E512C612C712C9E0178
:100F20002F5F3F4FB701A601C4010E949D05882392
:100F300009F445C089819A81AB81BC81892B8A2BB8
:100F40008B2B41F0260137019FEF491A590A690A94
:100F5000790A05C0C414D504E604F70491F02D8184
:100F60003E814F8158852F5F3F4F4F4F5F4F2D83FD
:100F70003E834F8358873FEFC31AD30AE30AF30A2D
:100F8000ACCF0FEF1FEF2FEF3FE0B301A201C40181
:100F90000E94FD04882399F0D50116964D915D912C
:100FA0006D917C911997411551056105710549F0C5
:100FB00093018201C4010E94FD04811102C080E0FE
:100FC0002AC0D50116964D925D926D927C9219972A
:100FD000332051F0D301C2010196A11DB11DF401CE
:100FE00080839183A283B383F5018789908DA18D3E
:100FF000B28D892B8A2B8B2B69F4D50157964D9294
:101000005D926D927C925A9714968C911497806899
:1010100014968C9381E02C960FB6F894DEBF0FBE29
:10102000CDBFDF91CF911F910F91FF90EF90DF9097
:10103000CF90BF90AF909F908F907F906F905F9078
:101040004F903F900895CF93DF93EC018D818823DB
:10105000A1F18C8187FF2DC06E857F858889998954
:1010600041E00E94B404882341F1EA8980E2E89FCC
:10107000F0011124DF01A850BC4F1097F1F08D81D1
:10108000823050F44B895C896D897E895C964D93E2
:101090005D936D937C935F978F89988DA98DBA8DA1
:1010A000E850FC4F938F828FB58BA48B8C818F7708
:1010B0008C83DF91CF910C94790480E0DF91CF9104
:1010C0000895CF93DF93EC010E942308882311F049
:1010D0001D8281E0DF91CF910895FC01818D928D79
:1010E000009711F00C94230808952F923F924F928D
:1010F0005F926F927F928F929F92AF92BF92CF92A8
:10110000DF92EF92FF920F931F93CF93DF9300D064
:1011100000D0CDB7DEB78C015B011A01DC0115965A
:101120008C9115978130C9F414968C9181FF15C06C
:1011300082FF1BC0F80143895489658976898285BD
:101140009385A485B58584179507A607B70769F029
:10115000C8010E948A06811108C081E090E0F80170
:101160009383828380E090E039C1610183C0D8011C
:101170005B968D919C915C97FC01248121502A0102
:101180003B0139E076946794579447943A95D1F7A8
:10119000722E74207A01F1E0FF22772009F476C0E4
:1011A00080E092E08E199F0946018C159D0508F498
:1011B0004C01D8015B962D913C915C9716968D91D0
:1011C0009D910D90BC91A02D0297A109B109F90143
:1011D000058404C0880F991FAA1FBB1F0A94D2F769
:1011E0004685578560897189840F951FA61FB71F93
:1011F0009C01AD01270D311D411D511D29013A01F1
:10120000811432E0930609F088C080911401909116
:101210001501A0911601B091170184159505A60539
:10122000B70559F48FEF9FEFDC0180931401909381
:101230001501A0931601B09317019501B301A20106
:101240008091F5039091F6030E940E04882309F41F
:1012500084CF9EEFB91AC818D908F8018285938502
:10126000A485B585880D991DA11DB11D8287938721
:10127000A487B587D8011A964D915D916D917C91A7
:101280001D97C114D10409F072CF87C0E114F10495
:1012900009F086CF16964D915D916D917C911997CD
:1012A000411551056105710559F457968D919D9130
:1012B0000D90BC91A02D0097A105B10541F521C06D
:1012C0009E012F5F3F4F0E949D05882309F44BCF5D
:1012D00089819A81AB81BC81F801238D348DF9011C
:1012E0002789203129F048EF5FEF6FEF7FE004C0DE
:1012F00048EF5FEF60E070E084179507A607B70737
:1013000030F0C8010E94200781114ACF26CFF80192
:1013100086839783A087B18743CFE114F10429F531
:10132000D8011A964D915D916D917C911D975396C0
:101330008D919D910D90BC91A02D481759076A077A
:101340007B0798F00E947904882309F406CF409225
:10135000140150921501609216017092170180914C
:10136000F70381608093F70308C041E0C301B20135
:101370000E94B404882309F4F0CED501F701E850A7
:10138000FC4FCF01880D991DE817F90719F02D9131
:101390002193FACFA80CB91C5ECF53968D919D91E5
:1013A0000D90BC91A02D84179507A607B70740F4B0
:1013B000F801438B548B658B768B848180688483A2
:1013C000D80114968C9183FD02C0C10107C0C801E9
:1013D0000E942308882309F4C0CEF7CF0F900F9006
:1013E0000F900F90DF91CF911F910F91FF90EF9091
:1013F000DF90CF90BF90AF909F908F907F906F9035
:101400005F904F903F902F900895CF93DF931F925E
:10141000CDB7DEB7698341E050E0BE016F5F7F4F1B
:101420000E9475080F90DF91CF910895CF93DF93BD
:10143000EC01898D9A8D009739F481E090E09B83CF
:101440008A8380E090E00BC0FC01138212820E942C
:101450007508E98DFA8D22813381232B71F7DF9195
:10146000CF910895FC01DB0112968D919C91139709
:10147000938382838BE591E09183808314968C9192
:101480001497848315968C911597858316964D91A4
:101490005D916D917C911997468357836087718721
:1014A0001A964D915D916D917C911D97428753875E
:1014B000648775871E964D915D916D917C915197D2
:1014C00046875787608B718B52968C915297828B8F
:1014D00053964D915D916D917C915697438B548BB2
:1014E000658B768B57964D915D916D917C915A9756
:1014F000478B508F618F728F5B968D919C915C971B
:10150000948F838F0895EF92FF920F931F93CF9341
:10151000DF93EC017B018A011B821A8288EE93E043
:10152000A0E0B0E08C839D83AE83BF8383E291E033
:10153000998388838DE190E00E947B239A8F898F25
:10154000009779F02DE1F701DC0101900D922A95C9
:10155000E1F74CE050E0B801CE010C960E949425D2
:10156000188EDF91CF911F910F91FF90EF9008950A
:101570002F923F924F925F926F927F928F929F92A3
:10158000AF92BF92CF92DF92EF92FF920F931F9391
:10159000CF93DF9300D0CDB7DEB7FC0185818823E0
:1015A00009F4D9C0848180FFD6C021E02A83438911
:1015B00054896589768982859385A485B585481780
:1015C00059076A077B0709F41A826F013A81832F52
:1015D00090E0DE0111964D013F01B6E06B0E711CEB
:1015E000892B09F47DC0D6011A964D915D916D91BC
:1015F0007C911D975A01B1E0BB22F60125811A01A9
:101600002B0189E056944794379427948A95D1F713
:10161000838D948D223061F4FC01828D938DA48D95
:10162000B58DBC01CD01620D731D841D951D45C096
:10163000DC0114961C9111501221A114B104D1F4B3
:10164000111118C0452B462B472B51F4F601878901
:10165000908DA18DB28D86839783A087B1870AC0B4
:10166000468157816085718593010E949D0588237D
:1016700009F471C0F601238D348D86819781A08590
:10168000B1850297A109B109AC01BD01F901058439
:1016900004C0440F551F661F771F0A94D2F7868532
:1016A0009785A089B189840F951FA61FB71FBC011C
:1016B000CD01610F711D811D911DD60114962C91D4
:1016C00026FF14C0009114011091150120911601FC
:1016D00030911701601771078207930751F506C013
:1016E000FA81FF23C1F1898190E037C040E00E9478
:1016F000B404882381F1F501E850FC4FD401CF01F7
:101700000196E817F90719F021912D93FACFEFEF21
:101710008E1A9E0AF60182859385A485B585019669
:10172000A11DB11D82879387A487B58780E090E0D3
:1017300057CF740101E010E09501AB01BC0180912D
:10174000F5039091F6030E947A03882321F0BFEFFE
:101750008B1A9B0ADFCF8FEF9FEF0F900F90DF91D7
:10176000CF911F910F91FF90EF90DF90CF90BF909E
:10177000AF909F908F907F906F905F904F903F9031
:101780002F900895FC01818D928D009711F00C949B
:10179000B80A8FEF9FEF08950F931F93CF93DF93B6
:1017A000FC01818D928D0097B9F0EF010E94B80A7B
:1017B0008C010F3F8FEF180791F0898D9A8DFC01F6
:1017C00042855385648575854150510961097109C8
:1017D0000E948A06C80105C080E090E002C08FEF39
:1017E0009FEFDF91CF911F910F910895EF92FF929C
:1017F0000F931F93CF93DF937C018B01C0E0D0E068
:10180000F80161918F01CE018E0D9F1D0E94D5219F
:101810002196C430D105A1F784E090E0DF91CF910B
:101820001F910F91FF90EF90089560E088E00E9473
:10183000931060E087E00C94931060E070E08AE021
:101840000E94FF1060E070E089E00C94FF10E091CE
:10185000F805F091F9050190F081E02D682F88EFEF
:1018600095E00994833081F028F4813099F082303A
:10187000A1F008958730A9F08830B9F08430D1F410
:10188000809180008F7D03C0809180008F7780934E
:101890008000089584B58F7702C084B58F7D84BDA4
:1018A00008958091B0008F7703C08091B0008F7D44
:1018B0008093B000089508950895CF93DF93EC01CD
:1018C0006A8B8091140190911501A0911601B0913D
:1018D00017018E879F87A88BB98B80E2689FF001E4
:1018E0001124E850FC4F4489558960E070E0BA014A
:1018F000552744274F8B588F698F7A8F828D938D10
:10190000A0E0B0E0482B592B6A2B7B2B4F8B588FD4
:10191000698F7A8F8385887151F4848D958DA68D1A
:10192000B78D8B8B9C8BAD8BBE8B81E00EC08031D5
:1019300011F080E015C09E012D5E3F4F8B8D9C8D78
:101940000E9421068823A9F384E08D8381E08C83A3
:101950001E821F82188619861A861B861C861D8683
:10196000DF91CF910895009769F0FC01019000206C
:10197000E9F73197AF01481B590BBC0188EF95E09F
:101980000C94B41280E090E008958F929F92AF92F1
:10199000BF920F931F93CF93DF93CDB7DEB7A1977D
:1019A0000FB6F894DEBF0FBECDBF19A2423008F4C7
:1019B0004AE08E010F5D1F4F842E912CA12CB12C7B
:1019C000A50194010E945323E62FB901CA010150D9
:1019D0001109EA3014F4E05D01C0E95CD801EC9330
:1019E000232B242B252B61F7C8010E94B30CA19651
:1019F0000FB6F894DEBF0FBECDBFDF91CF911F9120
:101A00000F91BF90AF909F908F900895CF92DF92EB
:101A1000EF92FF92CF93DF9397FF19C06B017C0188
:101A20008DE20E94270CEC0166277727CB016C1909
:101A30007D098E099F094AE00E94C50C8C0F9D1FED
:101A4000DF91CF91FF90EF90DF90CF9008954AE023
:101A5000DF91CF91FF90EF90DF90CF900C94C50C69
:101A6000CF93DF93BC01990F880B990B0E94060D51
:101A7000EC0185E891E00E94B30C8C0F9D1FDF9173
:101A8000CF9108950F931F93CF93DF938C01C0E004
:101A9000D0E0F801EC0FFD1F6491662371F0E09136
:101AA000F805F091F9050190F081E02D88EF95E0BF
:101AB0000995892B11F02196ECCFCE01DF91CF91C2
:101AC0001F910F9108954F925F926F927F928F9224
:101AD0009F92AF92BF92CF92DF92EF92FF926B01F3
:101AE0007C01B42E9B01AC010E944E23882319F087
:101AF00082EA92E027C026013701E89477F82FEFB9
:101B00003FEF4FE75FE7C301B2010E944E2381110F
:101B10000DC02FEF3FEF4FE75FE7C301B2010E9417
:101B2000A62018161CF486EA92E00CC02FEF3FEFB7
:101B30004FE75FE4C701B6010E944923181684F4F9
:101B40008AEA92E0FF90EF90DF90CF90BF90AF9045
:101B50009F908F907F906F905F904F900C94B30CFC
:101B60002FEF3FEF4FE75FECC701B6010E94A620C1
:101B700087FDE6CF20E030E0A901C701B6010E9451
:101B8000A62087FF09C08DE20E94270C4C01F7FABE
:101B9000F094F7F8F09402C0812C912CA12C60E015
:101BA00070E080E09FE3AB1441F020E030E040E2E1
:101BB00051E40E94A122A394F6CF9B01AC01C7017E
:101BC000B6010E9435222B013C010E941A236B01B1
:101BD0007C010E94AB209B01AC01C301B2010E94B9
:101BE00034222B013C014AE0C701B6010E94C50C1A
:101BF0007C01E80CF91CBB2029F08EE20E94270C26
:101C0000E80EF91EDB2CDD2021F120E030E040E27F
:101C100051E4C301B2010E940C212B013C010E943E
:101C20001A234B01A12CB12C4AE0C501B4010E943A
:101C3000C50CE80EF91EC501B4010E94AB209B0142
:101C4000AC01C301B2010E9434222B013C01DA94A1
:101C5000DACFC701FF90EF90DF90CF90BF90AF90A9
:101C60009F908F907F906F905F904F900895CF934B
:101C7000DF930E94B30CEC0185E891E00E94B30C65
:101C80008C0F9D1FDF91CF910895CF93DF9342E09A
:101C90000E94630DEC0185E891E00E94B30C8C0F6B
:101CA0009D1FDF91CF910895AF92BF92CF92DF92A7
:101CB000EF92FF920F931F93CF93DF93CDB7DEB7D1
:101CC0002B970FB6F894DEBF0FBECDBF7C01CE01BF
:101CD00001966C01FC0190E28BE08C0D91938E13C8
:101CE000FDCFDA0120E037E09D91992339F19E3252
:101CF00019F0EFE0F1E00AC03A3009F4AAC028E098
:101D00003AE0F2CF3196891709F4A3C0849181118A
:101D1000F9CF321708F49DC08FED890F8E3508F08A
:101D200098C081E0820FF601E20FF11D2FE9290F23
:101D30002A3108F490529083282FD6CF898180329F
:101D400009F487C08B01FB01838D948DF701948F7B
:101D5000838FFB01168217821086118612861386E6
:101D600014861586A12CF80182859385A485B585F6
:101D7000438954896589768984179507A607B7072B
:101D800008F067C025E0B695A795979587952A95A1
:101D9000D1F7F82FFF70BF2EF8018581823008F44B
:101DA00058C0C8010E94B80A97FD53C0F801828547
:101DB0009385A485B5854F96A11DB11D8287938714
:101DC000A487B587F0E2BF9EC0011124BC01685012
:101DD0007C4F61157105E9F1FB0120812223B9F1E6
:101DE000253EE1F04BE050E0C6010E947725892BAB
:101DF00009F0B9CF6B2DC7012B960FB6F894DEBF53
:101E00000FBECDBFDF91CF911F910F91FF90EF904B
:101E1000DF90CF90BF90AF900C945D0CA11014C0D8
:101E2000F701B28A40911401509115016091160199
:101E30007091170146875787608B718BFC01E850C2
:101E4000FC4F8081882329F0AA24A3948CCFAA2058
:101E500039F380E02B960FB6F894DEBF0FBECDBFEE
:101E6000DF91CF911F910F91FF90EF90DF90CF9076
:101E7000BF90AF9008958F929F92AF92BF92CF92F2
:101E8000DF92EF92FF92CF93DF93C82F87E996E01E
:101E90009093F6038093F503CC2369F1C53010F0DD
:101EA00080E00DC140E060E070E0CB010E94B4042E
:101EB0008823B1F320E1C29FC001112488519C4FB7
:101EC000FC01E254FE4F20812F7751F73C96408170
:101ED000518162817381443651056105710500F3BA
:101EE0003497C080D180E280F380C114D104E10432
:101EF000F10421F4D5CFC12CD12C760140E0C701EB
:101F0000B6010E94B404882359F280910304909191
:101F100004048115924021F6A0910804AA2309F433
:101F2000BFCF60910604709107046115710509F433
:101F3000B7CF20910504222309F4B2CFA093B506B0
:101F40002093A70680E030E0E1E0F0E0C82FAF0189
:101F5000082E02C0440F551F0A94E2F724173507D4
:101F600041F0982F8F5F983089F789E08093B00611
:101F700097CF8093B00620910E0430910F04211565
:101F8000310519F040E050E008C020911C04309168
:101F90001D0440911E0450911F042093A806309305
:101FA000A9064093AA065093AB0646015701860E38
:101FB000971EA11CB11C8092B6069092B706A09203
:101FC000B806B092B906E0910904F0910A04F093C2
:101FD000BC06E093BB06B0E00E94E321860E971E8C
:101FE000A81EB91E8092BD069092BE06A092BF06A2
:101FF000B092C00685E0EE0FFF1F8A95E1F7E15031
:10200000FE4FEF2FFF27E6958E0E9F1EA11CB11CE1
:102010008092B1069092B206A092B306B092B40636
:1020200020910B0430910C042115310521F0A901F8
:1020300060E070E008C0409118045091190460916C
:102040001A0470911B04D701C60188199909AA09BD
:10205000BB09840F951FA61FB71F04C0B695A7958F
:1020600097958795CA95D2F78093AC069093AD0665
:10207000A093AE06B093AF06853F2FE09207A1056F
:10208000B10510F48CE018C0853F9F4FA105B10544
:1020900010F480E111C08091240490912504A09156
:1020A0002604B09127048093BD069093BE06A093AA
:1020B000BF06B093C00680E28093BA0681E0DF914C
:1020C000CF91FF90EF90DF90CF90BF90AF909F9017
:1020D0008F900895CF93DF93282F30E0F901E550DA
:1020E000FF4F8491F901E951FF4FD491F901ED526D
:1020F000FF4FC491CC2391F081110E94320CEC2F40
:10210000F0E0EE0FFF1FE753FF4FA591B491EC9164
:10211000ED2381E090E021F480E002C080E090E0D7
:10212000DF91CF9108951F93CF93DF93282F30E055
:10213000F901E550FF4F8491F901E951FF4FD49126
:10214000F901ED52FF4FC491CC23C9F0162F811134
:102150000E94320CEC2FF0E0EE0FFF1FE154FF4F16
:10216000A591B4918FB7F894111105C09C91ED2FF2
:10217000E095E92302C0EC91ED2BEC938FBFDF914A
:10218000CF911F910895CF93DF9390E0FC01E95127
:10219000FF4F2491FC01ED52FF4F8491882361F1A0
:1021A00090E0880F991FFC01EB54FF4FC591D4912B
:1021B000FC01E154FF4FA591B491611109C09FB793
:1021C000F8948881209582238883EC912E230BC07C
:1021D000623061F49FB7F8943881822F8095832311
:1021E0008883EC912E2B2C939FBF06C08FB7F89459
:1021F000E8812E2B28838FBFDF91CF9108951F9305
:10220000CF93DF93182FEB0161E00E94C31020975A
:1022100011F460E004C0CF3FD10539F461E0812FB3
:10222000DF91CF911F910C949310E12FF0E0E550D6
:10223000FF4FE491E330F9F048F4E130B9F0E230D7
:10224000A1F584B5806284BDC8BD34C0E730E9F033
:10225000E83019F1E43049F5809180008062809384
:102260008000D0938B00C0938A0024C084B580681E
:1022700084BDC7BD1FC080918000806880938000AE
:10228000D0938900C093880015C08091B000806809
:102290008093B000C093B3000DC08091B000806205
:1022A0008093B000C093B40005C0C038D1050CF0D5
:1022B000B5CFAFCFDF91CF911F9108953FB7F8947D
:1022C0008091150790911607A0911707B0911807F4
:1022D00026B5A89B05C02F3F19F00196A11DB11D81
:1022E0003FBFBA2FA92F982F8827820F911DA11DBC
:1022F000B11DBC01CD0142E0660F771F881F991FF9
:102300004A95D1F708958F929F92AF92BF92CF9244
:10231000DF92EF92FF926B017C010E945E114B01F4
:102320005C01C114D104E104F104F1F00E945E11DA
:10233000DC01CB0188199909AA09BB09883E9340A1
:10234000A105B10570F321E0C21AD108E108F10836
:1023500088EE880E83E0981EA11CB11CC114D10424
:10236000E104F10419F7DDCFFF90EF90DF90CF90FB
:10237000BF90AF909F908F9008952FB7F894609181
:1023800011077091120780911307909114072FBFC6
:1023900008950F931F93CF93DF93EC010E94BD111B
:1023A000688779878A879B87CE010E94C20B97FF37
:1023B00017C00E94BD11088519852A853B85DC015F
:1023C000CB01801B910BA20BB30B0C811D812E81C5
:1023D0003F8180179107A207B30730F38FEF9FEF7C
:1023E000DF91CF911F910F9108951F920F920FB619
:1023F0000F9211242F933F938F939F93AF93BF938B
:102400008091110790911207A0911307B0911407C2
:102410003091100723E0230F2D3720F40196A11DE2
:10242000B11D05C026E8230F0296A11DB11D209302
:1024300010078093110790931207A0931307B0938E
:1024400014078091150790911607A0911707B09176
:1024500018070196A11DB11D8093150790931607CB
:10246000A0931707B0931807BF91AF919F918F91D9
:102470003F912F910F900FBE0F901F9018951F92B4
:102480000F920FB60F9211242F933F934F935F93A8
:102490006F937F938F939F93AF93BF93EF93FF932C
:1024A000E0911201F09113010995FF91EF91BF9115
:1024B000AF919F918F917F916F915F914F913F91DC
:1024C0002F910F900FBE0F901F9018951F920F9293
:1024D0000FB60F9211242F933F934F935F936F93F7
:1024E0007F938F939F93AF93BF93EF93FF93E0916D
:1024F0001001F09111010995FF91EF91BF91AF91FA
:102500009F918F917F916F915F914F913F912F910B
:102510000F900FBE0F901F9018950F931F93CF939E
:10252000DF93EC0188819981009729F02A813B8112
:102530002617370788F48B016F5F7F4F0E94A8240E
:10254000009761F0998388831B830A832C813D81E6
:10255000232B11F4FC01108281E001C080E0DF91A7
:10256000CF911F910F910895CF92DF92EF92FF923A
:102570000F931F93CF93DF936C017A018B01C0E01F
:10258000D0E0CE15DF0589F0D8016D918D01D6011F
:10259000ED91FC910190F081E02DC6010995892B08
:1025A00011F47E0102C02196ECCFC701DF91CF91DB
:1025B0001F910F91FF90EF90DF90CF900895AF9211
:1025C000BF92CF92DF92EF92FF920F931F93CF9320
:1025D000DF9300D0CDB7DEB78C015B01C42EFC01C8
:1025E00011821082138212821582148260E070E0E0
:1025F0000E948D12F8012081318181110EC02115B8
:10260000310519F0C9010E941024F80111821082CD
:10261000158214821382128208C0F8011582148276
:1026200067E871E0C9010E948D25C5010E94C911AA
:102630000C2C000CDD0897FD24C08C159D0509F1BC
:1026400089831A82F801E480F580FFEFEF1AFF0A10
:10265000B701C8010E948D12882379F0F80120810A
:10266000318184819581BE016F5F7F4F820F931FFF
:102670000E948D25F801F582E482C5010E94C911EE
:10268000DACFC8010F900F90DF91CF911F910F917A
:10269000FF90EF90DF90CF90BF90AF900895CF93D1
:1026A000DF93CDB7DEB7C55AD1090FB6F894DEBFB8
:1026B0000FBECDBF789484B5826084BD84B581603F
:1026C00084BD85B5826085BD85B5816085BD8091FD
:1026D0006E00816080936E00109281008091810075
:1026E000826080938100809181008160809381006D
:1026F000809180008160809380008091B10084602F
:102700008093B1008091B00081608093B00080918F
:102710007A00846080937A0080917A00826080934E
:102720007A0080917A00816080937A0080917A00AB
:10273000806880937A001092C10080E090E00E944F
:10274000CD2190910001891731F16CE071E081E0B9
:1027500090E00E94F60B68E071E089E190E00E9451
:10276000F60B6091000180E090E00E94D5218FE699
:1027700091E00E94370E80E090E00E94CD21682F0A
:1027800070E080E090E04AE00E94C50C85E891E0AE
:102790000E94B30C04C088E891E00E94370EE091DB
:1027A0000806F091090682E08083E0910406F0912A
:1027B00005061082E0910606F09107068FEC8083F3
:1027C00010921006E0910C06F0910D0686E08083D1
:1027D000E0910A06F0910B06808180618083E09190
:1027E0000A06F0910B06808188608083E0910A06DA
:1027F000F0910B06808180688083E0910A06F09159
:102800000B0680818F7D808387E891E00E94370EE0
:102810008FE891E00E94370E60E080E10E94C310D3
:1028200061E086E00E94C31089E991E00E94370EC2
:10283000E7961FAE1EAEE79788EE93E0A0E0B0E00B
:10284000EB968CAF9DAFAEAFBFAFEB9783E291E05D
:10285000E5969FAF8EAFE597C457DF4F1982188278
:10286000CC58D040C158DF4F1882CF57D04082EAB1
:1028700091E00E94370E1092A2061092A0061092CC
:102880009D0610929C0684E080939B060E94BD11D9
:102890008B0161E080919B060E94C31061E08091F2
:1028A0009B060E949310FFB6F8948091B8028111A4
:1028B00027C0EDEDF0E08491E1EFF0E09491E82F96
:1028C000F0E0EE0FFF1FEB54FF4FA591B491EC9198
:1028D000E92321F461E08AE00E94931061E08AE03C
:1028E0000E94C3108CB580618CBD8CB580648CBD9A
:1028F00061E08DE00E94C31061E08BE00E94C31094
:102900008091B8028F5F8093B802FFBE82E580930A
:1029100095061092960680919506909196060E94D3
:10292000FF027AE0F72E8FEF0E94C002FA94F110B6
:10293000FACF87E996E00E94020320E030E0A90187
:1029400060E087E996E00E941803F82E8093A106C4
:1029500081E0F81649F00E94BD11601B710B613DCA
:10296000774058F381E056C02AEA31E040E050E079
:1029700068E087E996E00E94180382FF03C0F092A6
:10298000A20610C064E0F62E0E94C7028093A10642
:10299000FA94F110F9CF8A3A11F082E03BC082E05C
:1029A0008093A2068091A206823021F0C12CD12C06
:1029B000760105C0C12CD12CE12C50E4F52E20E08D
:1029C00030E0A90167E387E996E00E941803A701B8
:1029D000960169E287E996E00E9418038093A106B8
:1029E000882349F00E94BD11601B710B613D774047
:1029F00030F388E00FC08091A206823001F520E01C
:102A000030E0A9016AE387E996E00E941803882371
:102A100041F086E080939C0687E996E00E94B5022B
:102A2000A8C00E94C702807C803C19F483E0809398
:102A3000A2060E94C7020E94C7020E94C70287E93D
:102A400096E00E94B50280E5809395061092960666
:102A500081E00E943B0F882329F08091C6068823DD
:102A600041F087C080E00E943B0F882309F481C0B9
:102A7000F4CF8091BA06803109F582E08093C606D2
:102A80001092D8061092D9061092DA061092DB0640
:102A90008091BB069091BC06A0E0B0E045E0880FB5
:102AA000991FAA1FBB1F4A95D1F78093D406909314
:102AB000D506A093D606B093D7061EC0803209F083
:102AC00058C083E08093C6064091BD065091BE0673
:102AD0006091BF067091C0064093D8065093D90606
:102AE0006093DA067093DB0624ED36E083EA96E025
:102AF0000E9421068823E9F183EA96E09093DD069F
:102B00008093DC0681E08093C5061092C706109280
:102B1000C8061092C9061092CA061092CB061092EF
:102B2000CC061092CD061092CE061092CF061092CF
:102B3000D0061092D1061092D2061092D30661EC04
:102B400076E0CE0101960E94320ABE016F5F7F4F90
:102B5000CE01CB960E94320A19A218A28BE591E011
:102B60009F8F8E8F1BA221968FAD2197811104C05C
:102B700010C08AEB91E084C0825041EE51E0823077
:102B8000F0F461EC76E0CE014E960E94540E811175
:102B900023C06C961FAE1EAE6C9788EE93E0A0E04B
:102BA000B0E0A0968CAF9DAFAEAFBFAFA097E3965D
:102BB0001FAE1EAEE397A5961FAEA5971EC0BE0121
:102BC000655C7F4FCE014E960E94540E882309F318
:102BD000CE01CB960E946108BE01625E7F4FCE019E
:102BE00001960E94320A41EE51E0BE016F5F7F4FB5
:102BF000CE01885A9F4F0E94830A6C968EAD9FAD7E
:102C00006C97E7969FAF8EAFE797A0968CAD9DAD82
:102C1000AEADBFADA097EB968CAF9DAFAEAFBFAFE3
:102C2000EB97A4968CAD9DADAEADBFADA497EF96DE
:102C30008CAF9DAFAEAFBFAFEF978DE0E8E5F0E0B2
:102C4000EC0FFD1F3C96A3E7B0E0AC0FBD1F1C9638
:102C500001900D928A95E1F7E396EEADFFADE39713
:102C6000C457DF4FF983E883CC58D040309731F018
:102C70008581882319F00AEB12E040C083ED91E0D2
:102C80000E94370E80E06CC04AE3BE016D587F4F52
:102C9000CE014E960E94DF124AE0BE016D587F4F72
:102CA000CE0101960E94DF128E8D9F8D009779F5DF
:102CB00089819A819F8F8E8F8B819C8199A388A314
:102CC0008D819E819BA38AA31A8219821C821B82FA
:102CD0001E821D8289819A810E9410248E8D9F8D73
:102CE000009739F10E94241FD8016D937D938D9335
:102CF0009D938D018E8D9F8D0E941024CE018D5845
:102D00009F4F0E949601892B09F0BECF16C06981A2
:102D10007A816115710511F40C94AC1E48A159A17A
:102D20002D813E814217530710F00C94B01E0C9475
:102D3000AC1E60E070E0CB01D7CFC457DF4F888175
:102D40009981CC58D040009751F00E946108C45737
:102D5000DF4F88819981CC58D0400E94102481E0B7
:102D60008093B902882309F474C06091BA0270910B
:102D7000BB028091BC029091BD020E94132370930C
:102D80000301609302012091C2023091C30240917D
:102D9000C4025091C5026091BE027091BF02809141
:102DA000C0029091C1020E940C21609304017093B3
:102DB000050180930601909307016091C60270910E
:102DC000C7028091C8029091C9020E941323072E66
:102DD000000C880B990B0E94AD209B01AC0160E0B8
:102DE00070E080E89FE30E94A12220E034E244E703
:102DF00059E40E940C2160930801709309018093AB
:102E00000A0190930B0168E071E089E190E00E9473
:102E1000F60B34E0E32E31E0F32E02E310E0F7018D
:102E200061917F01C8010E94D5210F5F1F4F0633BA
:102E30001105A9F7609102018BE490E00E94D52171
:102E4000609103018CE490E00E94D5218CEE91E02A
:102E500041C02CE0E22E21E0F22E01E010E0C8019A
:102E60000E94CD21D7018D937D010F5F1F4F05304B
:102E70001105A9F798E0E92E91E0F92E09E110E09B
:102E8000C8010E94CD21F70181937F010F5F1F4F81
:102E90000D311105A9F784E0E82E81E0F82E02E358
:102EA00010E0C8010E94CD21D7018D937D010F5FF5
:102EB0001F4F06331105A9F78BE490E00E94CD2146
:102EC000809302018CE490E00E94CD218093030165
:102ED00089EF91E00E94370E88E092E00E94B30CE7
:102EE00060910C0170910D0180910E0190910F0184
:102EF0000E94450E8EE092E00E94B30C60910801A2
:102F00007091090180910A0190910B010E94450E78
:102F100084E192E00E94B30C60910401709105017C
:102F200080910601909107010E94450E83E292E094
:102F30000E94B30C80910201909103010E94300D18
:102F400060E082E00E94C31060E083E10E94C31051
:102F500061E080E10E94C310EBEAF3E0119211926C
:102F600011921192B3E0E33DFB07C1F78FE092E0CD
:102F70009093110180931001809169008C7F816092
:102F800080936900E89A60E083E00E94C31060E0EB
:102F900082E10E94C31061E081E10E94C310EBED69
:102FA000F2E0119211921192119223E0E33AF207AA
:102FB000C1F787EE91E09093130180931201809105
:102FC0006900837F846080936900E99A61E08AE008
:102FD0000E94C31061E089E00E94C31061E088E0B4
:102FE0000E94C31061E087E00E94C31060E070E0BF
:102FF0008AE00E94FF106FEF70E089E00E94FF10EE
:1030000068E873E180E090E00E9483110E941D0C4B
:1030100080E392E00E94370E80E10E946A10892BC3
:1030200039F483E10E946A10892B09F44CC03CC03A
:103030000E94BD116093E1037093E2038093E30368
:103040009093E40380E10E946A10892B51F30E945F
:10305000BD110091E1031091E2032091E30330914F
:10306000E403DC01CB01801B910BA20BB30B883E68
:103070009340A105B10530F36091E003F1E06F27C3
:103080006093E00386E00E94931085E492E00E9442
:10309000B30C8091E00390E00E94300D80E10E942B
:1030A0006A10892BD9F7CECF0E94BD116093E1033E
:1030B0007093E2038093E3039093E40383E10E941F
:1030C0006A10892BA1F4C0900801D0900901E0900A
:1030D0000A01F0900B018091B2029091B302181690
:1030E00019060CF4E2C0C12CD12C7601F6C00E9466
:1030F000BD110091E1031091E2032091E3033091AF
:10310000E403DC01CB01801B910BA20BB30B883EC7
:103110009340A105B10590F28EE592E00E94370E32
:1031200061E080E10E94931083E10E946A10892B84
:10313000D9F7E8988BE59CE09093110180931001FA
:103140001092AE021092AF021092B0021092B10231
:103150000E94BD116B017C01A1EDB1E0B0931101A2
:10316000A0931001809169008C7F81608093690039
:10317000E89A83E10E946A10892B59F50E94BD11DB
:10318000DC01CB018C199D09AE09BF09843A91403D
:10319000A105B10550F08091D202F1E08F27809314
:1031A000D2020E94BD116B017C016091D20280E1CC
:1031B0000E9493106091AE027091AF028091B002B4
:1031C0009091B1020E94060D85E891E00E94B30C37
:1031D000D0CFE8988BE59CE090931101809310018B
:1031E0006091AE027091AF028091B0029091B102F5
:1031F0000E94AD209B01AC0160E070E088E492E4A5
:103200000E94A12220E034E244E759E40E940C210C
:103210006093CE027093CF028093D0029093D1023C
:10322000AFE0B2E0B0931101A0931001809169006A
:103230008C7F816080936900E89A8091CE029091A2
:10324000CF02A091D002B091D10280930C01909353
:103250000D01A0930E01B0930F016CE071E081E0CD
:1032600090E00E94F60B60910C0170910D0180912D
:103270000E0190910F010E94450E83E792E00E949B
:10328000370E60E080E10E9493100E94BD116093B0
:10329000E1037093E2038093E3039093E40383E1FB
:1032A0000E946A10892BD9F709CF6091B202709100
:1032B000B302072E000C880B990B0E94AD209B01D6
:1032C000AC01C701B6010E94A12220E030E040E736
:1032D00052E40E940C216B017C012091D7023091B5
:1032E000D8024091D9025091DA02C701B6010E947A
:1032F000A62081111AC00E94BD110091D302109125
:10330000D4022091D5023091D602DC01CB01801B82
:10331000910BA20BB30B843F9140A105B105B8F00E
:103320001092B3021092B2022EC00E94BD1160939F
:10333000D3027093D4028093D5029093D602C092A8
:10334000D702D092D802E092D902F092DA0220E0BD
:1033500030E0A901C701B6010E94492318169CF468
:1033600020E030E048EC52E4C701B6010E94A620FC
:1033700087FF09C020E030E0A901C701B6010E9423
:10338000A62018161CF0C12CD12C76018091DF02EA
:103390009091E002A091E102B091E2028093DB0201
:1033A0009093DC02A093DD02B093DE028091E302F1
:1033B0009091E402A091E502B091E6028093DF02D1
:1033C0009093E002A093E102B093E2028091E702C1
:1033D0009091E802A091E902B091EA028093E302A1
:1033E0009093E402A093E502B093E6028091EB0291
:1033F0009091EC02A091ED02B091EE028093E70271
:103400009093E802A093E902B093EA02C092EB0223
:10341000D092EC02E092ED02F092EE020BED12E09F
:1034200060E070E0CB01D8012D913D914D915D910F
:103430008D010E943522B2E00F3E1B07A1F720E06C
:1034400030E040EA50E40E94A122CE56DF4F68836C
:1034500079838A839B83C259D0406093EB02709337
:10346000EC028093ED029093EE0220E030E040E821
:103470005FE30E94A62087FF08C0CE56DF4F188268
:1034800019821A821B82C259D0408091E0038111B7
:10349000EBC0C0900C01D0900D01E0900E01F090B7
:1034A0000F018091B4029091B502A091B602B09143
:1034B000B702181619061A061B06CCF46091B4025E
:1034C0007091B5028091B6029091B7020E94AD2032
:1034D0009B01AC01C701B6010E94A12226E636E697
:1034E00046E650E40E940C216B017C0103C0C12C14
:1034F000D12C76012091A7033091A8034091A90314
:103500005091AA03C701B6010E94A62081111EC0D6
:103510000E94BD110091A3031091A4032091A50363
:103520003091A603DC01CB01801B910BA20BB30BE6
:10353000843F9140A105B105D8F01092B4021092D9
:10354000B5021092B6021092B7021BC00E94BD11C4
:103550006093A3037093A4038093A5039093A603A1
:10356000C092A703D092A803E092A903F092AA0305
:1035700020E030E0A901C701B6010E94A62018167C
:103580001CF0C12CD12C76018091AF039091B00337
:10359000A091B103B091B2038093AB039093AC03BD
:1035A000A093AD03B093AE038091B3039091B403A5
:1035B000A091B503B091B6038093AF039093B0038D
:1035C000A093B103B093B2038091B7039091B80375
:1035D000A091B903B091BA038093B3039093B4035D
:1035E000A093B503B093B6038091BB039091BC0345
:1035F000A091BD03B091BE038093B7039093B8032D
:10360000A093B903B093BA03C092BB03D092BC039A
:10361000E092BD03F092BE030BEA13E060E070E0BD
:10362000CB01D8012D913D914D915D918D010E946D
:103630003522B3E00F3B1B07A1F720E030E040EA62
:1036400050E40E94A122C257DF4F688379838A83A6
:103650009B83CE58D0406093BB037093BC03809390
:10366000BD039093BE030CC080E090E0A0EAB0E4FC
:10367000C257DF4F88839983AA83BB83CE58D0403B
:103680006091020170910301072E000C880B990BC9
:103690000E94AD20C257DF4F288139814A815B816A
:1036A000CE58D0400E940C21209104013091050198
:1036B00040910601509107010E940C2120E030E06A
:1036C00046E154E40E94A122C256DF4F6883798309
:1036D0008A839B83CE59D0408090E4069090E50683
:1036E000A090E606B090E7062091E0063091E10652
:1036F0004091E2065091E306C501B4010E943522D3
:103700009B01AC01C501B4010E94A1222B013C0127
:103710006093F4067093F5068093F6069093F7068F
:10372000C090F006D090F106E090F206F090F3061B
:1037300020E030E040EA51E4CE56DF4F68817981E5
:103740008A819B81C259D0400E94A12220E030ECA6
:103750004FE754E40E940C2120E030E0A9010E94D0
:1037600035220E941323072E000C880B990B0E9410
:10377000AD20A70196010E9434229B01AC01C30138
:10378000B2010E940C219B01AC01C701B6010E944D
:103790003522CA56DF4F688379838A839B83C65953
:1037A000D0406093EC067093ED068093EE06909304
:1037B000EF06A301920160E070E080E89FE30E94C1
:1037C0003422A50194010E940C214B015C01CA56D0
:1037D000DF4F288139814A815B81C659D040C701BA
:1037E000B6010E9434229F772091E8063091E906C5
:1037F0004091EA065091EB060E940C219B01AC011E
:10380000C501B4010E9435226093E4067093E50679
:103810008093E6069093E706CA56DF4F8881998128
:10382000AA81BB81C659D0408093F0069093F106DF
:10383000A093F206B093F3068090FC069090FD06EC
:10384000A090FE06B090FF062091F8063091F90690
:103850004091FA065091FB06C501B4010E94352241
:103860009B01AC01C501B4010E94A1222B013C01C6
:1038700060930C0770930D0780930E0790930F07CA
:10388000C0900807D0900907E0900A07F0900B0756
:1038900020E030E040EA51E4C256DF4F6881798190
:1038A0008A819B81CE59D0400E94A12220E030EC39
:1038B0004FE754E40E940C2120E030E0A9010E946F
:1038C00035220E941323072E000C880B990B0E94AF
:1038D000AD20A70196010E9434229B01AC01C301D7
:1038E000B2010E940C219B01AC01C701B6010E94EC
:1038F0003522C656DF4F688379838A839B83CA59F2
:10390000D040609304077093050780930607909357
:103910000707A301920160E070E080E89FE30E9446
:103920003422A50194010E940C214B015C01C65672
:10393000DF4F288139814A815B81CA59D040C70154
:10394000B6010E9434229F77209100073091010731
:1039500040910207509103070E940C219B01AC018A
:10396000C501B4010E9435226093FC067093FD06E8
:103970008093FE069093FF06C656DF4F888199819B
:10398000AA81BB81CA59D040809308079093090748
:10399000A0930A07B0930B0720E030E040E050E42A
:1039A000C257DF4F688179818A819B81CE58D04090
:1039B0000E94A6202091010187FF18C08091D403A6
:1039C0009091D503843191053CF01092D50310926B
:1039D000D4031092D30325C001969093D50380930E
:1039E000D4038091D3038823E1F007C01092D5035C
:1039F0001092D40391E09093D30321112EC086E856
:103A000092E00E94370E0E941D0C61E088E00E9447
:103A1000931060E087E00E949310A1E0A093010161
:103A200013C0222309F439C184E992E00E94370EC1
:103A30000E941D0C60E088E00E94931061E087E026
:103A40000E9493101092010168EB7BE080E090E00F
:103A50000E9483110E94150C20C1C656DF4F688159
:103A600079818A819B81CA59D0400E9413232B01FE
:103A70003C01CA56DF4F688179818A819B81C65992
:103A8000D0400E941323CE55DF4F688379838A8309
:103A90009B83C25AD0408201CE55DF4FE881F98125
:103AA000C25AD0400E1B1F0B1093DF030093DE039E
:103AB0002090DA033090DB03B101032C000C880B5B
:103AC000990B0E94AD204B015C01B80117FF04C0A7
:103AD00066277727601B710B072E000C880B990B4C
:103AE0000E94AD202DEC3CEC4CE45FE30E940C21E5
:103AF0000E941323072E000C880B990B0E94AD2007
:103B00006B017C012AE037ED43EA5DE3C501B401B6
:103B10000E940C219B01AC01C701B6010E94352215
:103B20000E941323072E000C880B990B0E94AD20D6
:103B30006B017C016091D8037091D90364197509F8
:103B400077FF03C0719561957109072E000C880BF2
:103B5000990B0E94AD2020E030E040EC50E40E9440
:103B60000C219B01AC01C701B6010E9435220E94C5
:103B700013236B017C012DEC3CEC4CEC5DE3C501A7
:103B8000B4010E940C214B015C0120E030E040E8D0
:103B90005FE30E94A62087FD05C0D092DD03C0929E
:103BA000DC0310C0B601DD0C880B990B0E94AD2020
:103BB000A50194010E940C210E9413237093DD0340
:103BC0006093DC03FFEF2F1A3F0A3092DB03209251
:103BD000DA038091DC039091DD038F3F910539F08A
:103BE00034F08FEF90E09093DD038093DC038091BD
:103BF000DC039091DD0397FF04C01092DD03109267
:103C0000DC03C8010E964D9740F41092DD0310922C
:103C1000DC031092DB031092DA03101611068CF409
:103C20000E941D0C83E290E00197F1F70091DC0304
:103C30001091DD0360E070E08AE00E94FF10B8019F
:103C400011C0012B91F00E941D0C83E290E00197BE
:103C5000F1F76091DC037091DD038AE00E94FF10B0
:103C600060E070E089E00E94FF105092D90340921A
:103C7000D803CE55DF4F88819981C25AD0409093A6
:103C8000D7038093D60360E070E0CB010E948311DC
:103C90000091DC031091DD0302C000E010E042E07F
:103CA000C257DF4F688179818A819B81CE58D0408D
:103CB0000E94630D82EB90E00E94420D42E0CE56DE
:103CC000DF4F688179818A819B81C259D0400E94EF
:103CD000630D8FEA90E00E94420D42E0C256DF4F32
:103CE000688179818A819B81CE59D0400E94630D81
:103CF0008CEA90E00E94420D42E0C656DF4F688198
:103D000079818A819B81CA59D0400E94630D89EADA
:103D100090E00E94420D42E0CA56DF4F68817981EF
:103D20008A819B81C659D0400E94630D86EA90E04B
:103D30000E94420DB801110F880B990B0E94060DCD
:103D400083EA90E00E94420D8091010190E00E9480
:103D5000300D0E948C0160C90E9410240C945816EA
:103D60000E948D258D819E819BA38AA30C94681649
:103D7000E8EFF5E01382128288EE93E0A0E0B0E075
:103D800084839583A683B78387E391E091838083BF
:103D900085EC90E09587848784EC90E09787868710
:103DA00080EC90E0918B808B81EC90E0938B828B08
:103DB00082EC90E0958B848B86EC90E0978B868BE1
:103DC000118E128E138E148EE5E9F6E080E5808365
:103DD0001182E7E9F6E0158216821186138682E0E9
:103DE00090E0A0E0B0E084879587A687B78713A20C
:103DF00015A614A68BE591E093A782A717A6E8EF76
:103E0000F6E080E090E0A8ECB2E480839183A283A6
:103E1000B38384839583A683B7834DEC5CEC6CEC11
:103E20007DE34087518762877387E0EEF6E0808309
:103E30009183A283B38384839583A683B7834087CA
:103E40005187628773870895662777270C94281F08
:103E5000A0E0B0E0EEE2FFE10C94F221EC017B0186
:103E60006115710519F0DB018D939C938E010F5F35
:103E70001F4F7880872D90E00E948520892B11F0BC
:103E8000E801F4CFBDE27B1205C00F5F1F4F7980C0
:103E9000C1E008C0EBE27E1204C08E010E5F1F4F2E
:103EA0007980C0E06801F1E0CF1AD10843E050E02A
:103EB00060E770E0C6010E948E20892BF1F4680152
:103EC00022E0C20ED11C45E050E06BE670E0C60176
:103ED0000E948E20892B21F4680187E0C80ED11C36
:103EE000E114F10419F0D701CD92DC92C111FFC0A9
:103EF00060E070E080E89FE703C143E050E068E6DF
:103F000070E0C6010E948E20892B51F4E114F10467
:103F100009F4F2C00E5F1F4FF70111830083ECC05C
:103F2000680160E070E0CB0100E010E0F601D0ED48
:103F3000D70DDA3058F52C2F2260622E2C2F2870E6
:103F4000C2FF05C0211128C00F5F1F4F25C02223CB
:103F500011F001501109A5E0B0E09B01AC010E94F5
:103F6000E3214B015C01880C991CAA1CBB1CC501F8
:103F7000B4016D0F711D811D911D6839A9E97A0782
:103F80008A07A9E19A0740F0C66005C0DE3F51F4F8
:103F9000C3FD44C0C8606C2EBFEFCB1ADB0A708033
:103FA000C62DC4CF2D2F2F7D2531C1F540814D3237
:103FB00011F4C06106C04B3221F0319621E030E0AF
:103FC00006C03296D60111964C9122E030E0A0ED69
:103FD000A40FAA3018F0E21BF30B20C040E050E021
:103FE0004038BCE05B075CF49A01220F331F220FBC
:103FF000331F420F531F440F551F4A0F511D319657
:10400000DF0111972C91A0EDA20FAA3048F3C4FF55
:1040100003C0519541955109040F151FC1FF07C0F9
:10402000E114F10421F03197D701ED93FC930E9444
:10403000AB20C370C33019F06B017C0106C06B016B
:104040007C01F7FAF094F7F8F09420E030E0A90151
:10405000C701B6010E94A620882309F445C017FFB6
:1040600006C0119501951109C7E8D0E002C0CFE95B
:10407000D0E05E01B8E1AB1AB1084601BE2DAF2D0C
:1040800090E2E92EF12C0E151F0584F0FE0125911A
:10409000359145915491B4018B2F9A2F0E940C2198
:1040A0004B01B82FA92F0E191F09EDCF2497F594B6
:1040B000E794CA15DB0539F76401EB2EFA2E8E2D35
:1040C000880F8F2D881F8F3F49F020E030E0A90135
:1040D000C701B6010E94A620811106C082E290E0CD
:1040E00090931A0780931907C701B60109C060E0D1
:1040F00070E080E89FEF04C060E070E080EC9FE734
:10410000CDB7DEB7EEE00C940E2291110C9479211C
:10411000803219F089508550C8F70895FB01DC0101
:104120004150504088F08D9181341CF08B350CF457
:10413000805E659161341CF06B350CF4605E861B0B
:10414000611171F3990B0895881BFCCF0E94E82040
:1041500008F481E00895E89409C097FB3EF4909537
:104160008095709561957F4F8F4F9F4F9923A9F050
:10417000F92F96E9BB279395F695879577956795DF
:10418000B795F111F8CFFAF4BB0F11F460FF1BC023
:104190006F5F7F4F8F4F9F4F16C0882311F096E9B6
:1041A00011C0772321F09EE8872F762F05C0662364
:1041B00071F096E8862F70E060E02AF09A95660F1D
:1041C000771F881FDAF7880F9695879597F90895D6
:1041D000990F0008550FAA0BE0E8FEEF1616170618
:1041E000E807F907C0F012161306E407F50798F080
:1041F000621B730B840B950B39F40A2661F0232B99
:10420000242B252B21F408950A2609F4A140A69514
:104210008FEF811D811D08950E941F210C94932111
:104220000E94852138F00E948C2120F0952311F006
:104230000C947C210C94822111240C94C7210E949F
:10424000A42170F3959FC1F3950F50E0551F629F15
:10425000F001729FBB27F00DB11D639FAA27F00DDF
:10426000B11DAA1F649F6627B00DA11D661F829F06
:104270002227B00DA11D621F739FB00DA11D621FEB
:10428000839FA00D611D221F749F3327A00D611D08
:10429000231F849F600D211D822F762F6A2F1124EA
:1042A0009F5750409AF0F1F088234AF0EE0FFF1F1D
:1042B000BB1F661F771F881F91505040A9F79E3F74
:1042C000510580F00C947C210C94C7215F3FE4F3EE
:1042D000983ED4F3869577956795B795F795E795CA
:1042E0009F5FC1F7FE2B880F911D9695879597F9D3
:1042F000089599278827089597F99F6780E870E0C7
:1043000060E008959FEF80EC089500240A9416164B
:10431000170618060906089500240A9412161306B3
:10432000140605060895092E0394000C11F4882341
:1043300052F0BB0F40F4BF2B11F460FF04C06F5F5D
:104340007F4F8F4F9F4F089557FD9058440F551F33
:1043500059F05F3F71F04795880F97FB991F61F007
:104360009F3F79F087950895121613061406551F7E
:10437000F2CF4695F1DF08C0161617061806991FEA
:10438000F1CF86957105610508940895E894BB27DF
:1043900066277727CB0197F90895F999FECF92BD4B
:1043A00081BDF89A992780B50895262FF999FECFF7
:1043B0001FBA92BD81BD20BD0FB6F894FA9AF99A42
:1043C0000FBE019608950E942522A59F900DB49FCF
:1043D000900DA49F800D911D112408952F923F925E
:1043E0004F925F926F927F928F929F92AF92BF9205
:1043F000CF92DF92EF92FF920F931F93CF93DF93B1
:10440000CDB7DEB7CA1BDB0B0FB6F894DEBF0FBE0D
:10441000CDBF09942A88398848885F846E847D845A
:104420008C849B84AA84B984C884DF80EE80FD805C
:104430000C811B81AA81B981CE0FD11D0FB6F894D2
:10444000DEBF0FBECDBFED010895A29FB001B39FA7
:10445000C001A39F700D811D1124911DB29F700D8D
:10446000811D1124911D08955058BB27AA270E9431
:104470004C220C9493210E94852138F00E948C21BB
:1044800020F039F49F3F19F426F40C9482210EF4A5
:10449000E095E7FB0C947C21E92F0E94A42158F3BE
:1044A000BA17620773078407950720F079F4A6F519
:1044B0000C94C6210EF4E0950B2EBA2FA02D0B0103
:1044C000B90190010C01CA01A0011124FF27591B59
:1044D00099F0593F50F4503E68F11A16F040A22F5F
:1044E000232F342F4427585FF3CF469537952795D0
:1044F000A795F0405395C9F77EF41F16BA0B620BCF
:10450000730B840BBAF09150A1F0FF0FBB1F661F15
:10451000771F881FC2F70EC0BA0F621F731F841F58
:1045200048F4879577956795B795F7959E3F08F07E
:10453000B0CF9395880F08F09927EE0F9795879540
:1045400008950E94B5220C9493210E948C2158F06A
:104550000E94852140F029F45F3F29F00C947C21D2
:1045600051110C94C7210C9482210E94A42168F35C
:104570009923B1F3552391F3951B550BBB27AA271C
:1045800062177307840738F09F5F5F4F220F331F56
:10459000441FAA1FA9F335D00E2E3AF0E0E832D01E
:1045A00091505040E695001CCAF72BD0FE2F29D021
:1045B000660F771F881FBB1F261737074807AB07F3
:1045C000B0E809F0BB0B802DBF01FF2793585F4F68
:1045D0003AF09E3F510578F00C947C210C94C72151
:1045E0005F3FE4F3983ED4F3869577956795B7954A
:1045F000F7959F5FC9F7880F911D9695879597F955
:104600000895E1E0660F771F881FBB1F62177307CD
:104610008407BA0720F0621B730B840BBA0BEE1FE2
:1046200088F7E09508950E941A236894B1110C94BC
:10463000C72108950E94AC2188F09F5798F0B92FA8
:104640009927B751B0F0E1F0660F771F881F991FC7
:104650001AF0BA95C9F714C0B13091F00E94C62182
:10466000B1E008950C94C621672F782F8827B85F92
:1046700039F0B93FCCF3869577956795B395D9F71F
:104680003EF490958095709561957F4F8F4F9F4F29
:1046900008950E94E82008F48FEF08950E94E82012
:1046A000880B990B0895A1E21A2EAA1BBB1BFD01D2
:1046B0000DC0AA1FBB1FEE1FFF1FA217B307E40701
:1046C000F50720F0A21BB30BE40BF50B661F771F59
:1046D000881F991F1A9469F7609570958095909539
:1046E0009B01AC01BD01CF010895EE0FFF1F0590A6
:1046F000F491E02D0994CF93DF938230910510F46B
:1047000082E090E0E0911D07F0911E0720E030E08C
:10471000C0E0D0E0309711F140815181481759072E
:10472000C0F04817590761F482819381209719F0EE
:104730009B838A832BC090931E0780931D0726C0FE
:104740002115310519F04217530718F49A01BE01DB
:10475000DF01EF010280F381E02DDCCF211531056F
:1047600009F1281B390B2430310590F412968D91F4
:104770009C9113976115710521F0FB01938382834E
:1047800004C090931E0780931D07FD01329644C01C
:10479000FD01E20FF31F81939193225031092D9374
:1047A0003C933AC020911B0730911C07232B41F406
:1047B00020911A0130911B0130931C0720931B0795
:1047C00020911801309119012115310541F42DB7BF
:1047D0003EB740911C0150911D01241B350BE09107
:1047E0001B07F0911C07E217F307A0F42E1B3F0BE9
:1047F0002817390778F0AC014E5F5F4F2417350753
:1048000048F04E0F5F1F50931C0740931B07819386
:10481000919302C0E0E0F0E0CF01DF91CF910895E5
:104820000F931F93CF93DF93009709F48CC0FC0183
:1048300032971382128200911D0710911E070115F5
:10484000110581F420813181820F931F20911B0774
:1048500030911C072817390779F5F0931C07E0936E
:104860001B0771C0D80140E050E0AE17BF0750F4FD
:1048700012962D913C911397AD012115310509F147
:10488000D901F3CF9D01DA013383228360817181E5
:10489000860F971F8217930769F4EC0128813981ED
:1048A000260F371F2E5F3F4F318320838A819B81E4
:1048B00093838283452B29F4F0931E07E0931D0711
:1048C00042C01396FC93EE931297ED0149915991D2
:1048D0009E01240F351FE217F30771F48081918147
:1048E000840F951F029611969C938E9382819381DB
:1048F00013969C938E931297E0E0F0E0D801129605
:104900008D919C911397009719F0F8018C01F6CFC7
:104910008D919C9198012E5F3F4F820F931F2091A4
:104920001B0730911C072817390769F4309729F4C1
:1049300010921E0710921D0702C01382128210935C
:104940001C0700931B07DF91CF911F910F910895D2
:10495000A0E0B0E0EEEAF4E20C94F221EC01009762
:1049600021F4CB010E947B23B8C0FC01E60FF71FA6
:104970009C0122503109E217F30708F4ACC0D901B9
:104980000D911C91119706171707B0F0053011050E
:1049900008F49FC0C80104978617970708F499C0C8
:1049A00002501109061B170B019311936D937C9311
:1049B000CF010E9410248DC05B01A01AB10A4C01E6
:1049C000800E911EA0911D07B0911E0740E050E09F
:1049D000E12CF12C109709F44AC0A815B905D1F5BE
:1049E0006D907C901197630182E0C80ED11CCA14AF
:1049F000DB0480F1A3014A195B096A0182E0C80E59
:104A0000D11C1296BC9012971396AC91B5E0CB16C0
:104A1000D10440F0B282A38351834083D9016D93C6
:104A20007C930AC00E5F1F4FC301800F911FF901D5
:104A300091838083EB2DFA2FE114F10431F0D7013B
:104A40001396FC93EE93129744C0F0931E07E093E5
:104A50001D073FC08D919C9111974817590708F485
:104A6000AC017D0112960D90BC91A02DB3CF809129
:104A70001B0790911C0788159905E1F44617570705
:104A8000C8F48091180190911901009741F48DB7F5
:104A90009EB740911C0150911D01841B950BE81796
:104AA000F907C8F4F0931C07E0931B07F901718321
:104AB00060830FC0CB010E947B237C01009759F0DB
:104AC000A801BE010E948425CE010E941024C701C6
:104AD00004C0CE0102C080E090E0CDB7DEB7EEE0CA
:104AE0000C940E2281E090E0F8940C94A325FB0135
:104AF000DC0104C08D910190801921F44150504097
:104B0000C8F7881B990B0895FB01DC0102C00190D6
:104B10000D9241505040D8F70895FB01DC010190FF
:104B20000D920020E1F70895FB01DC014150504057
:104B300048F001900D920020C9F701C01D9241502C
:0A4B40005040E0F70895F894FFCF0D
:104B4A0009013C000000C04000C09944003C4047B5
:104B5A005B0C5B0CFFFFFFFF00001F0780000000DB
:104B6A00000000B701160ACE016D089601C20BCCEF
:104B7A000B0000000000002301B412BB006A01EC24
:104B8A0000CA00DE0000000000E501B412CE01CD2B
:104B9A0001E501E501E50100000000050AB412CEB5
:104BAA0001CD0100000000E501B412CE01CD0143A0
:104BBA00616C6962726174696F6E4B657920737496
:104BCA006F726564000D0A004F6B204B65790053C4
:104BDA007461727420415652005374617274205386
:104BEA004400496E697469616C697A696E67205319
:104BFA004420636172642E2E2E00534420696E692C
:104C0A007469616C697A6174696F6E206661696C36
:104C1A006564004572726F72206F70656E696E67A7
:104C2A0020436F6E6669672E70763100496E666F33
:104C3A002055706461746564005573696E67204F0E
:104C4A006C6420496E666F004D50503A20004C50FB
:104C5A00503A20004D616368696E655769647468EB
:104C6A003A20004C6974657250657248613A2000B6
:104C7A00696E697469616C697A6174696F6E2064BE
:104C8A006F6E652E00537065656453696D756C614E
:104C9A0074696F6E207365742061733A20005370D3
:104CAA0065656443616C69627261746520537461FD
:104CBA00727400537065656443616C6962726174F1
:104CCA006520656E64004F70656E696E6720566177
:104CDA006C766500436C6F73696E672056616C76FB
:0E4CEA0065006E616E00696E66006F76660092
:00000001FF
