:100000000C945D000C943F030C9418030C94850031
:100010000C9485000C9485000C9485000C9485004C
:100020000C9485000C9485000C9485000C9485003C
:100030000C9485000C9485000C9485000C9485002C
:100040000C94CE020C9485000C948C030C946603E3
:100050000C9485000C9485000C9485000C9485000C
:100060000C9485000C9485000000000024002700FB
:100070002A0000000000250028002B0004040404CE
:100080000404040402020202020203030303030342
:10009000010204081020408001020408102001021F
:1000A00004081020000000080002010000030407FB
:1000B0000000000000000000C00511241FBECFEFAB
:1000C000D8E0DEBFCDBF11E0A0E0B1E0E0EDFFE0A1
:1000D00002C005900D92A232B107D9F722E0A2E248
:1000E000B1E001C01D92A130B207E1F710E0CDE50B
:1000F000D0E004C02197FE010E94DB07CC35D10778
:10010000C9F70E94BE030C94E6070C940000EFEAC6
:10011000F0E02491EBE9F0E09491E7E8F0E0E4917D
:10012000EE2309F43BC0222339F1233091F038F457
:100130002130A9F0223001F524B52F7D12C02730DF
:1001400091F02830A1F02430B9F4209180002F7D67
:1001500003C0209180002F77209380000DC024B52C
:100160002F7724BD09C02091B0002F7703C02091C4
:10017000B0002F7D2093B000F0E0EE0FFF1FEE588F
:10018000FF4FA591B4912FB7F894EC91811103C062
:1001900090959E2301C09E2B9C932FBF08953FB73F
:1001A000F8948091600190916101A0916201B091F9
:1001B000630126B5A89B05C02F3F19F00196A11D2C
:1001C000B11D3FBFBA2FA92F982F8827820F911DED
:1001D000A11DB11DBC01CD0142E0660F771F881F34
:1001E000991F4A95D1F708950895CF92DF92EF9223
:1001F000FF920F931F93CF93DF936C017A018B01D2
:10020000C0E0D0E0CE15DF0589F0D8016D918D01F9
:10021000D601ED91FC910190F081E02DC601099588
:10022000892B11F47E0102C02196ECCFC701DF912A
:10023000CF911F910F91FF90EF90DF90CF90089595
:100240000F931F930E94CF00009122011091230170
:100250002091240130912501DC01CB01801B910B01
:10026000A20BB30B8093570190935801A0935901AF
:10027000B0935A018091570190915801A091590172
:10028000B0915A01B7FF17C0809157019091580162
:10029000A0915901B0915A01B095A0959095819582
:1002A0009F4FAF4FBF4F8093570190935801A0933A
:1002B0005901B0935A010E94CF00609322017093BC
:1002C000230180932401909325011F910F9108959C
:1002D000089580E090E00895FC01538D448D252F12
:1002E00030E0842F90E0821B930B541710F0CF96D0
:1002F000089501970895FC01918D828D981761F002
:10030000828DDF01A80FB11D5D968C91928D9F5F4C
:100310009F73928F90E008958FEF9FEF0895FC01F7
:10032000918D828D981731F0828DE80FF11D858DAA
:1003300090E008958FEF9FEF0895FC01918D228D3D
:10034000892F90E0805C9F4F821B91098F739927C2
:10035000089584E691E00E949D0121E0892B09F433
:1003600020E0822F0895FC01848DDF01A80FB11DCC
:10037000A35ABF4F2C91848D90E001968F739927DB
:10038000848FA689B7892C93A089B1898C918064C8
:100390008C93938D848D981306C00288F389E02D89
:1003A00080818F7D80830895EF92FF920F931F933A
:1003B000CF93DF93EC0181E0888F9B8D8C8D981318
:1003C00005C0E889F989808185FD24C0F62E0B8D52
:1003D00010E00F5F1F4F0F731127E02E8C8DE81276
:1003E0000CC00FB607FCFACFE889F989808185FF38
:1003F000F5CFCE010E94B301F1CF8B8DFE01E80F46
:10040000F11DE35AFF4FF0820B8FEA89FB8980814F
:10041000806207C0EE89FF896083E889F98980815D
:100420008064808381E090E0DF91CF911F910F91F4
:10043000FF90EF900895CF93DF93EC01888D882390
:10044000C9F0EA89FB89808185FD05C0A889B98941
:100450008C9186FD0FC00FB607FCF5CF808185FF1C
:10046000F2CFA889B9898C9185FFEDCFCE010E948A
:10047000B301E7CFDF91CF91089580E090E0892B21
:1004800029F00E94A90181110C94000008950097A1
:1004900069F0FC0101900020E9F73197AF01481B9A
:1004A000590BBC0184E691E00C94F50080E090E0EB
:1004B00008958F929F92AF92BF920F931F93CF9305
:1004C000DF93CDB7DEB7A1970FB6F894DEBF0FBEAE
:1004D000CDBF19A2423008F44AE08E010F5D1F4FD4
:1004E000842E912CA12CB12CA50194010E94B90756
:1004F000E62FB901CA0101501109EA3014F4E05D98
:1005000001C0E95CD801EC93232B242B252B61F748
:10051000C8010E944702A1960FB6F894DEBF0FBE35
:10052000CDBFDF91CF911F910F91BF90AF909F9062
:100530008F900895CF92DF92EF92FF92CF93DF9347
:1005400097FF21C06B017C01E0916401F09165018E
:100550000190F081E02D6DE284E691E00995EC01D7
:1005600066277727CB016C197D098E099F094AE020
:100570000E9459028C0F9D1FDF91CF91FF90EF9049
:10058000DF90CF9008954AE0DF91CF91FF90EF90F8
:10059000DF90CF900C9459020E94E1071F920F92B6
:1005A0000FB60F9211242F933F938F939F93AF9386
:1005B000BF9380915C0190915D01A0915E01B0912B
:1005C0005F0130915B0123E0230F2D3720F401966A
:1005D000A11DB11D05C026E8230F0296A11DB11D66
:1005E00020935B0180935C0190935D01A0935E0179
:1005F000B0935F018091600190916101A0916201CF
:10060000B09163010196A11DB11D8093600190938B
:100610006101A0936201B0936301BF91AF919F917B
:100620008F913F912F910F900FBE0F901F901895B3
:100630001F920F920FB60F9211242F933F934F9357
:100640005F936F937F938F939F93AF93BF93EF933A
:10065000FF93E0910201F09103010995FF91EF9161
:10066000BF91AF919F918F917F916F915F914F91CA
:100670003F912F910F900FBE0F901F9018951F92D2
:100680000F920FB60F9211242F933F934F935F93C6
:100690006F937F938F939F93AF93BF93EF93FF934A
:1006A000E0910001F09101010995FF91EF91BF9157
:1006B000AF919F918F917F916F915F914F913F91FA
:1006C0002F910F900FBE0F901F9018951F920F92B1
:1006D0000FB60F9211242F933F934F935F936F9315
:1006E0007F938F939F93AF93BF93EF93FF9384E692
:1006F00091E00E94B301FF91EF91BF91AF919F9163
:100700008F917F916F915F914F913F912F910F90BA
:100710000FBE0F901F9018951F920F920FB60F9259
:1007200011242F938F939F93EF93FF93E091740184
:10073000F09175018081E0917A01F0917B0182FD59
:1007400012C0908180917D018F5F8F7320917E0117
:10075000821751F0E0917D01F0E0EC59FE4F958F4A
:1007600080937D0101C08081FF91EF919F918F91D6
:100770002F910F900FBE0F901F901895789484B50D
:10078000826084BD84B5816084BD85B5826085BD8D
:1007900085B5816085BD80916E00816080936E001B
:1007A000109281008091810082608093810080910D
:1007B00081008160809381008091800081608093BE
:1007C00080008091B10084608093B1008091B0007E
:1007D00081608093B00080917A00846080937A0079
:1007E00080917A00826080937A0080917A008160A3
:1007F00080937A0080917A00806880937A001092CA
:10080000C100E0917401F091750182E08083E09174
:100810007001F09171011082E0917201F091730109
:100820008FEC808310927C01E0917801F091790146
:1008300086E08083E0917601F0917701808180618C
:100840008083E0917601F0917701808188608083D8
:10085000E0917601F0917701808180688083E0915A
:100860007601F091770180818F7D8083EBE9F0E064
:100870002491E7E8F0E08491882399F090E0880FD4
:10088000991FFC01E859FF4FA591B491FC01EE5866
:10089000FF4F859194918FB7F894EC91E22BEC93F4
:1008A0008FBFE2E9F0E02491EEE7F0E08491882345
:1008B000C1F090E0880F991FFC01E859FF4FC591E6
:1008C000D491FC01EE58FF4FA591B4919FB7F894D5
:1008D0008881E22FE0958E2388838C91E823EC9326
:1008E0009FBF80E00E94870080E291E09093010129
:1008F00080930001809169008C7F81608093690002
:10090000E89A86E191E00E9447028CE191E00E9422
:1009100047023324339460915701709158018091BC
:10092000590190915A010E9409076B017C0120E056
:1009300030E0A9010E945A0618161CF0C12CD12CD7
:10094000760107E211E0F80184819581A681B781E3
:1009500081939193A193B19321E0EB34F207A1F736
:10096000C0924B01D0924C01E0924D01F0924E01A9
:10097000C7E2D1E060E070E0CB0129913991499163
:1009800059910E94EE05E1E0CF34DE07B1F720E097
:1009900030E040E251E40E945F0660934B017093A7
:1009A0004C0180934D0190934E010E94D1064B0162
:1009B0005C0140915701509158016091590170912B
:1009C0005A018091530190915401A0915501B09129
:1009D00056012FB7481759076A077B0709F057C018
:1009E000F89480915C0190915D01A0915E01B091BD
:1009F0005F012FBF40914F01509150016091510113
:100A000070915201841B950BA60BB70B803D97404C
:100A1000A105B10558F0109257011092580110929B
:100A2000590110925A01812C912C5401F801119214
:100A30001192119211928F01F1E00F341F07B1F75B
:100A40000E94CF002B013C0184E6C82ED12CE12C62
:100A5000F12C0E94CF00DC01CB0184199509A60975
:100A6000B709883E9340A105B10558F021E0C21AAC
:100A7000D108E108F10888EE480E83E0581E611C99
:100A8000711CC114D104E104F10419F722C0F894D7
:100A900080915C0190915D01A0915E01B0915F0138
:100AA0002FBF80934F0190935001A0935101B093B9
:100AB00052018091570190915801A0915901B09134
:100AC0005A018093530190935401A0935501B09320
:100AD000560180912601181419041A041B042CF4E1
:100AE000811106C03092260103C0811110922601A7
:100AF000809126010E948700C501B4010E949A02DC
:100B00008FE191E00E944702609157017091580176
:100B10008091590190915A010E949A028FE191E0CF
:100B20000E9447022FB7F89480915C0190915D017B
:100B3000A0915E01B0915F012FBF00914F01109114
:100B400050012091510130915201BC01CD01601B37
:100B5000710B820B930B4AE00E9459028FE191E0E6
:100B60000E9447026091260170E080E090E00E94C0
:100B70009A028CE191E00E9447020E943D02CBCE96
:100B8000E4E6F1E01382128288EE93E0A0E0B0E0A8
:100B900084839583A683B78388E091E091838083E3
:100BA00085EC90E09587848784EC90E09787868732
:100BB00080EC90E0918B808B81EC90E0938B828B2A
:100BC00082EC90E0958B848B86EC90E0978B868B03
:100BD000118E128E138E148E08955058BB27AA279B
:100BE0000E9405060C947F070E94710738F00E944E
:100BF000780720F039F49F3F19F426F40C946E071F
:100C00000EF4E095E7FB0C946807E92F0E9490072B
:100C100058F3BA17620773078407950720F079F431
:100C2000A6F50C94B2070EF4E0950B2EBA2FA02D6A
:100C30000B01B90190010C01CA01A0011124FF2789
:100C4000591B99F0593F50F4503E68F11A16F04084
:100C5000A22F232F342F4427585FF3CF4695379583
:100C60002795A795F0405395C9F77EF41F16BA0B48
:100C7000620B730B840BBAF09150A1F0FF0FBB1FF6
:100C8000661F771F881FC2F70EC0BA0F621F731F3F
:100C9000841F48F4879577956795B795F7959E3F9C
:100CA00008F0B0CF9395880F08F09927EE0F97952D
:100CB000879508950E94440708F481E008950E94F2
:100CC00073060C947F070E94780758F00E94710702
:100CD00040F029F45F3F29F00C94680751110C94FF
:100CE000B3070C946E070E94900768F39923B1F341
:100CF000552391F3951B550BBB27AA276217730742
:100D0000840738F09F5F5F4F220F331F441FAA1FD5
:100D1000A9F335D00E2E3AF0E0E832D09150504091
:100D2000E695001CCAF72BD0FE2F29D0660F771F3F
:100D3000881FBB1F261737074807AB07B0E809F025
:100D4000BB0B802DBF01FF2793585F4F3AF09E3FAA
:100D5000510578F00C9468070C94B3075F3FE4F3F7
:100D6000983ED4F3869577956795B795F7959F5FED
:100D7000C9F7880F911D9695879597F90895E1E039
:100D8000660F771F881FBB1F621773078407BA0798
:100D900020F0621B730B840BBA0BEE1F88F7E095F3
:100DA00008950E94D8066894B1110C94B307089571
:100DB0000E94980788F09F5798F0B92F9927B7514C
:100DC000B0F0E1F0660F771F881F991F1AF0BA95EF
:100DD000C9F714C0B13091F00E94B207B1E0089594
:100DE0000C94B207672F782F8827B85F39F0B93F86
:100DF000CCF3869577956795B395D9F73EF49095A2
:100E00008095709561957F4F8F4F9F4F0895E8941F
:100E100009C097FB3EF490958095709561957F4F42
:100E20008F4F9F4F9923A9F0F92F96E9BB279395F0
:100E3000F695879577956795B795F111F8CFFAF400
:100E4000BB0F11F460FF1BC06F5F7F4F8F4F9F4F31
:100E500016C0882311F096E911C0772321F09EE88F
:100E6000872F762F05C0662371F096E8862F70E0F5
:100E700060E02AF09A95660F771F881FDAF7880FCF
:100E80009695879597F90895990F0008550FAA0B25
:100E9000E0E8FEEF16161706E807F907C0F012168D
:100EA0001306E407F50798F0621B730B840B950B90
:100EB00039F40A2661F0232B242B252B21F40895E5
:100EC0000A2609F4A140A6958FEF811D811D089582
:100ED00097F99F6780E870E060E008959FEF80ECED
:100EE000089500240A941616170618060906089590
:100EF00000240A9412161306140605060895092EF6
:100F00000394000C11F4882352F0BB0F40F4BF2B64
:100F100011F460FF04C06F5F7F4F8F4F9F4F0895A4
:100F200057FD9058440F551F59F05F3F71F047959A
:100F3000880F97FB991F61F09F3F79F0879508957F
:100F4000121613061406551FF2CF4695F1DF08C09E
:100F5000161617061806991FF1CF869571056105BB
:100F600008940895E894BB2766277727CB0197F963
:100F70000895A1E21A2EAA1BBB1BFD010DC0AA1FDA
:100F8000BB1FEE1FFF1FA217B307E407F50720F0F2
:100F9000A21BB30BE40BF50B661F771F881F991F6D
:100FA0001A9469F760957095809590959B01AC01B6
:100FB000BD01CF010895EE0FFF1F0590F491E02DC4
:100FC000099481E090E0F8940C94E607F894FFCF40
:100FD000F400F40000000000D401F5006C011B02D5
:100FE0009D017B018F015374617274000D0A002C06
:020FF0002000DF
:00000001FF
