:100000000C94E0000C9419040C94F2030C94650514
:100010000C9465050C9465050C9408010C9408017A
:100020000C9408010C9408010C9408010C9408012C
:100030000C9408010C9408010C9408010C9408011C
:100040000C942D0D0C9408010C947D040C94570411
:100050000C9408010C9408010C9408010C940801FC
:100060000C9408010C94080100407A10F35A00A087
:10007000724E18090010A5D4E80000E87648170071
:1000800000E40B54020000CA9A3B000000E1F505B1
:10009000000080969800000040420F000000A086FB
:1000A00001000000102700000000E803000000002D
:1000B0006400000000000A000000000001000000D1
:1000C00000002C76D888DC674F0823DFC1DFAE59EB
:1000D000E1B1B796E5E3E453C63AE651997696E87E
:1000E000E6C28426EB898C9B62ED407C6FFCEFBC02
:1000F0009C9F40F2BAA56FA5F490055A2AF75C932D
:100100006B6CF9676DC11BFCE0E40D47FEF520E662
:10011000B500D0ED902E0300943577050080841E45
:10012000080000204E0A000000C80C333333330FA0
:10013000986E12831141EF8D2114893BE65516CF3D
:10014000FEE6DB18D1844B381BF77C1D901DA4BB49
:10015000E424203284725E228100C9F124ECA1E5FE
:100160003D2700000000240027002A0000000008AE
:10017000000201000003040700000000000000006E
:1001800000000000230026002900000000002500D8
:1001900028002B00040404040404040402020202E4
:1001A000020203030303030301020408102040803A
:1001B0000102040810200102040810205E18770DC7
:1001C00011241FBECFEFD8E0DEBFCDBF25E0A6E4EF
:1001D000B3E001C01D92A93CB207E1F713E0A0E033
:1001E000B1E0EAEBF3E402C005900D92A634B1074A
:1001F000D9F710E0CFEDD0E004C02197FE010E94B6
:10020000AF1ECE3DD107C9F70E94960D0C94D021A8
:100210000C9400000895CF92DF92EF92FF920F931B
:100220001F93CF93DF936C017A018B01C0E0D0E084
:10023000CE15DF0581F0D8016D918D01D601ED91CC
:10024000FC910190F081E02DC6010995892B11F0F8
:100250002196EECF7E01C701DF91CF911F910F91C3
:10026000FF90EF90DF90CF900895FC01538D448D67
:10027000252F30E0842F90E0821B930B541710F051
:10028000CF96089501970895FC01918D828D98175E
:1002900061F0828DDF01A80FB11D5D968C91928D6A
:1002A0009F5F9F73928F90E008958FEF9FEF089567
:1002B000FC01918D828D981731F0828DE80FF11D30
:1002C000858D90E008958FEF9FEF0895FC01918D4B
:1002D000228D892F90E0805C9F4F821B91098F7344
:1002E0009927089588EF93E00E94660121E0892B09
:1002F00009F420E0822F0895FC01848DDF01A80F0E
:10030000B11DA35ABF4F2C91848D90E001968F733D
:100310009927848FA689B7892C93A089B1898C915C
:10032000837080648C93938D848D981306C00288AB
:10033000F389E02D80818F7D80830895EF92FF9275
:100340000F931F93CF93DF93EC0181E0888F9B8DF8
:100350008C8D981305C0E889F989808185FD26C0B8
:10036000F62E0B8D10E00F5F1F4F0F731127E02E3D
:100370008C8DE8120CC00FB607FCFACFE889F9891A
:10038000808185FFF5CFCE010E947C01F1CF8B8D5E
:10039000FE01E80FF11DE35AFF4FF0829FB7F8947A
:1003A0000B8FEA89FB89808180620AC09FB7F8942D
:1003B000EE89FF896083E889F98980818370806490
:1003C00080839FBF81E090E0DF91CF911F910F91DB
:1003D000FF90EF900895CF93DF93EC01888D8823F1
:1003E000C9F0EA89FB89808185FD05C0A889B989A2
:1003F0008C9186FD0FC00FB607FCF5CF808185FF7D
:10040000F2CFA889B9898C9185FFEDCFCE010E94EA
:100410007C01E7CFDF91CF91089580E090E0892BB8
:1004200029F00E94720181110C940000089520911E
:100430009003309191032817390771F490918E033E
:1004400080918F03981741F0E0918E03F0E0E25B1A
:10045000FC4F808190E008958FEF9FEF08950895FD
:100460001F93CF93DF93DC015C968D919C915D97F8
:10047000009739F421E030E013963C932E931297C5
:100480003BC05196ED91FC91529750962C9150970C
:10049000322F30951FB75E964C915E97742F727015
:1004A00041FD6095F8944081772311F0422B01C003
:1004B00043234083EC012197F1F748E0508160FF2E
:1004C00002C0522B01C053235083EC012197F1F756
:1004D0006695415099F78081772319F083238083B3
:1004E00002C0282B20831FBF5C968D919C915D9745
:1004F0000197F1F781E090E0DF91CF911F9108958E
:1005000020919003309191032817390771F480915D
:100510008F0320918E0390E0805C9F4F821B910996
:1005200060E470E00E94651E089580E090E0089508
:10053000209190033091910328173907B9F49091D5
:100540008E0380918F03981789F0E0918E03F0E07D
:10055000E25BFC4F808120918E0330E02F5F3F4FA4
:100560002F73332720938E0390E008958FEF9FEF32
:100570000895089580E090E008958091920390910D
:1005800093030196909393038093920308950E949E
:10059000BB210F931F93CF93DF93EC018881998147
:1005A000009729F02A813B812617370788F48B01B1
:1005B0006F5F7F4F0E94F520009761F099838883D9
:1005C0001B830A832C813D81232B11F4FC011082B3
:1005D00081E001C080E0DF91CF911F910F910895DC
:1005E000EF92FF920F931F93CF93DF937C018B01C8
:1005F000C0E0D0E0F80161918F01C7018C0F9D1F11
:100600000E94201E2196C430D105A1F784E090E01D
:10061000DF91CF911F910F91FF90EF9008950F936D
:100620001F930E942B0C00914A0310914B032091C1
:100630004C0330914D03DC01CB01801B910BA20BCD
:10064000B30B8093940390939503A0939603B09378
:1006500097038091940390919503A0919603B09194
:100660009703B7FF17C08091940390919503A091D1
:100670009603B0919703B095A095909581959F4F63
:10068000AF4FBF4F8093940390939503A09396032D
:10069000B09397030E942B0C60934A0370934B0313
:1006A00080934C0390934D031F910F910895EF9207
:1006B000FF920F931F93CF93DF936115710511F490
:1006C00080E01CC041155105C1F07B01EC018C811B
:1006D0009D818A01080F191FB801CE010E94C9022D
:1006E000882371F3288139818C819D81B701820F24
:1006F000931F0E94C9211D830C8381E0DF91CF915C
:100700001F910F91FF90EF900895CF93DF93EC012D
:1007100088819981009711F00E946C2019821882BB
:100720001D821C821B821A82DF91CF910895EF9265
:10073000FF920F931F93CF93DF93EC017B018A010C
:10074000BA010E94C902811104C0CE010E94850332
:1007500007C01D830C83B701888199810E94C9213C
:10076000CE01DF91CF911F910F91FF90EF900895EF
:10077000CF93DF93EC01FB018617970761F060814F
:1007800071816115710529F0448155810E9497039B
:1007900002C00E948503CE01DF91CF910895FC0134
:1007A000808191810C946C20FC0111821082138253
:1007B0001282158214820C94B803FC0111821082FB
:1007C00013821282158214826115710551F0FB01AA
:1007D00001900020E9F73197AF01461B570B0C94AD
:1007E000970308951F920F920FB60F9211242F9323
:1007F0003F934F935F936F937F938F939F93AF93A9
:10080000BF93EF93FF93E0912001F09121010995AF
:10081000FF91EF91BF91AF919F918F917F916F91D8
:100820005F914F913F912F910F900FBE0F901F90AE
:1008300018951F920F920FB60F9211242F933F938A
:100840004F935F936F937F938F939F93AF93BF93D8
:10085000EF93FF93E0911E01F0911F010995FF9125
:10086000EF91BF91AF919F918F917F916F915F9128
:100870004F913F912F910F900FBE0F901F901895A1
:100880006115710579F0FB0101900020E9F73197BE
:10089000AF01461B570BDC01ED91FC910280F38107
:1008A000E02D099480E090E008950C9440041F929C
:1008B0000F920FB60F9211242F933F934F935F9394
:1008C0006F937F938F939F93AF93BF93EF93FF9318
:1008D00088EF93E00E947C01FF91EF91BF91AF916F
:1008E0009F918F917F916F915F914F913F912F9148
:1008F0000F900FBE0F901F9018951F920F920FB67A
:100900000F9211242F938F939F93EF93FF93E09176
:100910000804F09109048081E0910E04F0910F0425
:1009200082FD12C09081809111048F5F8F7320919E
:100930001204821751F0E0911104F0E0E850FC4FEE
:10094000958F8093110401C08081FF91EF919F9159
:100950008F912F910F900FBE0F901F901895CF93EE
:10096000DF93EC0188EF93E00E946601892B29F068
:1009700088EF93E00E944401F5CFBE0188EF93E039
:100980000E9455040E9459090E945909DF91CF9194
:100990000C945909CF92DF92EF92FF920F931F931D
:1009A000CF93DF93CDB7DEB72E970FB6F894DEBFA7
:1009B0000FBECDBF6C017B018E01075F1F4F6CE442
:1009C00071E0C8010E94DD03D60112966D917C9101
:1009D00013976115710559F0FB0101900020E9F7AB
:1009E0003197AF01461B570BC8010E94570344E0E3
:1009F00050E061E571E0C8010E94570389859A853E
:100A00000E94AF04FE01319688E0DF011D928A95B5
:100A1000E9F7E114F10411F4F12C41C084E690E00F
:100A2000A0E0B0E08093FC039093FD03A093FE034D
:100A3000B093FF036F010E94960C97FDEDCFF60176
:100A400081936F010E171F07B1F78981813721F755
:100A50008E818F3F09F78F818F3FF1F688858F3F19
:100A6000D9F62D818C8190E0A0E0B0E0DC019927DF
:100A70008827B22B2A81822B4B8150E0542F4427A8
:100A8000052E000C660B770B842B952BA62BB72B12
:100A9000F70180839183A283B383FF24F394C80179
:100AA0000E94CF036F2D70E080E090E02E960FB68D
:100AB000F894DEBF0FBECDBFDF91CF911F910F9194
:100AC000FF90EF90DF90CF9008951F920F920FB696
:100AD0000F9211242F933F934F935F936F937F93C4
:100AE0008F939F93AF93BF93EF93FF93E091900306
:100AF000F0919103309709F451C0968DA685B78582
:100B0000858591FF04C09C91892329F447C09C915D
:100B1000892309F043C0A389B4899C918589809574
:100B200089238C93868997890197F1F7608D718D60
:100B3000A685B785558538E020E0CB010197F1F710
:100B4000822F90E095958795282F4C91452309F0A9
:100B50002068315091F7868D81FD209580918F031B
:100B600090E001968F73992730918E03381749F0E2
:100B7000A0918F03B0E0A25BBC4F2C9380938F03B6
:100B800003C0868D8160868F828D938D0197F1F7EA
:100B9000A389B4899C918589892B8C93FF91EF91CE
:100BA000BF91AF919F918F917F916F915F914F9185
:100BB0003F912F910F900FBE0F901F901895EF92BD
:100BC000FF920F931F93CF93DF938B010C5F1F4F07
:100BD000EB017C01E61AF70AC7018C0F9D1F0E94EA
:100BE000181E8993C017D107B9F784E090E0DF9110
:100BF000CF911F910F91FF90EF90089566E571E0FE
:100C000083EF94E00E9455046091160170911701E2
:100C100080911801909119010E94070A6CE571E01A
:100C200083EF94E00E94550460911A0170911B01BA
:100C300080911C0190911D010E94070A62E671E0FB
:100C400083EF94E00E94550460910E0170910F01B2
:100C500080911001909111010E94070A61E771E0F3
:100C600083EF94E00E94550460911201709113018A
:100C700080911401909115010E94070A6EE771E0BE
:100C800083EF94E00E94550460910A0170910B017A
:100C900080910C0190910D010E94070A6DE871E0AE
:100CA00083EF94E00E945504609106017091070162
:100CB00080910801909109010E94070A6BE971E097
:100CC00083EF94E00E94550460910201709103014A
:100CD00080910401909105010C94070A66E171E08E
:100CE00081E090E00E94F0026EE071E082E390E02B
:100CF0000E94F00262E171E08BE490E00E94F00259
:100D00006AE171E089E190E00E94F00260910001E7
:100D100080E090E00E94201E6AE071E084E690E0AE
:100D20000E94F00266E071E08DE790E00E94F00220
:100D300062E071E086E990E00E94F00288EA91E0CA
:100D40000E94260B80E090E00E94181E682F70E041
:100D500080E090E04AE00E94C4096BEB71E083EF11
:100D600094E00C9440044F925F926F927F928F9226
:100D70009F92AF92BF92CF92DF92EF92FF92CF936A
:100D8000DF93CDB7DEB76E970FB6F894DEBF0FBE18
:100D9000CDBF20E030E040E251E46091AC037091BF
:100DA000AD038091AE039091AF030E945A1D0E9443
:100DB000941F2B013C0120E030E040E251E46091BF
:100DC000A8037091A9038091AA039091AB030E949C
:100DD0005A1D0E94941F4B015C0120E030E040E26C
:100DE00051E46091A4037091A5038091A6039091B2
:100DF000A7030E945A1D0E94941F6B017C0120E0F2
:100E000030E040E251E46091A0037091A103809131
:100E1000A2039091A3030E945A1D0E94941F6B8B02
:100E20007C8B8D8B9E8B20E030E040E251E4609122
:100E30009C0370919D0380919E0390919F030E945B
:100E40005A1D0E94941F6F8B788F898F9A8F20E094
:100E500030E040E251E460919803709199038091F1
:100E60009A0390919B030E945A1D0E94941F6B8FBE
:100E70007C8F8D8F9E8F20E030E040E251E46091C6
:100E8000B0037091B1038091B2039091B3030E94BB
:100E90005A1D0E94941FCE0107960E948C096EEB8A
:100EA00071E0CE0101960E94DD03BE01695F7F4FB4
:100EB000CE0101960E947909BC01CE010D960E94D7
:100EC000D403CE010D960E946A09CE010D960E94B0
:100ED000CF03CE0101960E94CF03CE0107960E9458
:100EE000CF03B201CE0107960E948C096CEC71E031
:100EF000CE0101960E94DD03BE01695F7F4FCE01E6
:100F000001960E947909BC01CE010D960E94D4037E
:100F1000CE010D960E946A09CE010D960E94CF0364
:100F2000CE0101960E94CF03CE0107960E94CF0307
:100F3000B401CE0107960E948C096AED71E0CE01E2
:100F400001960E94DD03BE01695F7F4FCE010196CD
:100F50000E947909BC01CE010D960E94D403CE01F6
:100F60000D960E946A09CE010D960E94CF03CE0114
:100F700001960E94CF03CE0107960E94CF03B601CF
:100F8000CE0107960E948C0969EE71E0CE010196B0
:100F90000E94DD03BE01695F7F4FCE0101960E9472
:100FA0007909BC01CE010D960E94D403CE010D96A5
:100FB0000E946A09CE010D960E94CF03CE010196D0
:100FC0000E94CF03CE0107960E94CF036B897C89D4
:100FD000CE0107960E948C096AEF71E0CE0101965E
:100FE0000E94DD03BE01695F7F4FCE0101960E9422
:100FF0007909BC01CE010D960E94D403CE010D9655
:101000000E946A09CE010D960E94CF03CE0101967F
:101010000E94CF03CE0107960E94CF036F89788D7F
:10102000CE0107960E948C0966E072E0CE0101961F
:101030000E94DD03BE01695F7F4FCE0101960E94D1
:101040007909BC01CE010D960E94D403CE010D9604
:101050000E946A09CE010D960E94CF03CE0101962F
:101060000E94CF03CE0107960E94CF036B8D7C8D2B
:10107000CE0107960E948C0962E172E0CE010196D2
:101080000E94DD03BE01695F7F4FCE0101960E9481
:101090007909BC01CE010D960E94D403CE010D96B4
:1010A0000E946A09CE010D960E94CF03CE010196DF
:1010B0000E94CF03CE0107960E94CF036EE172E03B
:1010C000CE0101960E94DD03CE0101960E946A09BD
:1010D000CE0101960E94CF0366E272E0CE01019636
:1010E0000E94DD03CE0101960E946A09CE0101969D
:1010F0000E94CF036E960FB6F894DEBF0FBECDBF31
:10110000DF91CF91FF90EF90DF90CF90BF90AF90A5
:101110009F908F907F906F905F904F9008954F9227
:101120005F926F927F928F929F92AF92BF92CF9277
:10113000DF92EF92FF92CF93DF9300D000D000D0E8
:10114000CDB7DEB79E838D836A017B01DC011496E7
:101150008D919D910D90BC91A02D89839A83AB8335
:10116000BC83ED81FE812081318142815381BC01AC
:10117000CD010E94B61E9B01AC0169817A818B81F1
:101180009C810E94221F4B015C01AD81BE8154965F
:101190006D937D938D939C93579750964D905D9052
:1011A0006D907C905397A3019201C701B6010E94F4
:1011B000B51EA50194010E945A1DA30192010E942F
:1011C000B61E6B017C01ED81FE8164877587868781
:1011D00097879B01AC01C301B2010E94B51E9F77A6
:1011E000AD81BE8118962D913D914D915C911B97DB
:1011F0000E945A1D2B013C01A501940160E070E0A2
:1012000080E89FE30E94B51E29813A814B815C8171
:101210000E945A1D9B01AC01C301B2010E94B61E7F
:10122000ED81FE816483758386839783C08AD18A2A
:10123000E28AF38AC701B60126960FB6F894DEBF9C
:101240000FBECDBFDF91CF91FF90EF90DF90CF9099
:10125000BF90AF909F908F907F906F905F904F90D6
:101260000895E8EFF3E0A089B18982E08C93A4852A
:10127000B5851C92A685B7858FEC8C93108EA489BA
:10128000B58986E08C93A289B3898C9180618C9317
:10129000A289B3898C9188608C93A289B3898C913F
:1012A00080688C930288F389E02D80818F7D808314
:1012B00008956FEF88EF93E00C949E0190931F01C7
:1012C00080931E01E9E6F0E080818C7F816080835D
:1012D000E89A0895FC01448155816081718188EF0D
:1012E00093E00E940B010E9459090E9459090C9435
:1012F0005909CF93DF93EC01FB0144815581608153
:1013000071810E945703811103C0CE010E948503A1
:10131000CE01DF91CF910895EF92FF920F931F932B
:10132000CF93DF93CDB7DEB762970FB6F894DEBFE9
:101330000FBECDBF8C01CB01F80111821082138248
:101340001282158214824AE09E012F5F3F4F79017D
:10135000B9010E948D1AF70101900020E9F7319739
:10136000AF014E195F09B701C8010E949703629649
:101370000FB6F894DEBF0FBECDBFDF91CF911F91A6
:101380000F91FF90EF9008958F929F92AF92BF922E
:101390000F931F93CF93DF93CDB7DEB7A1970FB60F
:1013A000F894DEBF0FBECDBF19A2423008F44AE068
:1013B0008E010F5D1F4F842E912CA12CB12CA50105
:1013C00094010E94791EE62FB901CA01015011094A
:1013D000EA3014F4E05D01C0E95CD801EC93232B02
:1013E000242B252B61F7B80183EF94E00E94400481
:1013F000A1960FB6F894DEBF0FBECDBFDF91CF919F
:101400001F910F91BF90AF909F908F9008954F9232
:101410005F926F927F928F929F92AF92BF92CF9284
:10142000DF92EF92FF926B017C019B01AC010E9465
:10143000CF1F882319F067E373E01AC046015701F4
:10144000E894B7F82FEF3FEF4FE75FE7C501B4012E
:101450000E94CF1F811112C02FEF3FEF4FE75FE7D0
:10146000C501B4010E94F41C181644F46BE373E048
:1014700083EF94E00E9440047C0183C02FEF3FEF94
:101480004FE75FE4C701B6010E94CA1F18161CF49B
:101490006FE373E0EDCF2FEF3FEF4FE75FECC70156
:1014A000B6010E94F41C87FDF3CF20E030E0A901D3
:1014B000C701B6010E94F41C87FF0BC06DE283EFE9
:1014C00094E00E9430025C01F7FAF094F7F8F0948F
:1014D00002C0A12CB12C2AE037ED43EA5BE3C7013F
:1014E000B6010E94B61E2B013C010E949B1F6B019E
:1014F0007C010E94F91C9B01AC01C301B2010E9456
:10150000B51E2B013C014AE0C701B6010E94C40987
:101510007C01EA0CFB1C6EE283EF94E00E94300237
:10152000E80EF91E20E030E040E251E4C301B201D0
:101530000E945A1D2B013C010E949B1F4B01A12CB4
:10154000B12C4AE0C501B4010E94C409E80EF91E9D
:10155000C501B4010E94F91C9B01AC01C301B20199
:101560000E94B51E20E030E040E251E40E945A1D86
:101570000E949B1F80E090E04AE00E94C409E80EB0
:10158000F91E6BEB71E083EF94E00E9440048E0D36
:101590009F1DFF90EF90DF90CF90BF90AF909F90F6
:1015A0008F907F906F905F904F900895CF93DF93CF
:1015B000EC0142E050E063E473E00E9457038111C4
:1015C00003C0CE010E948503CE01DF91CF91089523
:1015D000EF92FF920F931F93CF93DF93CDB7DEB7B8
:1015E000A1970FB6F894DEBF0FBECDBF7C01CB0133
:1015F000BA01F701118210821382128215821482BD
:101600008E010F5F1F4F22E044E00E946D1A009789
:1016100069F0FC0101900020E9F73197AF01481B08
:10162000590BBC01C7010E94970303C0C7010E9468
:101630008503A1960FB6F894DEBF0FBECDBFDF9134
:10164000CF911F910F91FF90EF900895CF93DF936B
:10165000BC0183EF94E00E944004EC016BEB71E06D
:1016600083EF94E00E9440048C0F9D1FDF91CF9187
:10167000089590E0FC01E459FE4F2491FC01E855E7
:10168000FE4F3491FC01EC56FE4FE491EE2309F439
:101690003CC0222339F1233091F038F42130A9F0F5
:1016A000223001F584B58F7D12C0273091F02830AB
:1016B000A1F02430B9F4809180008F7D03C0809127
:1016C00080008F77809380000DC084B58F7784BDB4
:1016D00009C08091B0008F7703C08091B0008F7DEA
:1016E0008093B000F0E0EE0FFF1FE657FE4FA5918C
:1016F000B4919FB7F894611104C08C913095382350
:1017000002C0EC913E2B3C939FBF0895CF93DF9393
:1017100090E0FC01E855FE4F2491FC01EC56FE4F91
:101720008491882361F190E0880F991FFC01EE59A4
:10173000FE4FC591D491FC01E657FE4FA591B4919F
:10174000611109C09FB7F89488812095822388830E
:10175000EC912E230BC0623061F49FB7F89488811E
:10176000322F309583238883EC912E2B2C939FBFAF
:1017700006C08FB7F894E8812E2B28838FBFDF91A6
:10178000CF9108951F93CF93DF93182FEB0161E062
:101790000E94860B209711F460E004C0CF3FD10572
:1017A00039F461E0812FDF91CF911F910C94390BB7
:1017B000E12FF0E0E459FE4FE491E330F9F048F412
:1017C000E130B9F0E230A1F584B5806284BDC8BDD6
:1017D00034C0E730E9F0E83019F1E43049F58091A0
:1017E0008000806280938000D0938B00C0938A0039
:1017F00024C084B5806884BDC7BD1FC080918000AF
:10180000806880938000D0938900C093880015C0C1
:101810008091B00080688093B000C093B3000DC089
:101820008091B00080628093B000C093B40005C086
:10183000C038D1050CF0B5CFAFCFDF91CF911F915C
:10184000089560E070E08AE00E94C20B60E070E002
:1018500089E00C94C20B3FB7F8948091D403909127
:10186000D503A091D603B091D70326B5A89B05C098
:101870002F3F19F00196A11DB11D3FBFBA2FA92F0F
:10188000982F8827820F911DA11DB11DBC01CD018C
:1018900042E0660F771F881F991F4A95D1F7089578
:1018A0008F929F92AF92BF92CF92DF92EF92FF9270
:1018B0006B017C010E942B0C4B015C01C114D10413
:1018C000E104F104F1F00E942B0CDC01CB0188193A
:1018D0009909AA09BB09883E9340A105B10570F397
:1018E00021E0C21AD108E108F10888EE880E83E0F1
:1018F000981EA11CB11CC114D104E104F10419F714
:10190000DDCFFF90EF90DF90CF90BF90AF909F9092
:101910008F9008952FB7F8946091D0037091D10300
:101920008091D2039091D3032FBF08950F931F93FB
:101930000E948A0C60930004709301048093020457
:101940009093030488EF93E00E94440197FF1FC027
:101950000E948A0C0091000410910104209102045D
:1019600030910304DC01CB01801B910BA20BB30B64
:101970000091FC031091FD032091FE033091FF03C1
:1019800080179107A207B307E8F28FEF9FEF1F912F
:101990000F910895EF92FF920F931F93CF93DF93D0
:1019A00000D000D0CDB7DEB719821A821B821C820C
:1019B00084E690E0A0E0B0E08093FC039093FD0308
:1019C000A093FE03B093FF038E010F5F1F4F7E01B4
:1019D00085E0E80EF11C0E94960C97FF04C08981F7
:1019E000813091F407C0F80181938F01EE15FF0556
:1019F00091F7F5CF8A818F3F39F48B818F3F21F4A6
:101A000081E09C819F3F09F080E00F900F900F9044
:101A10000F90DF91CF911F910F91FF90EF9008955C
:101A2000CF93DF9300D000D000D0CDB7DEB7BC019C
:101A3000CE0101960E94D403CE0101960E946A094C
:101A4000CE0101960E94CF0326960FB6F894DEBF12
:101A50000FBECDBFDF91CF9108951F920F920FB6A9
:101A60000F9211242F933F938F939F93AF93BF9324
:101A70008091D0039091D103A091D203B091D30370
:101A80003091C40523E0230F2D3720F40196A11DCA
:101A9000B11D05C026E8230F0296A11DB11D20939C
:101AA000C4058093D0039093D103A093D203B09345
:101AB000D3038091D4039091D503A091D603B09124
:101AC000D7030196A11DB11D8093D4039093D50334
:101AD000A093D603B093D703BF91AF919F918F91FD
:101AE0003F912F910F900FBE0F901F9018958EE38E
:101AF00091E09093F4048093F3048091900390918B
:101B00009103835F944071F4E0910605F09107051D
:101B1000908180910805809589238083109291039C
:101B2000109290038AE595E00C94CF03CF93DF9356
:101B3000CDB7DEB7CC54D1090FB6F894DEBF0FBED7
:101B4000CDBF789484B5826084BD84B5816084BD46
:101B500085B5826085BD85B5816085BD80916E004B
:101B6000816080936E00109281008091810082607C
:101B700080938100809181008160809381008091B9
:101B800080008160809380008091B10084608093A8
:101B9000B1008091B00081608093B00080917A00A4
:101BA000846080937A0080917A00826080937A00CA
:101BB00080917A00816080937A0080917A008068B9
:101BC00080937A001092C10010920E0510920D05BC
:101BD00010920C0510920B0510920A05109209053F
:101BE0008DE991E09093100580930F059091FF048B
:101BF000963108F058C02DEB30E030930A05209361
:101C000009052BE931E030930C0520930B052CE2FC
:101C100031E030930E0520930D0540916800983017
:101C200058F031E09E3008F430E021E0822F01C00E
:101C3000880F3A95EAF701C084E0842B809368000E
:101C4000983038F09E3040F0963148F020E030E097
:101C500008C02DE630E005C02BE630E002C02CE6DF
:101C600030E03093070520930605983030F481E08A
:101C700001C0880F9A95EAF70EC0292F30E09E30F8
:101C800018F42850310902C02E50310981E001C0FA
:101C9000880F2A95EAF78093080580910F059091A7
:101CA00010050197F1F780910D0590910E05892B94
:101CB00049F1E0919003F091910324E0E33FF207B2
:101CC00009F1309739F0A389B4899C918589809571
:101CD00089238C93809111058E7F8093110510923A
:101CE0008F0310928E0383EF94E09093910380937F
:101CF0009003E0910605F091070590818091080519
:101D0000892B80838DEB91E00E94260B80E090E090
:101D10000E94181E90910001981719F00E946E06FB
:101D200004C080E392E00E94260B66E171E081E04E
:101D300090E00E94DF056EE071E082E390E00E9497
:101D4000DF0562E171E08BE490E00E94DF056AE16B
:101D500071E089E190E00E94DF056AE071E084E6CD
:101D600090E00E94DF0566E071E08DE790E00E9460
:101D7000DF0562E071E086E990E00E94DF050E94E5
:101D8000FE0560E082E00E94860B60E081E10E9437
:101D9000860B61E085E00E94860B87EE94E0EFEB16
:101DA000F4E011921192119211928E179F07C9F7C8
:101DB0008FE093E00E945E0960E082E00E94860B63
:101DC0008FEB94E0E7E9F4E01192119211921192F5
:101DD0008E179F07C9F78DEB92E00E945E090E9463
:101DE0008A0C6093B5037093B6038093B703909306
:101DF000B803C0900201D0900301E0900401F0907C
:101E000005018090060190900701A0900801B09014
:101E1000090140900A0150900B0160900C017090F4
:101E20000D0161E08AE00E94860B61E089E00E947A
:101E3000860B61E088E00E94860B4092D8035092A6
:101E4000D9036092DA037092DB038092DC039092F4
:101E5000DD03A092DE03B092DF03C092E003D092D4
:101E6000E103E092E203F092E30380910E0190918E
:101E70000F01A0911001B091110121968CAF9DAF7F
:101E8000AEAFBFAF21978091120190911301A09145
:101E90001401B091150125968CAF9DAFAEAFBFAFC9
:101EA00025978091160190911701A0911801B0918A
:101EB000190129968CAF9DAFAEAFBFAF2997809126
:101EC0001A0190911B01A0911C01B0911D012D964A
:101ED0008CAF9DAFAEAFBFAF2D970E9431090E946E
:101EE00031098DEB91E00E94AF048EE392E00E94F5
:101EF000AF040E94CA0C86E492E00E94AF040E94E4
:101F0000CA0C2D968CAD9DADAEADBFAD2D97809317
:101F1000B0039093B103A093B203B093B303299697
:101F20008CAD9DADAEADBFAD29978093AC039093C2
:101F3000AD03A093AE03B093AF0325968CAD9DADDA
:101F4000AEADBFAD25978093A8039093A903A0934E
:101F5000AA03B093AB0321968CAD9DADAEADBFADE2
:101F600021978093A4039093A503A093A603B09315
:101F7000A7034092A0035092A1036092A203709223
:101F8000A30380929C0390929D03A0929E03B09223
:101F90009F03C0929803D0929903E0929A03F09223
:101FA0009B030E94B3068DE492E00E94260B0E94E0
:101FB0008A0C60936005709361058093620590932D
:101FC00063056DEB71E0CE01C7960E94DD0388EFDB
:101FD00093E00E946601181619060CF080C188EF84
:101FE00093E00E946601181619061CF56DEB71E06E
:101FF000CE0101960E94DD030E94960C97FD0CC055
:102000008F83188641E050E0BE01695F7F4FCE01AB
:1020100001960E945703F0CF4D815E8169817A81DC
:10202000CE01C7960E945703CE0101960E94CF03AE
:10203000D6CF2BAD3CAD2115310521F0EFA9F8AD80
:10204000309721F41092B403E4EBF3E08081803503
:1020500009F4F4C024F4843409F4F3C040C1823597
:1020600009F429C1833509F03AC119821A821B8209
:102070001C82BE016F5F7F4F8CEA95E00E94CA040C
:1020800069817A818B819C810E94F91C20E030E07B
:1020900040E251E40E94221F6093B0037093B103A9
:1020A0008093B2039093B3036AE070E080E090E025
:1020B0000E94500CBE016F5F7F4F88EB95E00E943D
:1020C000CA0469817A818B819C810E94F91C20E07D
:1020D00030E040E251E40E94221F6093AC03709311
:1020E000AD038093AE039093AF036AE070E080E0AD
:1020F00090E00E94500CBE016F5F7F4F84E995E035
:102100000E94CA0469817A818B819C810E94F91C9A
:1021100020E030E040E251E40E94221F6093A803D7
:102120007093A9038093AA039093AB036AE070E0D5
:1021300080E090E00E94500CBE016F5F7F4F80EA0C
:1021400095E00E94CA0469817A818B819C810E94FA
:10215000F91C20E030E040E251E40E94221F60932D
:10216000A4037093A5038093A6039093A7036AE04A
:1021700070E080E090E00E94500CBE016F5F7F4FE6
:1021800088E895E00E94CA0469817A818B819C81EC
:102190000E94F91C20E030E040E251E40E94221F3E
:1021A0006093A0037093A1038093A2039093A30371
:1021B0006AE070E080E090E00E94500CBE016F5F2A
:1021C0007F4F8CE795E00E94CA0469817A818B81F8
:1021D0009C810E94F91C20E030E040E251E40E9422
:1021E000221F60939C0370939D0380939E039093A2
:1021F0009F036AE070E080E090E00E94500CBE0116
:102200006F5F7F4F80E795E00E94CA0469817A8101
:102210008B819C810E94F91C20E030E040E251E477
:102220000E94221F609398037093990380939A03EE
:1022300090939B0381E08093CF0351C00E94B3062B
:102240004EC02230310520F0EFA9F8AD309729F4C7
:102250001092B403E4EBF3E001C0319681E0908189
:1022600019160CF080E08093C20319821A821B8237
:102270001C826AE070E080E090E00E94500CBE0199
:102280006F5F7F4F84E695E00E94CA0469817A817E
:102290008B819C810E94F91C20E030E040E251E4F7
:1022A0000E94221F6093BD037093BE038093BF03FF
:1022B0009093C00314C02230310520F0EFA9F8AD8F
:1022C000309729F41092B403E4EBF3E001C03196A7
:1022D00081E0908119160CF080E08093C103809119
:1022E000CF03882309F48EC08091B0039091B1038D
:1022F000A091B203B091B30380931A0190931B0194
:10230000A0931C01B0931D018091AC039091AD038B
:10231000A091AE03B091AF03809316019093170183
:10232000A0931801B09319018091A8039091A9037B
:10233000A091AA03B091AB03809312019093130173
:10234000A0931401B09315018091A4039091A5036B
:10235000A091A603B091A70380930E0190930F0163
:10236000A0931001B09311010091A0031091A1035B
:102370002091A2033091A30300930A0110930B0153
:1023800020930C0130930D0140919C0350919D03CB
:1023900060919E0370919F03409306015093070143
:1023A00060930801709309018091980390919903BB
:1023B000A0919A03B0919B03809302019093030133
:1023C000A0930401B09305010093D8031093D9039F
:1023D0002093DA033093DB034093DC035093DD0357
:1023E0006093DE037093DF038093E0039093E10337
:1023F000A093E203B093E3030E946E060E94FE05E1
:102400001092CF030E948A0C009160051091610523
:102410002091620530916305DC01CB01801B910B9B
:10242000A20BB30B84369105A105B10508F409C6CA
:1024300020E030E048EC52E460911A0170911B01F9
:1024400080911C0190911D010E94221F6B017C0153
:10245000E8988AE091E090931F0180931E010E940A
:102460008A0C20919203309193034091B5035091CF
:10247000B603641B750B88EE93E00E94651ECB01CA
:10248000829FB001839F700D929F700D1124072EC3
:10249000000C880B990B0E94FB1CA70196010E945F
:1024A000221F6B017C010E948A0C6093B50370931C
:1024B000B6038093B7039093B803109293031092DE
:1024C00092038DEB92E00E945E0920E030E040EF45
:1024D00051E4C701B6010E94CA1F18164CF0C09201
:1024E000C703D092C803E092C903F092CA030CC09C
:1024F00080E090E0A0EFB1E48093C7039093C8031D
:10250000A093C903B093CA0320E030E040E85FE342
:102510006091C7037091C8038091C9039091CA0369
:102520000E94F41C87FF08C01092C7031092C803D2
:102530001092C9031092CA03C090C703D090C80379
:10254000E090C903F090CA0320E030E0A901C70180
:10255000B6010E94F41C18161CF0C12CD12C760177
:1025600087EA94E0E7E9F4E0448155816681778168
:1025700041935193619371938E179F07A9F7C0926E
:10258000A704D092A804E092A904F092AA043BEA1E
:10259000E32E34E0F32E07E914E060E070E0CB01B5
:1025A000D8012D913D914D915D918D010E94B61EF6
:1025B000E016F106A9F720E030E040EA50E40E947E
:1025C000221F6093A7047093A8048093A90490939A
:1025D000AA046093C7037093C8038093C9039093C0
:1025E000CA038091C203882389F08091BD03909132
:1025F000BE03A091BF03B091C0038093CB0390931F
:10260000CC03A093CD03B093CE0313C18091940368
:1026100090919503A0919603B0919703181619060F
:102620001A061B062CF56091940370919503809116
:102630009603909197030E94FB1C20911601309104
:10264000170140911801509119010E945A1D9B01D8
:10265000AC0160E070E080E89FE30E94221F26E664
:1026600036E646E650E40E945A1D6B017C0103C029
:10267000C12CD12C7601A70196016091EB047091D9
:10268000EC048091ED049091EE040E94F41C811101
:102690001EC00E948A0C0091B9031091BA032091C8
:1026A000BB033091BC03DC01CB01801B910BA20B5F
:1026B000B30B843F9140A105B105D8F0109294036B
:1026C000109295031092960310929703F3C40E9400
:1026D0008A0C6093B9037093BA038093BB03909301
:1026E000BC03C092EB04D092EC04E092ED04F092B3
:1026F000EE0420E030E0A901C701B6010E94F41CFD
:1027000087FDD8C420E030E040E752E4C701B601BD
:102710000E94CA1F181654F020E030E0A901C7013A
:10272000B6010E94F41C18163CF0C4C4C12CD12C74
:1027300020E7E22E22E4F22E8FEC94E0EFEBF4E0BF
:10274000448155816681778141935193619371935F
:102750008E179F07A9F7C092CF04D092D004E092C1
:10276000D104F092D20493EDE92E94E0F92E0FEB10
:1027700014E060E070E0CB01D8012D913D914D91C6
:102780005D918D010E94B61EE016F106A9F720E0CA
:1027900030E040EA50E40E94221F7B018C01CB0113
:1027A000D8018093CF049093D004A093D104B09328
:1027B000D20420E030E0A901B701C8010E94F41C56
:1027C00087FD25C020911201309113014091140121
:1027D0005091150160910E0170910F0180911001CF
:1027E000909111010E945A1D9B01AC0160E070E8BC
:1027F0008BE396E40E94221F5B016C019701A80104
:102800000E94F41C87FF07C07501860104C0E12CFB
:10281000F12C00E010E0A701B80182E195E00E94F0
:102820008F086093CB037093CC038093CD03909378
:10283000CE038090CB039090CC03A090CD03B090BA
:10284000CE03209112013091130140911401509157
:102850001501C501B4010E945A1D20910E0130914D
:102860000F0140911001509111010E945A1D20E06A
:1028700030E046E154E40E94221F6B017C0120E01D
:1028800030E0A9010E94F41C87FD11C020E030E077
:1028900040EA51E4C701B6010E94CA1F181654F459
:1028A000C12CD12C80EAE82E81E4F82E03C0C12C83
:1028B000D12C7601C092C303D092C403E092C50329
:1028C000F092C60320E030E040EA51E46091C70393
:1028D0007091C8038091C9039091CA030E94221F7E
:1028E00020E030EC4FE754E40E945A1D20E030E035
:1028F000A9010E94B61E0E94941F072E000C880B8F
:10290000990B0E94FB1CAB01BC018AE295E00E947E
:102910008F080E94941F21966CAF7DAF8EAF9FAF42
:10292000219720E030E040EA51E4C701B6010E945F
:10293000221F20E030EC4FE754E40E945A1D20E0B3
:1029400030E0A9010E94B61E0E94941F072E000CC1
:10295000880B990B0E94FB1CAB01BC0182E495E043
:102960000E948F080E94941F6B017C0120E030E0E0
:1029700040E050E4C501B4010E94F41C90910101B3
:1029800087FF1AC02091F0043091F1042431310501
:102990003CF01092F1041092F0041092F20467C31C
:1029A0002F5F3F4F3093F1042093F0048091F204A5
:1029B000882309F45CC307C01092F1041092F0045C
:1029C00081E08093F204892F911105C08091C103A9
:1029D00081113FC381E02091C103211103C09111F6
:1029E0004AC342C3882309F43FC3992309F43CC373
:1029F0000091EC031091ED0316018DAD9EAD281AE8
:102A0000390A3092EF032092EE03A091F003B091C7
:102A1000F1032396BFAFAEAF2397BD01BB0F880B69
:102A2000990B0E94FB1C4B015C01B10137FE04C0F5
:102A30006627772762197309072E000C880B990BFC
:102A40000E94FB1C2091D8033091D9034091DA03F6
:102A50005091DB030E945A1D0E94941F072E000C08
:102A6000880B990B0E94FB1C2B013C012091DC037D
:102A70003091DD034091DE035091DF03C501B401C5
:102A80000E945A1D9B01AC01C301B2010E94B61EF7
:102A90000E94941F072E000C880B990B0E94FB1CB0
:102AA0002B013C016091E6037091E7036C197D09ED
:102AB00077FF03C0719561957109072E000C880B93
:102AC000990B0E94FB1C2091E0033091E10340919F
:102AD000E2035091E3030E945A1D9B01AC01C30124
:102AE000B2010E94B61E0E94941F2B013C012DECE6
:102AF0003CEC4CEC5DE3C501B4010E945A1D4B0156
:102B00005C0120E030E040E85FE30E94F41C87FFB6
:102B1000CCC2B201550C880B990B0E94FB1CA5017D
:102B200094010E945A1D0E94941F7093ED036093BC
:102B3000EC0323968EAD9FAD239701969093F103FE
:102B40008093F0038091EC039091ED038F3F91050A
:102B500039F034F08FEF90E09093ED038093EC0325
:102B60008091EC039091ED0397FF04C01092ED0368
:102B70001092EC03C1010496099740F41092ED0302
:102B80001092EC031092F1031092F0031092F303F1
:102B9000121413049CF40E94210C83E290E001972C
:102BA000F1F7A090EC03B090ED0360E070E08AE0F4
:102BB0000E94C20BB50189E00E94C20B8091EE0316
:102BC0009091EF0397FF12C00E94210C83E290E0E6
:102BD0000197F1F76091EC037091ED038AE00E9498
:102BE000C20B60E070E089E00E94C20B8091EE03AE
:102BF0009091EF034396879708F04AC20E948A0C8F
:102C00008090F4039090F503A090F603B090F70342
:102C1000DC01CB0188199909AA09BB0988389341BD
:102C2000A105B10518F081E08093F203D092E7038B
:102C3000C092E6032DAD3EAD3093EB032093EA0343
:102C400060E070E0CB010E94500C0E948A0C8090E2
:102C5000600590906105A0906205B09063056819C9
:102C600079098A099B090E94F91C20E030E04AE7B3
:102C700054E40E94221FAB01BC01CE0101960E94C8
:102C8000E80A6091010170E0CE0107960E948C096C
:102C9000B801CE010D960E948C096DAD7EADCE01BE
:102CA00043960E948C09B601CE0149960E948C0978
:102CB0004091C3035091C4036091C5037091C60352
:102CC000CE014F960E94E80A4091C7035091C80375
:102CD0006091C9037091CA03CE0185960E94E80AEB
:102CE0004091CB035091CC036091CD037091CE0302
:102CF000CE01C1960E94E80ABE016F5C7F4FCE01F3
:102D00008B960E94D403CE018B960E94D60ABE01F8
:102D10006B5D7F4F0E9479090E94D60ABE01615EF9
:102D20007F4F0E9479090E94D60ABE01675E7F4FDD
:102D30000E9479090E94D60ABE016D5E7F4F0E94F3
:102D400079090E94D60ABE01635F7F4F0E9479090C
:102D50000E94D60ABE01695F7F4F0E9479090E94D6
:102D6000D60ABE016F5F7F4F0E947909BC018AE5D8
:102D700095E00E94B803CE018B960E94CF03CE014E
:102D8000C1960E94CF03CE0185960E94CF03CE014B
:102D90004F960E94CF03CE0149960E94CF03CE01E9
:102DA00043960E94CF03CE010D960E94CF03CE0121
:102DB00007960E94CF03CE0101960E94CF03409157
:102DC0005E0550915F0560915A0570915B0583EF38
:102DD00094E00E940B016BEB71E083EF94E00E94A2
:102DE000400420E030E040E251E46091C70370917C
:102DF000C8038091C9039091CA030E945A1D0E9482
:102E0000941F2B013C0120E030E040E251E460914E
:102E1000C3037091C4038091C5039091C6030E94BF
:102E20005A1D0E94941F4B015C01C090F203D12CEB
:102E30000091C20310E0E090C103F12C20E030E0EB
:102E400040E251E46091CB037091CC038091CD03BB
:102E50009091CE030E945A1D0E94941FCE010796A6
:102E60000E948C0962E672E0CE010D960E94DD039D
:102E7000BE01695F7F4FCE010D960E947909BC01AA
:102E8000CE0101960E94D403CE0101960E94100D3E
:102E9000CE0101960E94CF03CE010D960E94CF0372
:102EA000CE0107960E94CF03B201CE0107960E9481
:102EB0008C0962E772E0CE010D960E94DD03BE012F
:102EC000695F7F4FCE010D960E947909BC01CE014A
:102ED00001960E94D403CE0101960E94100DCE01EE
:102EE00001960E94CF03CE010D960E94CF03CE0122
:102EF00007960E94CF03B401CE0107960E948C0969
:102F000061E872E0CE010D960E94DD03BE01695FAB
:102F10007F4FCE010D960E947909BC01CE0101962A
:102F20000E94D403CE0101960E94100DCE0101969D
:102F30000E94CF03CE010D960E94CF03CE010796CB
:102F40000E94CF03B601CE0107960E948C0964E966
:102F500072E0CE010D960E94DD03BE01695F7F4FD6
:102F6000CE010D960E947909BC01CE0101960E9406
:102F7000D403CE0101960E94100DCE0101960E944D
:102F8000CF03CE010D960E94CF03CE0107960E947B
:102F9000CF03B701CE0107960E948C0968EA72E060
:102FA000CE010D960E94DD03BE01695F7F4FCE0109
:102FB0000D960E947909BC01CE0101960E94D403AE
:102FC000CE0101960E94100DCE0101960E94CF0302
:102FD000CE010D960E94CF03CE0107960E94CF032B
:102FE000B801CE0107960E948C096CEB72E0CE010D
:102FF0000D960E94DD03BE01695F7F4FCE010D96E5
:103000000E947909BC01CE0101960E94D403CE0131
:1030100001960E94100DCE0101960E94CF03CE01B1
:103020000D960E94CF03CE0107960E94CF030E9407
:103030008A0C60936005709361058093620590939C
:103040006305CE01C7960E94CF030E940D020C9427
:10305000E10F8FEC92E00E94260B61E088E00E9475
:10306000390B81E08093010100E010E0EECD892F63
:10307000992309F4B0CC8DED92E00E94260B60E01C
:1030800088E00E94390B0E94210C10920101ECCFC4
:103090001092F2030E948A0C6093F4037093F5037C
:1030A0008093F6039093F703C1CD5092ED034092C5
:1030B000EC033FCDC12CD12C76013ECBCF92DF92D9
:1030C000EF92FF92CF931092FB031092FA0398EEC7
:1030D000C92E93E0D92EE12CF12CC092FC03D092A2
:1030E000FD03E092FE03F092FF038CE291E09093E7
:1030F000F9038093F80385EC90E0909305048093A6
:10310000040484EC90E0909307048093060480EC20
:1031100090E0909309048093080481EC90E09093F0
:103120000B0480930A0482EC90E090930D0480934A
:103130000C0486EC90E090930F0480930E041092A0
:103140001104109212041092130410921404C1E09E
:10315000C093B80582E08093B9058BEE92E090931E
:10316000BB058093BA051092BD051092BC05109264
:10317000C1051092C0051092C3051092C2051092AD
:10318000BF051092BE05C093AC0583E08093AD05EA
:1031900024EF32E03093AF052093AE051092B105D5
:1031A0001092B0051092B5051092B4051092B705B3
:1031B0001092B6051092B3051092B205C093A00507
:1031C00094E09093A1052DEF32E03093A305209376
:1031D000A2051092A5051092A4051092A9051092BF
:1031E000A8051092AB051092AA051092A70510929F
:1031F000A605C093940595E09093950529E033E0EA
:103200003093970520939605109299051092980592
:1032100010929D0510929C0510929F0510929E059C
:1032200010929B0510929A05C093880597E19093A0
:10323000890523E133E030938B0520938A051092B2
:103240008D0510928C0510929105109290051092A8
:1032500093051092920510928F0510928E05C093DF
:103260007C0598E190937D052AE133E030937F055A
:1032700020937E051092810510928005109285059D
:10328000109284051092870510928605109283058E
:1032900010928205C093700599E19093710521E227
:1032A00033E03093730520937205109275051092E8
:1032B0007405109279051092780510927B05109292
:1032C0007A0510927705109276058093640580E167
:1032D0008093650588E293E0909367058093660587
:1032E000109269051092680510926D0510926C0598
:1032F00010926F0510926E0510926B0510926A0580
:103300000E948A0C6093600570936105809362054A
:10331000909363056DEB71E08AE595E00E94DD0313
:1033200080E090E0A0E2B1E48093420590934305F1
:10333000A0934405B09345058093460590934705B7
:10334000A0934805B093490540E050E060E070E488
:1033500040934A0550934B0560934C0570934D057F
:1033600080932A0590932B05A0932C05B0932D05EF
:1033700080932E0590932F05A0933005B0933105CF
:1033800040933205509333056093340570933505AF
:103390008093120590931305A0931405B09315051F
:1033A0008093160590931705A0931805B0931905FF
:1033B00080E090E0A0E0BFE380931A0590931B05A6
:1033C000A0931C05B0931D051092F6041092F5040D
:1033D000C092F704D092F804E092F904F092FA0453
:1033E0008EE391E09093F4048093F30410920A0525
:1033F0001092090510920C0510920B0510920E0503
:1034000010920D051092100510920F056091110594
:103410006E7F6D7F60931105669561706C2783E107
:103420000E94390B61E083E10E94860BEBEBF1E037
:10343000E491E0930305E7EAF1E0E491F0E0EE0FB8
:10344000FF1FE657FE4F8591949190930505809359
:10345000040560E082E10E94860B8091110581FDE8
:1034600004C061E082E10E94390B82E18093FF0495
:10347000EAEBF1E0E491E0930005E6EAF1E0E491A3
:10348000F0E0EE0FFF1FE058FE4F8591949190936E
:103490000205809301051092E7041092E80410924F
:1034A000E9041092EA041092EB041092EC041092DA
:1034B000ED041092EE041092EF041092F1041092B9
:1034C000F0041092F2041092960410929504CF9199
:1034D000FF90EF90DF90CF900895EF920F931F939E
:1034E000CF93DF93E80147FD02C034E001C034E12F
:1034F000042E000C550B57FF03C0519541955109FF
:10350000E32E022F242FAE010E94B21ACE01DF91CA
:10351000CF911F910F91EF900895BB274A3031F45E
:10352000992322F4BDE2909581959F4F0C94991AAE
:10353000BB27FB015527AA27880F991FAA1FA4178D
:1035400010F0A41B83955051B9F7A05DAA3308F081
:10355000A95DA193009779F7B111B1931192CB01B5
:103560000C94E41CA9E0B0E0E8EBFAE10C94341E02
:103570006A01122FB02E2BE3201720F0FF24F394C2
:10358000F00E02C02CE3F22E0F2D27E0AE014F5FAC
:103590005F4F0E940C1CBC014981842F89708130CF
:1035A00031F0E1FC06C0E0FE06C090E205C09DE2FD
:1035B00003C09BE201C090E05E2D507143FF3CC010
:1035C000911102C083E001C084E0811718F4212F1B
:1035D000281B01C020E051110BC0F601822F30E200
:1035E000882319F031938150FBCFC20ED11C20E00B
:1035F000992329F0D6019C93F60131966F01C601FB
:103600000396E2FE0AC03EE4D6013C9341E41196E3
:103610004C93119712963C9306C03EE6F601308318
:1036200041E641833283FC01322F40E2332309F427
:1036300042C041933150FACF42FF44C0911102C0C1
:1036400083E001C084E0811718F4212F281B01C0FA
:1036500020E051110BC0F601822F30E2882319F0CF
:1036600031938150FBCFC20ED11C20E0992329F069
:10367000D6019C93F60131966F01C6010396E2FED6
:103680000BC039E4D6013C933EE411963C9311976C
:1036900036E412963C9307C039E6F60130833EE6E5
:1036A000318336E63283FC01322F40E2332319F0B6
:1036B00041933150FBCFFC01E20FF11D10828EEFE0
:1036C0009FEFA6C021E030E0911102C020E030E081
:1036D000161617061CF4FB01319602C0E1E0F0E07B
:1036E0002E0F3F1FBB2021F0EB2DF0E0319602C0E2
:1036F000E0E0F0E02E0F3F1FE12FF0E02E173F0734
:103700001CF4121B212F01C020E08E2D887159F46A
:10371000F601822F30E2882319F031938150FBCFDC
:10372000C20ED11C20E0992329F0D6019C93F6010A
:1037300031966F0151110BC0F601822F90E388235F
:1037400019F091938150FBCFC20ED11C20E00F2DB8
:10375000060F9A81342F307144FF03C0913309F46E
:103760000150101624F4093018F008E001C001E0FF
:10377000AB0177FF02C040E050E0FB01E41BF50B1A
:10378000A1E0B0E0AC0FBD1FEA0FFB1F8EE2A82E38
:103790004B01801A91080B2D10E01195019511092C
:1037A0004F3FBFEF5B0721F4D601AC9211966D013C
:1037B000641775072CF08416950614F4818101C0F6
:1037C00080E3415051093196D60111967D01401791
:1037D000510724F0D6018C936701E2CF6417750777
:1037E00039F4963320F4953319F4311101C081E393
:1037F000F6018083F701822F90E2882319F09193DC
:103800008150FBCFF701E20FF11D108280E090E0C4
:103810002996ECE00C94501E283008F027E033275E
:10382000DA01990F311D87FD9160009661057105E0
:1038300039F432602E5F3D9330E32A95E1F7089525
:103840009F3F30F080387105610509F03C5F3C5FB7
:103850003D93913008F08068911DDF93CF931F93C3
:103860000F93FF92EF92192F987F9695E92F9695D7
:103870009695E90FFF27EE53FF4F99273327EE2444
:10388000FF24A701E70105900894079428F4360F58
:10389000E71EF81E491F511D660F771F881F991FCD
:1038A0000694A1F70590079428F4E70EF81E491F27
:1038B000561FC11D770F881F991F661F0694A1F719
:1038C0000590079428F4F80E491F561FC71FD11DF5
:1038D000880F991F661F771F0694A1F7059007941C
:1038E00020F4490F561FC71FD81F990F661F771F57
:1038F000881F0694A9F784911095177041F0D6950A
:10390000C79557954795F794E7941A95C1F7E8E658
:10391000F0E0689415901591359165919591059019
:103920007FE27395E118F10A430B560BC90BD009DE
:10393000C0F7E10CF11E431F561FC91FD01D7EF4B6
:10394000703311F48A95E6CFE894015030F0080FF7
:103950000AF40027021708F4202F2395022F7A3348
:1039600028F079E37D932A95E9F710C07D932A9595
:1039700089F6069497956795379517951794E118EA
:10398000F10A430B560BC90BD00998F023957E9191
:1039900073957A3308F070E37C932013B8F77E9127
:1039A00070617D9330F0839571E37D9370E32A9588
:1039B000E1F71124EF90FF900F911F91CF91DF91CC
:1039C000992787FD90950895DC01FC01672F71917F
:1039D0007723E1F7329704C07C916D9370836291F5
:1039E000AE17BF07C8F308950E94361D08F481E0A2
:1039F0000895E89409C097FB3EF4909580957095E2
:103A000061957F4F8F4F9F4F9923A9F0F92F96E92A
:103A1000BB279395F695879577956795B795F1119F
:103A2000F8CFFAF4BB0F11F460FF1BC06F5F7F4F3C
:103A30008F4F9F4F16C0882311F096E911C077234E
:103A400021F09EE8872F762F05C0662371F096E857
:103A5000862F70E060E02AF09A95660F771F881F26
:103A6000DAF7880F9695879597F90895990F0008CA
:103A7000550FAA0BE0E8FEEF16161706E807F90740
:103A8000C0F012161306E407F50798F0621B730BDB
:103A9000840B950B39F40A2661F0232B242B252B5C
:103AA00021F408950A2609F4A140A6958FEF811DFF
:103AB000811D08950E946D1D0C94DE1D0E94D01D75
:103AC00038F00E94D71D20F0952311F00C94C71DEB
:103AD0000C94CD1D11240C94121E0E94EF1D70F346
:103AE000959FC1F3950F50E0551F629FF001729FA3
:103AF000BB27F00DB11D639FAA27F00DB11DAA1FB2
:103B0000649F6627B00DA11D661F829F2227B00DFE
:103B1000A11D621F739FB00DA11D621F839FA00D89
:103B2000611D221F749F3327A00D611D231F849FD9
:103B3000600D211D822F762F6A2F11249F57504030
:103B40009AF0F1F088234AF0EE0FFF1FBB1F661FAB
:103B5000771F881F91505040A9F79E3F510580F074
:103B60000C94C71D0C94121E5F3FE4F3983ED4F3EF
:103B7000869577956795B795F795E7959F5FC1F718
:103B8000FE2B880F911D9695879597F9089597F9C3
:103B90009F6780E870E060E008959FEF80EC0895F3
:103BA00000240A941616170618060906089500241C
:103BB0000A9412161306140605060895092E039496
:103BC000000C11F4882352F0BB0F40F4BF2B11F40A
:103BD00060FF04C06F5F7F4F8F4F9F4F089557FD69
:103BE0009058440F551F59F05F3F71F04795880F6B
:103BF00097FB991F61F09F3F79F087950895121602
:103C000013061406551FF2CF4695F1DF08C01616AD
:103C100017061806991FF1CF86957105610508945E
:103C20000895E894BB2766277727CB0197F9089575
:103C3000F999FECF92BD81BDF89A992780B5089574
:103C4000262FF999FECF1FBA92BD81BD20BD0FB6B8
:103C5000F894FA9AF99A0FBE019608952F923F921E
:103C60004F925F926F927F928F929F92AF92BF928C
:103C7000CF92DF92EF92FF920F931F93CF93DF9338
:103C8000CDB7DEB7CA1BDB0B0FB6F894DEBF0FBE95
:103C9000CDBF09942A88398848885F846E847D84E2
:103CA0008C849B84AA84B984C884DF80EE80FD80E4
:103CB0000C811B81AA81B981CE0FD11D0FB6F8945A
:103CC000DEBF0FBECDBFED01089597FB072E16F4A2
:103CD000009407D077FD09D00E949B1E07FC05D0F9
:103CE0003EF4909581959F4F0895709561957F4F13
:103CF0000895A1E21A2EAA1BBB1BFD010DC0AA1F2D
:103D0000BB1FEE1FFF1FA217B307E407F50720F044
:103D1000A21BB30BE40BF50B661F771F881F991FBF
:103D20001A9469F760957095809590959B01AC0108
:103D3000BD01CF010895AA1BBB1B51E107C0AA1FFB
:103D4000BB1FA617B70710F0A61BB70B881F991F3C
:103D50005A95A9F780959095BC01CD010895EE0F75
:103D6000FF1F0590F491E02D09945058BB27AA2716
:103D70000E94CD1E0C94DE1D0E94D01D38F00E94C2
:103D8000D71D20F039F49F3F19F426F40C94CD1D73
:103D90000EF4E095E7FB0C94C71DE92F0E94EF1D80
:103DA00058F3BA17620773078407950720F079F470
:103DB000A6F50C94111E0EF4E0950B2EBA2FA02D33
:103DC0000B01B90190010C01CA01A0011124FF27C8
:103DD000591B99F0593F50F4503E68F11A16F040C3
:103DE000A22F232F342F4427585FF3CF46953795C2
:103DF0002795A795F0405395C9F77EF41F16BA0B87
:103E0000620B730B840BBAF09150A1F0FF0FBB1F34
:103E1000661F771F881FC2F70EC0BA0F621F731F7D
:103E2000841F48F4879577956795B795F7959E3FDA
:103E300008F0B0CF9395880F08F09927EE0F97956B
:103E4000879508950E94361F0C94DE1D0E94D71D91
:103E500058F00E94D01D40F029F45F3F29F00C94E7
:103E6000C71D51110C94121E0C94CD1D0E94EF1D04
:103E700068F39923B1F3552391F3951B550BBB2799
:103E8000AA2762177307840738F09F5F5F4F220FDE
:103E9000331F441FAA1FA9F335D00E2E3AF0E0E8D5
:103EA00032D091505040E695001CCAF72BD0FE2F1F
:103EB00029D0660F771F881FBB1F261737074807B3
:103EC000AB07B0E809F0BB0B802DBF01FF2793586B
:103ED0005F4F3AF09E3F510578F00C94C71D0C944B
:103EE000121E5F3FE4F3983ED4F38695779567956D
:103EF000B795F7959F5FC9F7880F911D96958795A0
:103F000097F90895E1E0660F771F881FBB1F6217BE
:103F100073078407BA0720F0621B730B840BBA0B7C
:103F2000EE1F88F7E09508950E949B1F6894B111D9
:103F30000C94121E08950E94F71D88F09F5798F068
:103F4000B92F9927B751B0F0E1F0660F771F881F9E
:103F5000991F1AF0BA95C9F714C0B13091F00E94B8
:103F6000111EB1E008950C94111E672F782F882739
:103F7000B85F39F0B93FCCF3869577956795B395DF
:103F8000D9F73EF490958095709561957F4F8F4F4E
:103F90009F4F08950E94361D08F48FEF08950E94E8
:103FA000361D880B990B08950F931F93CF93DF93C2
:103FB0008230910510F482E090E0E091C705F09125
:103FC000C80520E030E0A0E0B0E0309719F1408172
:103FD00051810281138148175907C8F0841795074A
:103FE00069F4109731F012960C93129713961C9364
:103FF00027C00093C7051093C80522C021153105BD
:1040000019F04217530718F49A01BD01EF01DF01BF
:10401000F801DBCF21153105F9F0281B390B2430CD
:10402000310580F48A819B816115710521F0FB01C6
:104030009383828304C09093C8058093C705FE01D3
:10404000329644C0FE01E20FF31F819391932250F8
:104050003109398328833AC02091C5053091C605BE
:10406000232B41F420912401309125013093C60582
:104070002093C5052091220130912301211531059E
:1040800041F42DB73EB74091260150912701241BE2
:10409000350BE091C505F091C605E217F307A0F4D2
:1040A0002E1B3F0B2817390778F0AC014E5F5F4F8E
:1040B0002417350748F04E0F5F1F5093C6054093F5
:1040C000C5058193919302C0E0E0F0E0CF01DF915C
:1040D000CF911F910F910895CF93DF93009709F42B
:1040E00081C0FC01329713821282A091C705B09162
:1040F000C805109781F420813181820F931F209190
:10410000C5053091C6052817390751F5F093C60546
:10411000E093C50567C0ED0120E030E0CE17DF0772
:1041200040F44A815B819E0141155105F1F0EA019D
:10413000F5CFD383C28340815181840F951FC81767
:10414000D90759F488819981840F951F029691832C
:1041500080838A819B81938382832115310529F491
:10416000F093C805E093C7053DC0E901FB83EA83EE
:1041700049915991C40FD51FEC17FD0761F4808157
:104180009181840F951F0296E9019983888382812A
:1041900093819B838A83E0E0F0E012968D919C915D
:1041A0001397009719F0FD01DC01F7CF8D919C91D9
:1041B00011979D012E5F3F4F820F931F2091C505E0
:1041C0003091C6052817390769F4309729F4109201
:1041D000C8051092C70502C013821282B093C605AB
:1041E000A093C505DF91CF910895A0E0B0E0EBEF7B
:1041F000F0E20C94321EEC01009721F4CB010E94F6
:10420000D41FB4C0FC01E60FF71F9C0122503109F6
:10421000E217F30708F4A8C0D9010D911C9111977A
:1042200006171707B0F00530110508F49BC0C80148
:1042300004978617970708F495C002501109061BCA
:10424000170B019311936D937C93CF010E946C2007
:1042500089C05B01A01AB10A4C01800E911EA09189
:10426000C705B091C805612C712CE12CF12C109779
:1042700009F446C08D919C911197A815B905B1F527
:104280006C0142E0C40ED11CCA14DB0478F14C016D
:104290008A189B08640142E0C40ED11C1296BC909F
:1042A00012971396AC91B5E0CB16D10440F0B282D0
:1042B000A38391828082D9016D937C9309C00E5FA4
:1042C0001F4F800F911FF90191838083EB2DFA2FEF
:1042D000E114F10431F0D7011396FC93EE93129799
:1042E00041C0F093C805E093C7053CC06816790645
:1042F00008F43C017D0112960D90BC91A02DB7CF22
:104300008091C5059091C60588169906E1F4661658
:104310007706C8F48091220190912301009741F41F
:104320008DB79EB74091260150912701841B950BB4
:10433000E817F907C8F4F093C605E093C505F9013D
:10434000718360830FC0CB010E94D41F7C01009752
:1043500059F0A801BE010E94C021CE010E946C202C
:10436000C70104C0CE0102C080E090E0CDB7DEB747
:10437000EEE00C944E1E81E090E0F8940C94D02175
:10438000FB01DC0102C001900D9241505040D8F772
:104390000895FB01DC0101900D920020E1F70895E2
:1043A00010E0CFEDD0E004C0FE010E94AF1E2196C8
:0A43B000C03ED107C9F7F894FFCF13
:1043BA006501000034439A99993E3333333F000034
:1043CA00D040000070425C8FA2410000E1430A0124
:1043DA000A010000C9052000000000009E010B012F
:1043EA003501EB016601440158010000000030026A
:1043FA000B01BA022F028002980217026765742025
:10440A00002E76616C0050504D3A200050504C3AC4
:10441A0020004D616368696E6557696474683A2063
:10442A00004C6974657250657248613A2000507296
:10443A006F706F7274696F6E616C3A2000496E74A6
:10444A0065677261746976653A20004465726976B7
:10445A0061746976653A200043616C6962726174BD
:10446A00696F6E2073746F726564000D0A004D6186
:10447A00696E2E50504C2E76616C3D004D61696E0E
:10448A002E50504D2E76616C3D004D61696E2E4C5A
:10449A005048612E76616C3D004D61696E2E6D57F4
:1044AA00696474682E76616C3D004D61696E2E50A8
:1044BA002E76616C3D004D61696E2E492E76616CD7
:1044CA003D004D61696E2E442E76616C3D00626B33
:1044DA00636D643D300070616765204D61696E00EF
:1044EA004F6B20454550524F4D204B657900626B0A
:1044FA00636D643D310070616765203000696E69E3
:10450A007469616C697A6174696F6E20646F6E6533
:10451A002E004D61696E2E73706565642E76616C2E
:10452A003D004D61696E2E666C75782E76616C3D24
:10453A00004D61696E2E736574506F696E742E76C4
:10454A00616C3D004D61696E2E73746162696C69BC
:10455A0074792E76616C3D004D61696E2E636F6EC3
:10456A007453746174652E76616C3D004D61696E99
:10457A002E73696D53746174652E76616C3D004FBC
:10458A0070656E696E672056616C766500436C6F64
:10459A0073696E672056616C7665004D61696E2E8F
:1045AA0050504D004D61696E2E50504C004D61695E
:1045BA006E2E6D5769647468004D61696E2E4C5099
:1045CA004861004D61696E2E50004D61696E2E4939
:1045DA00004D61696E2E440044656275672E7369E9
:1045EA006D5370656564006E616E00696E66006F7A
:0645FA007666002C200093
:00000001FF
