:100000000C9411030C948B170C9464170C94390303
:100010000C9439030C9439030C9439030C94390370
:100020000C9439030C9439030C9439030C94390360
:100030000C9439030C9439030C9439030C94390350
:100040000C941A170C9439030C940E070C94E806C0
:100050000C9439030C9439030C9439030C94390330
:100060000C9439030C9439034E414E494E4954596E
:10007000494E46CDCCCC3D0AD7233C17B7D1387773
:10008000CC2B329595E6241FB14F0A000020410089
:1000900000C84200401C4620BCBE4CCA1B0E5AAED3
:1000A000C59D742C20002C20002C20002C20002C1E
:1000B00020002C20002C200000000000240027003D
:1000C0002A0000000000250028002B00000000008E
:1000D000230026002900040404040404040402028A
:1000E00002020202030303030303010204081020B7
:1000F00040800102040810200102040810200000C2
:1001000000080002010000030407000000000000D6
:10011000000000000000003E5B4F5B3E3E6B4F6BFB
:100120003E1C3E7C3E1C183C7E3C181C577D571CD8
:100130001C5E7F5E1C00183C1800FFE7C3E7FF0051
:1001400018241800FFE7DBE7FF30483A060E26299F
:10015000792926407F050507407F05253F5A3CE762
:100160003C5A7F3E1C1C08081C1C3E7F14227F2228
:10017000145F5F005F5F06097F017F006689956AF3
:10018000606060606094A2FFA29408047E0408107E
:10019000207E201008082A1C08081C2A08081E10A7
:1001A0001010100C1E0C1E0C30383E3830060E3E5F
:1001B0000E06000000000000005F000000070007BE
:1001C00000147F147F14242A7F2A122313086462E8
:1001D00036495620500008070300001C2241000049
:1001E00041221C002A1C7F1C2A08083E08080080A7
:1001F000703000080808080800006060002010083F
:1002000004023E5149453E00427F4000724949493F
:10021000462141494D331814127F10274545453971
:100220003C4A494931412111090736494949364675
:100230004949291E00001400000040340000000855
:1002400014224114141414140041221408020159F8
:1002500009063E415D594E7C1211127C7F49494985
:10026000363E414141227F4141413E7F494949411A
:100270007F090909013E414151737F0808087F0049
:10028000417F41002040413F017F081422417F40CF
:100290004040407F021C027F7F0408107F3E4141A6
:1002A000413E7F090909063E4151215E7F09192916
:1002B00046264949493203017F01033F4040403F00
:1002C0001F2040201F3F4038403F63140814630341
:1002D000047804036159494D43007F4141410204C0
:1002E000081020004141417F0402010204404040C7
:1002F0004040000307080020545478407F284444BD
:10030000383844444428384444287F3854545418D6
:1003100000087E090218A4A49C787F0804047800D1
:10032000447D40002040403D007F102844000041B3
:100330007F40007C047804787C08040478384444C6
:100340004438FC1824241818242418FC7C080404BD
:1003500008485454542404043F44243C4040207C26
:100360001C2040201C3C4030403C44281028444C79
:100370009090907C4464544C440008364100000046
:10038000770000004136080002010204023C2623E7
:10039000263C1EA1A161123A4040207A385454559F
:1003A000592155557941215454784121555478406B
:1003B00020545579400C1E527212395555555939F1
:1003C0005454545939555454580000457C41000246
:1003D000457D420001457C40F0292429F0F0282584
:1003E00028F07C545545002054547C547C0A097FE5
:1003F0004932494949323248484832324A484830FD
:100400003A4141217A3A42402078009DA0A07D39AE
:10041000444444393D4040403D3C24FF2424487E30
:100420004943662B2FFC2F2BFF0929F620C0887E1D
:10043000090320545479410000447D413048484A22
:1004400032384040227A007A0A0A727D0D19317DD5
:100450002629292F28262929292630484D402038A9
:100460000808080808080808382F10C8ACBA2F1068
:100470002834FA00007B000008142A142222142ACF
:100480001408AA005500AAAA55AA55AA000000FF00
:1004900000101010FF00141414FF001010FF00FFD4
:1004A0001010F010F0141414FC001414F700FF00E6
:1004B00000FF00FF1414F404FC141417101F101094
:1004C0001F101F1414141F00101010F00000000063
:1004D0001F101010101F10101010F010000000FF5F
:1004E000101010101010101010FF10000000FF145A
:1004F0000000FF00FF00001F10170000FC04F414B0
:10050000141710171414F404F40000FF00F7141467
:100510001414141414F700F7141414171410101FE3
:10052000101F141414F4141010F010F000001F1019
:100530001F0000001F14000000FC140000F010F069
:100540001010FF10FF141414FF141010101F0000DF
:100550000000F010FFFFFFFFFFF0F0F0F0F0FFFFF2
:10056000FF0000000000FFFF0F0F0F0F0F38444483
:1005700038447C2A2A3E147E02020606027E027E4F
:100580000263554941633844443C04407E201E20A8
:1005900006027E020299A5E7A5991C2A492A1C4C4D
:1005A0007201724C304A4D4D303048784830BC6250
:1005B0005A463D3E494949007E0101017E2A2A2AC8
:1005C0002A2A44445F444440514A444040444A51EA
:1005D000400000FF0103E080FF000008086B6B088B
:1005E0003612362436060F090F06000018180000D0
:1005F000001010003040FF0101001F01011E001912
:100600001D1712003C3C3C3C00000000007C3C3EBE
:100610005E2B3D3F2F5B5D3B2C2A225C00006B264E
:100620005C2611241FBECFEFD8E0DEBFCDBF26E091
:10063000AEEDB2E001C01D92A53DB207E1F712E0B8
:10064000A0E0B1E0EEE6FBE502C005900D92AE3D04
:10065000B107D9F713E0C0E1D3E004C02197FE0150
:100660000E947C2BCF30D107C9F70E94691A0C94E5
:10067000AA2D0C940000FC01538D448D252F30E0F1
:10068000842F90E0821B930B541710F0CF9608959F
:1006900001970895FC01918D828D981761F0828DEC
:1006A000DF01A80FB11D5D968C91928D9F5F9F73A6
:1006B000928F90E008958FEF9FEF0895FC01918D48
:1006C000828D981731F0828DE80FF11D858D90E0B5
:1006D00008958FEF9FEF0895FC01918D228D892F52
:1006E00090E0805C9F4F821B91098F73992708953A
:1006F0008AE995E00E946C0321E0892B09F420E04F
:10070000822F0895FC01848DDF01A80FB11DA35A2B
:10071000BF4F2C91848D90E001968F739927848F21
:10072000A689B7892C93A089B1898C9180648C9318
:10073000938D848D981306C00288F389E02D808103
:100740008F7D80830895EF92FF920F931F93CF9335
:10075000DF93EC0181E0888F9B8D8C8D981305C011
:10076000E889F989808185FD24C0F62E0B8D10E083
:100770000F5F1F4F0F731127E02E8C8DE8120CC0F6
:100780000FB607FCFACFE889F989808185FFF5CF9C
:10079000CE010E948203F1CF8B8DFE01E80FF11D87
:1007A000E35AFF4FF0820B8FEA89FB8980818062D8
:1007B00007C0EE89FF896083E889F98980818064B8
:1007C000808381E090E0DF91CF911F910F91FF90A6
:1007D000EF900895CF93DF93EC01888D8823C9F0C3
:1007E000EA89FB89808185FD05C0A889B9898C913A
:1007F00086FD0FC00FB607FCF5CF808185FFF2CFD5
:10080000A889B9898C9185FFEDCFCE010E94820322
:10081000E7CFDF91CF91089580E090E0892B29F018
:100820000E94780381110C9400000895EF92FF92CA
:100830000F931F93CF938C017A01C62F6C2F70E01A
:100840006E157F0554F4D801ED91FC91048CF58D63
:10085000E02DC8010995CF5FF1CFCF911F910F9186
:10086000FF90EF900895CF93DF93FC0177FD38C0A0
:10087000C085D1856C177D079CF557FD31C08285F9
:1008800093854817590764F5A38DB48D109741F1EE
:10089000CA0157FD0796E3E095958795EA95E1F73C
:1008A0008C9FF0018D9FF00D11246E0F7F1FFD01B5
:1008B000E60FF71FC081CA0168E070E00E94322B8A
:1008C00041E050E0BA0102C0660F771F8A95E2F757
:1008D000CB01232B11F08C2B02C080958C238083BD
:1008E000DF91CF910895DC015996ED91FC915A97D3
:1008F0003097B9F083899489A589B6894285538553
:1009000064857585841B950BA60BB70B811520E8B4
:100910009207A105B10538F08FEF9FE7A0E0B0E0A6
:10092000089580E090E00895CF93DF931F92CDB7B4
:10093000DEB76983DC01ED91FC910280F381E02D4B
:1009400041E050E0BE016F5F7F4F09950F90DF914E
:10095000CF910895089580E090E008958091DE029F
:100960009091DF02A091E002B091E1020196A11DF9
:10097000B11D8093DE029093DF02A093E002B0935A
:10098000E10208950E94792DCF93DF93EC0160E09E
:10099000898D0E94E41560E08F890E94E41561E072
:1009A000898D0E94E41561E08F89DF91CF910C94CD
:1009B000E415CF93DF93EC0161E0898D0E94E4158B
:1009C00061E08F890E94E41560E08F890E94E41540
:1009D00060E0898DDF91CF910C94E415EF92FF9246
:1009E0000F931F93CF93DF93EC0100E010E0E62E0E
:1009F000F12CC701002E01C0880F0A94EAF787FF87
:100A000002C061E001C060E08F890E94E41561E0EE
:100A1000898D0E94E41560E0898D0E94E4150F5FC6
:100A20001F4F0830110529F761E08F890E94E415F6
:100A300061E0898D0E94E41560E0898DDF91CF919E
:100A40001F910F91FF90EF900C94E415CF93DF93DB
:100A5000EC010E94D90468E7CE010E94EE0460E434
:100A6000CE01DF91CF910C94EE04EF92FF920F93A1
:100A70001F93CF93DF938B016830710508F043C05B
:100A8000FC01238D348D232BF1F1EC010E94D9045C
:100A900068E7CE010E94EE0460E0CE010E94EE0401
:100AA00060EB600FCE010E94EE0460E1CE010E9477
:100AB000EE0461E0CE010E94EE04CE010E94C40467
:100AC000CE010E9426051695102F00271795079531
:100AD0007801F0E8EF0EF11C0E151F0559F0EB8DB3
:100AE000FC8DE00FF11F6081CE010E94EE040F5FCC
:100AF0001F4FF2CFCE01DF91CF911F910F91FF9049
:100B0000EF900C94C404DF91CF911F910F91FF904F
:100B1000EF9008951F93CF93DF93EC01162F0E945F
:100B2000D90468E7CE010E94EE0460E0CE010E9485
:100B3000EE04612FCE010E94EE04CE01DF91CF9131
:100B40001F910C94C404AF92BF92CF92DF92FF9298
:100B50000F931F93CF93DF938C01C0E0D0E080EB25
:100B6000F82E6F2DC8010E948A0560E0C8010E941E
:100B70008A0560E1C8010E948A05C8010E94260515
:100B80006E0180E8C80ED11CCC15DD0579F05E0140
:100B9000EFEFAE1ABE0AF801838D948DC80FD91FEE
:100BA0006881C8010E94EE04E501EECFC8010E94F1
:100BB000C404F394C115F4E0DF0799F6DF91CF91F7
:100BC0001F910F91FF90DF90CF90BF90AF9008954D
:100BD000CF93DF93EC0161E08F890E94141661E0EE
:100BE000898D0E94141680E094E00E94822B9C8FD5
:100BF0008B8F009709F478C020E034E0FC01A90154
:100C0000119241505040E1F76EEACE010E948A05F0
:100C100060E0CE010E948A0560E1CE010E948A0553
:100C200060E4CE010E948A0560EBCE010E948A0535
:100C300061E8CE010E948A056FECCE010E948A0510
:100C400061EACE010E948A0566EACE010E948A0509
:100C500068EACE010E948A056FE3CE010E948A05F0
:100C600068ECCE010E948A0563EDCE010E948A05E0
:100C700060E0CE010E948A0565EDCE010E948A05E2
:100C800060E8CE010E948A0569EDCE010E948A05C6
:100C900061EFCE010E948A056AEDCE010E948A05AD
:100CA00062E1CE010E948A056BEDCE010E948A05A9
:100CB00060E4CE010E948A056DE8CE010E948A059B
:100CC00064E1CE010E948A056FEACE010E948A0586
:100CD0006FEACE010E948A056AE070E080E090E051
:100CE0000E94D41681E001C080E0DF91CF91089589
:100CF0000E94AF162091840330918503621B730B11
:100D00007093E3026093E2028091E2029091E30229
:100D100097FF0BC08091E2029091E302919581953B
:100D200091099093E3028093E2020E94AF166093D0
:100D300084037093850380938603909387030895BB
:100D40000F931F930E94AF160091800310918103AF
:100D50002091820330918303DC01CB01801B910B36
:100D6000A20BB30B8093E4029093E502A093E602FA
:100D7000B093E7028091E4029091E502A091E6022F
:100D8000B091E702B7FF17C08091E4029091E502AD
:100D9000A091E602B091E702B095A095909581955B
:100DA0009F4FAF4FBF4F8093E4029093E502A09313
:100DB000E602B093E7020E94AF166093800370933F
:100DC000810380938203909383031F910F91089571
:100DD0001F920F920FB60F9211242F933F934F93B0
:100DE0005F936F937F938F939F93AF93BF93EF9393
:100DF000FF938AE995E00E948203FF91EF91BF91F2
:100E0000AF919F918F917F916F915F914F913F91A2
:100E10002F910F900FBE0F901F9018951F920F9259
:100E20000FB60F9211242F938F939F93EF93FF93FD
:100E3000E091AA05F091AB058081E091B005F091B9
:100E4000B10582FD12C090818091B3058F5F8F73D1
:100E50002091B405821751F0E091B305F0E0E65619
:100E6000FA4F958F8093B30501C08081FF91EF9178
:100E70009F918F912F910F900FBE0F901F901895FB
:100E80008FB7F894809189038FBF089561E0FC01CA
:100E900084810E94E4158091880381111092880357
:100EA00008958EBD00000DB407FEFDCF8EB50895E8
:100EB0008FEF0C9451070F931F93CF93DF93EB01A8
:100EC0000E940E178B010E9458078F3F49F00E9425
:100ED0000E17601B710B6C177D07A8F380E001C033
:100EE00081E0DF91CF911F910F910895CF93DF9310
:100EF000EC018E81882389F08F8198859C012F5F7A
:100F00003F4F38872F838230924018F40E94580751
:100F1000F3CFCE010E9446071E82DF91CF91089544
:100F20008CBD9DBD0895CF93DF93EC018091880324
:100F3000811109C081E080938803809137069091E8
:100F400038060E94900760E08C81DF91CF910C946D
:100F5000E415CF92DF92FF920F931F93CF93DF930D
:100F600000D000D0CDB7DEB76C01F62E29833A83CE
:100F70004B835C830E947607C6010E9493076CE254
:100F800071E0C6010E945B078F2D80640E945107AB
:100F900008E110E05C814B813A812981DA01C901C5
:100FA000002E04C0B695A795979587950A94D2F719
:100FB00029833A834B835C830E94510708501109AF
:100FC00029813A814B815C81083F8FEF180731F707
:100FD000FF2029F0E8E0FE1204C087E803C085E99D
:100FE00001C08FEF0E94510710E00E945807F601E0
:100FF000828787FF04C01F3F11F01F5FF6CF0F905D
:101000000F900F900F90DF91CF911F910F91FF9054
:10101000DF90CF900895AF92BF92CF92DF92EF9280
:10102000FF920F931F93CF93DF93EC016901C801E7
:10103000820F931F8130924008F070C08E81882308
:1010400071F088819981AA81BB81481759076A0785
:101050007B0729F48F819885C816D906B0F5488397
:1010600059836A837B838B85833039F089E0440F11
:10107000551F661F771F8A95D1F79A01AB0161E171
:10108000CE010E94A907882319F083E08D8346C012
:101090000E940E175B010E9458078A878F3F49F410
:1010A0000E940E176A197B096D327140A0F38FE020
:1010B00003C08E3F31F08DE08D83CE010E94460744
:1010C0002DC018861F8281E08E838F8198858C15B4
:1010D0009D0540F40E9458078F8198850196988756
:1010E0008F83F3CF6701E00EF11ECE14DF0431F0E1
:1010F0000E945807F60181936F01F7CF8F81988581
:10110000080F191F18870F838985882319F0011587
:10111000124048F0CE010E94760705C0CE010E9421
:10112000460780E001C081E0DF91CF911F910F91D0
:10113000FF90EF90DF90CF90BF90AF900895EF9227
:10114000FF920F931F93CF93DF93EC017901411529
:1011500051056105710511F482E13CC08B85833036
:1011600039F089E0440F551F661F771F8A95D1F724
:101170009A01AB0168E1CE010E94A907882311F012
:1011800084E028C08EEF0E94510787018EEFF81A85
:10119000F80181918F010E9451070E151F05C1F7BB
:1011A0008FEF0E9451078FEF0E9451070E9458074E
:1011B0008A878F71853031F081E18D83CE010E9465
:1011C000460709C068E572E0CE010E945B07811105
:1011D00007C085E18D83CE010E94460780E013C0E1
:1011E00020E030E0A9016DE0CE010E94A907811145
:1011F00004C00E945807882311F084E1EBCFCE0190
:101200000E94460781E0DF91CF911F910F91FF90DF
:10121000EF900895809190038823A9F140911401E3
:101220005091150160911601709117012AE933E080
:1012300080918E0390918F030E949F08811102C0BC
:1012400080E0089540918A0350918B0360918C0354
:1012500070918D03411551056105710591F02AE9E1
:1012600033E080918E0390918F030E949F08882322
:1012700039F310928A0310928B0310928C03109210
:101280008D031092900381E008958F929F92AF9208
:10129000BF92EF92FF920F931F93CF934B015C018C
:1012A000C42F8091140190911501A0911601B09165
:1012B000170188159905AA05BB0501F10E940A09C5
:1012C000811102C080E020C08AE9E82E83E0F82E78
:1012D00000E012E020E030E0B501A40180918E032F
:1012E00090918F030E940B08882361F38092140170
:1012F00090921501A0921601B0921701809190036F
:10130000C82BC093900381E0CF911F910F91FF9064
:10131000EF90BF90AF909F908F9008954F925F9203
:101320006F927F928F929F92AF92BF92CF92DF92F5
:10133000EF92FF920F931F93CF93DF93EC016A011B
:101340007B0128013901423051056105710510F416
:1013500080E073C089859A85AB85BC850196A11D07
:10136000B11D84179507A607B70790F38B889C8853
:10137000AD88BE888F89803129F4BB27AF2D9E2D83
:101380008D2D09C0DB01CA0147E0B695A795979559
:1013900087954A95D1F7880E991EAA1EBB1E80918B
:1013A000140190911501A0911601B09117018816B2
:1013B0009906AA06BB0679F48F898031A1F4DD2451
:1013C000EE24FF24C601880F991FFC01E656FC4F4E
:1013D0005182408219C040E0C501B4010E94450914
:1013E0008111EACFB5CFE894C7F8DD24EE24FF24BD
:1013F000C601880F991F880F991FFC01E656FC4F04
:1014000040825182628273828091900381608093D6
:1014100090038A89823080F08D819E81AF81B8856A
:10142000880E991EAA1EBB1E80928A0390928B037F
:10143000A0928C03B0928D0381E0DF91CF911F9138
:101440000F91FF90EF90DF90CF90BF90AF909F9063
:101450008F907F906F905F904F9008958F929F92A2
:10146000AF92BF92CF92DF92EF92FF920F931F93B2
:10147000CF93DF93FC0181859285A385B485019686
:10148000A11DB11D84179507A607B70710F480E0CA
:101490005CC083899489A589B689C789C03129F43C
:1014A000852E962EA72EBB2409C04A015B01C7E0FA
:1014B000B694A79497948794CA95D1F7E9016A01E5
:1014C0007B018F01BC01CD01680D791D8A1D9B1D1B
:1014D0008090140190901501A0901601B090170112
:1014E000681579058A059B0599F4F801878980318B
:1014F000A9F4B701A601552766277727440F551F82
:10150000FA01E656FC4F80819181A0E0B0E018C05E
:1015100040E00E9445098111E8CFB9CFB701A6018B
:101520004F77552766277727440F551F440F551FC0
:10153000FA01E656FC4F80819181A281B381BF7090
:1015400088839983AA83BB8381E0DF91CF911F9128
:101550000F91FF90EF90DF90CF90BF90AF909F9052
:101560008F9008954F925F926F927F92AF92BF9249
:10157000CF92DF92EF92FF920F931F93CF93DF935F
:1015800000D000D0CDB7DEB78C0149835A836B837E
:101590007C835901C12CD12C7601412C82E0582E3C
:1015A000612C712C49815A816B817C819E012F5F56
:1015B0003F4FC8010E942E0A882351F1D301C20176
:1015C000F801058404C0880F991FAA1FBB1F0A9445
:1015D000D2F7C80ED91EEA1EFB1E49815A816B81C3
:1015E0007C818789803129F088EF9FEFAFEFBFE0E2
:1015F00004C088EF9FEFA0E0B0E0481759076A07E2
:101600007B0780F2F501C082D182E282F38281E021
:101610000F900F900F900F90DF91CF911F910F912E
:10162000FF90EF90DF90CF90BF90AF907F906F9042
:101630005F904F9008958F929F92AF92BF92CF92FA
:10164000DF92EF92FF920F931F93CF93DF93EC0102
:101650008D81811102C080E077C00B891C892D89A2
:101660003E890417150726073707A8F36A017B018F
:10167000823029F4CA86DB86EC86FD860DC0C11453
:10168000D104E104F10451F41E821F8218861986E8
:101690001A861B861C861D8681E056C08A849B8420
:1016A000AC84BD84EB8DFC8D258530E0275F3F4FFA
:1016B000B501A4014150510961097109022E04C00C
:1016C00076956795579547950A94D2F7D701C60145
:1016D0000197A109B10904C0B695A795979587957B
:1016E0002A95D2F784179507A607B70720F089280F
:1016F0008A288B2849F44F89588D698D7A8D4E83BD
:101700005F836887798704C0841B950BA60BB70B92
:101710004C015D018E010A5F1F4F81149104A104E9
:10172000B10409F4A7CF4E815F816885798598015E
:101730008B8D9C8D0E942E0A91E0891A9108A10838
:10174000B1088111EACF87CFDF91CF911F910F911F
:10175000FF90EF90DF90CF90BF90AF909F908F90D1
:1017600008953F924F925F926F927F928F929F92D5
:10177000AF92BF92CF92DF92EF92FF920F931F939F
:10178000CF93DF93CDB7DEB72C970FB6F894DEBFBB
:101790000FBECDBF5C01DC015B968D909C905C9789
:1017A0001696CD90DD90ED90FC901997C114D10460
:1017B000E104F10439F0BFEFCB1ADB0AEB0AFB0AB4
:1017C000312C07C0F401C080D180E280F380332443
:1017D0003394F40181859285A385B4859C01AD0184
:1017E0002F5F3F4F4F4F5F4F29873A874B875C876B
:1017F000260137011D821E821F821886F401818511
:101800009285A385B4852D813E814F815885281707
:1018100039074A075B0708F063C089859A85AB855D
:10182000BC858C159D05AE05BF0550F482E0C82E21
:10183000D12CE12CF12C92E0492E512C612C712CF1
:101840009E012F5F3F4FB701A601C4010E942E0ADF
:10185000882309F445C089819A81AB81BC81892B99
:101860008A2B8B2B41F0260137019FEF491A590A29
:10187000690A790A05C0C414D504E604F70491F096
:101880002D813E814F8158852F5F3F4F4F4F5F4FD6
:101890002D833E834F8358873FEFC31AD30AE30A51
:1018A000F30AACCF0FEF1FEF2FEF3FE0B301A20120
:1018B000C4010E948E09882399F0D50116964D9196
:1018C0005D916D917C9119974115510561057105E7
:1018D00049F093018201C4010E948E09811102C066
:1018E00080E02AC0D50116964D925D926D927C9251
:1018F0001997332051F0D301C2010196A11DB11DEA
:10190000F40180839183A283B383F5018789908D4D
:10191000A18DB28D892B8A2B8B2B69F4D50157961B
:101920004D925D926D927C925A9714968C91149779
:10193000806814968C9381E02C960FB6F894DEBFE5
:101940000FBECDBFDF91CF911F910F91FF90EF9010
:10195000DF90CF90BF90AF909F908F907F906F90CF
:101960005F904F903F900895CF93DF93EC018D816E
:101970008823A1F18C8187FF2DC06E857F858889A2
:10198000998941E00E944509882341F1EA8980E272
:10199000E89FF0011124DF01A656BC4F1097F1F02B
:1019A0008D81823050F44B895C896D897E895C968B
:1019B0004D935D936D937C935F978F89988DA98DDF
:1019C000BA8DE656FC4F938F828FB58BA48B8C819A
:1019D0008F778C83DF91CF910C940A0980E0DF919F
:1019E000CF910895CF93DF93EC010E94B40C88232C
:1019F00011F01D8281E0DF91CF910895FC01818D6E
:101A0000928D009711F00C94B40C08952F923F9290
:101A10004F925F926F927F928F929F92AF92BF92FE
:101A2000CF92DF92EF92FF920F931F93CF93DF93AA
:101A300000D000D0CDB7DEB78C015B011A01DC010C
:101A400015968C9115978130C9F414968C9181FF6D
:101A500015C082FF1BC0F8014389548965897689C6
:101A600082859385A485B58584179507A607B70752
:101A700069F0C8010E941B0B811108C081E090E051
:101A8000F8019383828380E090E039C1610183C0D3
:101A9000D8015B968D919C915C97FC01248121502B
:101AA0002A013B0139E076946794579447943A951C
:101AB000D1F7722E74207A01F1E0FF22772009F429
:101AC00076C080E092E08E199F0946018C159D0535
:101AD00008F44C01D8015B962D913C915C971696C9
:101AE0008D919D910D90BC91A02D0297A109B109F6
:101AF000F901058404C0880F991FAA1FBB1F0A940F
:101B0000D2F74685578560897189840F951FA61F76
:101B1000B71F9C01AD01270D311D411D511D29012C
:101B20003A01811432E0930609F088C080911401D3
:101B300090911501A0911601B0911701841595059A
:101B4000A605B70559F48FEF9FEFDC0180931401D0
:101B500090931501A0931601B09317019501B3015D
:101B6000A20180918E0390918F030E949F08882389
:101B700009F484CF9EEFB91AC818D908F8018285F4
:101B80009385A485B585880D991DA11DB11D8287FA
:101B90009387A487B587D8011A964D915D916D9171
:101BA0007C911D97C114D10409F072CF87C0E11454
:101BB000F10409F086CF16964D915D916D917C915F
:101BC0001997411551056105710559F457968D9185
:101BD0009D910D90BC91A02D0097A105B10541F5F7
:101BE00021C09E012F5F3F4F0E942E0A882309F4D7
:101BF0004BCF89819A81AB81BC81F801238D348DD3
:101C0000F9012789203129F048EF5FEF6FEF7FE07E
:101C100004C048EF5FEF60E070E084179507A60707
:101C2000B70730F0C8010E94B10B81114ACF26CF0F
:101C3000F80186839783A087B18743CFE114F1042D
:101C400029F5D8011A964D915D916D917C911D9762
:101C500053968D919D910D90BC91A02D48175907D9
:101C60006A077B0798F00E940A09882309F406CFC7
:101C70004092140150921501609216017092170162
:101C80008091900381608093900308C041E0C3017C
:101C9000B2010E944509882309F4F0CED501F7016D
:101CA000E656FC4FCF01880D991DE817F90719F08A
:101CB0002D912193FACFA80CB91C5ECF53968D912C
:101CC0009D910D90BC91A02D84179507A607B7078D
:101CD00040F4F801438B548B658B768B848180684C
:101CE0008483D80114968C9183FD02C0C10107C082
:101CF000C8010E94B40C882309F4C0CEF7CF0F901E
:101D00000F900F900F90DF91CF911F910F91FF9047
:101D1000EF90DF90CF90BF90AF909F908F907F908B
:101D20006F905F904F903F902F900895CF93DF93E7
:101D30001F92CDB7DEB7698341E050E0BE016F5F0F
:101D40007F4F0E94060D0F90DF91CF910895CF93A2
:101D5000DF93EC01898D9A8D009739F481E090E052
:101D60009B838A8380E090E00BC0FC011382128287
:101D70000E94060DE98DFA8D22813381232B71F7A4
:101D8000DF91CF910895FC01DB0112968D919C911A
:101D900013979383828389E591E0918380831496DE
:101DA0008C911497848315968C911597858316963C
:101DB0004D915D916D917C91199746835783608712
:101DC00071871A964D915D916D917C911D97428717
:101DD0005387648775871E964D915D916D917C91B7
:101DE000519746875787608B718B52968C9152978B
:101DF000828B53964D915D916D917C915697438B5B
:101E0000548B658B768B57964D915D916D917C913E
:101E10005A97478B508F618F728F5B968D919C91F3
:101E20005C97948F838F0895EF92FF920F931F9387
:101E3000CF93DF93EC017B018A011B821A8288EE2B
:101E400093E0A0E0B0E08C839D83AE83BF8383E208
:101E500091E0998388838DE190E00E94822B9A8F94
:101E6000898F009779F02DE1F701DC0101900D9247
:101E70002A95E1F74CE050E0B801CE010C960E94A3
:101E80009B2D188EDF91CF911F910F91FF90EF90B6
:101E900008952F923F924F925F926F927F928F920E
:101EA0009F92AF92BF92CF92DF92EF92FF920F93E9
:101EB0001F93CF93DF9300D0CDB7DEB7FC018581B0
:101EC000882309F4D9C0848180FFD6C021E02A8309
:101ED000438954896589768982859385A485B585EA
:101EE000481759076A077B0709F41A826F013A817C
:101EF000832F90E0DE0111964D013F01B6E06B0E9D
:101F0000711C892B09F47DC0D6011A964D915D9103
:101F10006D917C911D975A01B1E0BB22F60125819C
:101F20001A012B0189E056944794379427948A9597
:101F3000D1F7838D948D223061F4FC01828D938DD5
:101F4000A48DB58DBC01CD01620D731D841D951D41
:101F500045C0DC0114961C9111501221A114B1044A
:101F6000D1F4111118C0452B462B472B51F4F60123
:101F70008789908DA18DB28D86839783A087B18745
:101F80000AC0468157816085718593010E942E0A9F
:101F9000882309F471C0F601238D348D86819781E1
:101FA000A085B1850297A109B109AC01BD01F90174
:101FB000058404C0440F551F661F771F0A94D2F78B
:101FC00086859785A089B189840F951FA61FB71FA5
:101FD000BC01CD01610F711D811D911DD6011496AB
:101FE0002C9126FF14C0009114011091150120912D
:101FF000160130911701601771078207930751F599
:1020000006C0FA81FF23C1F1898190E037C040E02A
:102010000E944509882381F1F501E656FC4FD40161
:10202000CF010196E817F90719F021912D93FACF06
:10203000EFEF8E1A9E0AF60182859385A485B585F9
:102040000196A11DB11D82879387A487B58780E083
:1020500090E057CF740101E010E09501AB01BC01A5
:1020600080918E0390918F030E940B08882321F0AA
:10207000BFEF8B1A9B0ADFCF8FEF9FEF0F900F9070
:10208000DF91CF911F910F91FF90EF90DF90CF9054
:10209000BF90AF909F908F907F906F905F904F9088
:1020A0003F902F900895FC01818D928D009711F043
:1020B0000C94490F8FEF9FEF08950F931F93CF93C9
:1020C000DF93FC01818D928D0097B9F0EF010E94A2
:1020D000490F8C010F3F8FEF180791F0898D9A8D72
:1020E000FC0142855385648575854150510961091C
:1020F00071090E941B0BC80105C080E090E002C07E
:102100008FEF9FEFDF91CF911F910F910895EF9285
:10211000FF920F931F93CF93DF937C018B01C0E05D
:10212000D0E0F80161918F01CE018E0D9F1D0E94BC
:10213000B4292196C430D105A1F784E090E0DF9165
:10214000CF911F910F91FF90EF90089560E070E0A4
:102150008AE00E94501660E070E089E00C9450160E
:1021600008952F923F924F925F926F927F928F923B
:102170009F92AF92BF92CF92DF92EF92FF920F9316
:102180001F93CF93DF93CDB7DEB72D970FB6F8949B
:10219000DEBF0FBECDBFFC016A3069F4248986859D
:1021A000978538E0239F800D911D1124978786879E
:1021B00015861486E4C06D3009F4E1C09D878C87D4
:1021C00054895983828993899D838C83A089B1899D
:1021D000BF83AE8386849784C484D58480859185AB
:1021E000C816D906BCF0EC85FD854489242F30E063
:1021F00084859585F6E04F9F800D911D1124AC8557
:10220000BD851D969C938E931C9756964C914111BB
:1022100092C0B5C0EC85FD858285938588169906A8
:1022200014F7F981AF2EB12CC60126E0F29F800D84
:10223000911D112418161906B4F6C50123E0880F64
:10224000991F2A95E1F7880D991D181619065CF655
:1022500055E0659FB001112416011A82CB018C193B
:102260009D0999878887D4011896BB87AA87BA8168
:10227000B53049F0E885F985E20DF31DEE5EFE4FBD
:1022800024912B8301C01B82240134013B8130FF48
:1022900013C0AC85BD85ED91FC91B981B13031F4AD
:1022A0000084F185E02D2E813F8119C00288F389D9
:1022B000E02DEE80FF801EC0EC81FD812E813F81EC
:1022C000E217F307F1F0AC85BD85ED91FC91B98182
:1022D000B13059F40084F185E02D2C813D81A301BA
:1022E000B1018C859D8509950CC00288F389E02D8C
:1022F000EC80FD8085019501A201B6018C859D854C
:102300000995EB81E695EB83FFEF6F1A7F0A4A0C84
:102310005B1C2A853B856216730609F0B7CF3A81AC
:102320003F5F3A835FEF251A350ACA0CDB1C363053
:1023300009F09DCF58CF4AEF4203B001439F700D83
:102340001124AC85BD8518964D915C911997460F67
:10235000571F481759079CF483E0220F331F8A95B3
:10236000E1F71E968D919C911F97280F391F1F969C
:102370003C932E931E971D961C921E921C9781E0F3
:1023800090E02D960FB6F894DEBF0FBECDBFDF9163
:10239000CF911F910F91FF90EF90DF90CF90BF9062
:1023A000AF909F908F907F906F905F904F903F90F5
:1023B0002F900895EF92FF920F931F93DC01ED9100
:1023C000FC9111971A960D911C911B9718962D91BF
:1023D0003C9119970288F389E02D7B0140E050E0A1
:1023E00060E070E009951F910F91FF90EF900895C4
:1023F0006F927F928F929F92AF92BF92CF92DF9215
:10240000EF92FF920F931F93CF93DF936C015A01CA
:102410004801EB013B01620E731EC615D70574F42B
:10242000D601ED91FC910484F585E02D870194019E
:10243000A501BE01C60109952196EFCFDF91CF918D
:102440001F910F91FF90EF90DF90CF90BF90AF90D2
:102450009F908F907F906F900895EF92FF920F93CF
:102460001F93DC01ED91FC91260F371F215031099C
:102470000284F385E02D78018A0109951F910F915F
:10248000FF90EF900895EF92FF920F931F937801C2
:10249000DC01ED91FC91240F351F890101501109D8
:1024A0000284F385E02D9B0109951F910F91FF9008
:1024B000EF9008956F927F928F929F92AF92BF920A
:1024C000CF92DF92EF92FF920F931F93CF93DF9300
:1024D000EC014B015A0169013801E881F981068458
:1024E000F785E02D87010995E881F981A501460D61
:1024F000571D415051090684F785E02D9601B4011E
:10250000CE010995E881F9810484F585E02D9301D8
:10251000A501B401CE010995E881F981C80CD91C47
:10252000B601615071090484F585E02D9301A50180
:10253000CE010995DF91CF911F910F91FF90EF9000
:10254000DF90CF90BF90AF909F908F907F906F90D3
:1025500008952F923F924F925F926F927F928F9247
:102560009F92AF92BF92CF92DF92EF92FF920F9322
:102570001F93CF93DF9300D01F92CDB7DEB74C01EE
:102580007B836A836A01590117019801241B350B6B
:1025900037FF03C0319521953109C5014A815B811F
:1025A000841B950B97FF03C091958195910951E08C
:1025B00059838217930714F019820BC09A2D8B2D23
:1025C0005801092F182F9A818B81DB82CA82C92E6C
:1025D000D82E8A819B81A816B9065CF49C2D8D2D7E
:1025E0006801092F182F9A818B81BB82AA82A92E9C
:1025F000B82E2501AA81BB814A1A5B0A38016C18E2
:102600007D0877FE03C0719461947108720157FED2
:1026100003C0BFEFEB1AFB0AF594E794C016D1068E
:102620001CF00FEF1FEF1FC001E010E01CC0D40131
:10263000ED91FC91B9810084F185E02D9101BB23DE
:10264000C1F04A815B81B601C4010995E618F7081B
:10265000F7FE04C0C00ED11EE40CF51CEA81FB811C
:102660003196FB83EA834A815B81A416B506FCF6AA
:1026700004C0A6016A817B81E7CF0F900F900F9075
:10268000DF91CF911F910F91FF90EF90DF90CF904E
:10269000BF90AF909F908F907F906F905F904F9082
:1026A0003F902F900895833081F028F4813099F085
:1026B0008230A1F008958730A9F08830B9F08430D5
:1026C000D1F4809180008F7D03C0809180008F774E
:1026D00080938000089584B58F7702C084B58F7D84
:1026E00084BD08958091B0008F7703C08091B000C1
:1026F0008F7D8093B0000895089508950F931F93E0
:10270000CF93DF93EC0188819981009729F02A818A
:102710003B812617370788F48B016F5F7F4F0E943C
:10272000AF2C009761F0998388831B830A832C81E7
:102730003D81232B11F4FC01108281E001C080E077
:10274000DF91CF911F910F910895AF92BF92CF92D9
:10275000DF92EF92FF920F931F93CF93DF93CDB74A
:10276000DEB72B970FB6F894DEBF0FBECDBF7C014E
:10277000CE0101966C01FC0190E28BE08C0D9193EF
:102780008E13FDCFDA0120E037E09D91992339F1D6
:102790009E3219F0EDE0F6E00AC03A3009F4AAC022
:1027A00028E03AE0F2CF3196891709F4A3C084916A
:1027B0008111F9CF321708F49DC08FED890F8E3546
:1027C00008F098C081E0820FF601E20FF11D2FE9B9
:1027D000290F2A3108F490529083282FD6CF89816F
:1027E000803209F487C08B01FB01838D948DF70142
:1027F000948F838FFB0116821782108611861286B2
:10280000138614861586A12CF80182859385A485EC
:10281000B585438954896589768984179507A60704
:10282000B70708F067C025E0B695A79597958795F7
:102830002A95D1F7F82FFF70BF2EF80185818230DD
:1028400008F458C0C8010E94490F97FD53C0F80111
:1028500082859385A485B5854F96A11DB11D82877C
:102860009387A487B587F0E2BF9EC0011124BC0105
:1028700066567C4F61157105E9F1FB012081222329
:10288000B9F1253EE1F04BE050E0C6010E947E2DFB
:10289000892B09F0B9CF6B2DC7012B960FB6F89491
:1028A000DEBF0FBECDBFDF91CF911F910F91FF9083
:1028B000EF90DF90CF90BF90AF900C94E819A110EB
:1028C00014C0F701B28A4091140150911501609132
:1028D00016017091170146875787608B718BFC0139
:1028E000E656FC4F8081882329F0AA24A3948CCF3C
:1028F000AA2039F380E02B960FB6F894DEBF0FBE06
:10290000CDBFDF91CF911F910F91FF90EF90DF909E
:10291000CF90BF90AF9008958F929F92AF92BF9249
:10292000CF92DF92EF92FF92CF93DF93C82F89E38C
:1029300096E090938F0380938E03CC2369F1C5308A
:1029400010F080E00DC140E060E070E0CB010E943B
:1029500045098823B1F320E1C29FC00111248657A5
:102960009C4FFC01E254FE4F20812F7751F73C969B
:102970004081518162817381443651056105710541
:1029800000F33497C080D180E280F380C114D10479
:10299000E104F10421F4D5CFC12CD12C760140E023
:1029A000C701B6010E944509882359F28091A50309
:1029B0009091A6038115924021F6A091AA03AA2323
:1029C00009F4BFCF6091A8037091A9036115710547
:1029D00009F4B7CF2091A703222309F4B2CFA09323
:1029E00057062093490680E030E0E1E0F0E0C82F90
:1029F000AF01082E02C0440F551F0A94E2F72417B6
:102A0000350741F0982F8F5F983089F789E08093E0
:102A1000520697CF809352062091B0033091B103B4
:102A20002115310519F040E050E008C02091BE03A7
:102A30003091BF034091C0035091C10320934A06D7
:102A400030934B0640934C0650934D064601570178
:102A5000860E971EA11CB11C8092580690925906B2
:102A6000A0925A06B0925B06E091AB03F091AC03E2
:102A7000F0935E06E0935D06B0E00E94C229860EE8
:102A8000971EA81EB91E80925F0690926006A092C3
:102A90006106B092620685E0EE0FFF1F8A95E1F7AE
:102AA000E150FE4FEF2FFF27E6958E0E9F1EA11CD3
:102AB000B11C8092530690925406A0925506B09293
:102AC00056062091AD033091AE032115310521F05A
:102AD000A90160E070E008C04091BA035091BB03C7
:102AE0006091BC037091BD03D701C6018819990993
:102AF000AA09BB09840F951FA61FB71F04C0B6956E
:102B0000A79597958795CA95D2F780934E0690938F
:102B10004F06A0935006B0935106853F2FE09207D1
:102B2000A105B10510F48CE018C0853F9F4FA105A9
:102B3000B10510F480E111C08091C6039091C703E4
:102B4000A091C803B091C90380935F06909360067B
:102B5000A0936106B093620680E280935C0681E0F8
:102B6000DF91CF91FF90EF90DF90CF90BF90AF902B
:102B70009F908F900895CF93DF93282F30E0F90135
:102B8000E250FF4F8491F901E651FF4FD491F901D2
:102B9000EA52FF4FC491CC2391F081110E9453134C
:102BA000EC2FF0E0EE0FFF1FE453FF4FA591B4911F
:102BB000EC91ED2381E090E021F480E002C080E020
:102BC00090E0DF91CF9108951F93CF93DF93282F4B
:102BD00030E0F901E250FF4F8491F901E651FF4FD7
:102BE000D491F901EA52FF4FC491CC23C9F0162FBA
:102BF00081110E945313EC2FF0E0EE0FFF1FEE53F4
:102C0000FF4FA591B4918FB7F894111105C09C9115
:102C1000ED2FE095E92302C0EC91ED2BEC938FBFF3
:102C2000DF91CF911F910895CF93DF9390E0FC0146
:102C3000E651FF4F2491FC01EA52FF4F8491882313
:102C400061F190E0880F991FFC01E854FF4FC59196
:102C5000D491FC01EE53FF4FA591B491611109C0CD
:102C60009FB7F8948881209582238883EC912E2346
:102C70000BC0623061F49FB7F8943881822F809541
:102C800083238883EC912E2B2C939FBF06C08FB794
:102C9000F894E8812E2B28838FBFDF91CF91089580
:102CA0001F93CF93DF93182FEB0161E00E9414165E
:102CB000209711F460E004C0CF3FD10539F461E002
:102CC000812FDF91CF911F910C94E415E12FF0E05B
:102CD000E250FF4FE491E330F9F048F4E130B9F00D
:102CE000E230A1F584B5806284BDC8BD34C0E73050
:102CF000E9F0E83019F1E43049F580918000806214
:102D000080938000D0938B00C0938A0024C084B548
:102D1000806884BDC7BD1FC080918000806880939B
:102D20008000D0938900C093880015C08091B000C6
:102D300080688093B000C093B3000DC08091B00054
:102D400080628093B000C093B40005C0C038D10544
:102D50000CF0B5CFAFCFDF91CF911F9108953FB762
:102D6000F8948091960390919703A0919803B09165
:102D7000990326B5A89B05C02F3F19F00196A11D08
:102D8000B11D3FBFBA2FA92F982F8827820F911D01
:102D9000A11DB11DBC01CD0142E0660F771F881F48
:102DA000991F4A95D1F708958F929F92AF92BF9243
:102DB000CF92DF92EF92FF926B017C010E94AF16DF
:102DC0004B015C01C114D104E104F104F1F00E9453
:102DD000AF16DC01CB0188199909AA09BB09883E05
:102DE0009340A105B10570F321E0C21AD108E108B2
:102DF000F10888EE880E83E0981EA11CB11CC11456
:102E0000D104E104F10419F7DDCFFF90EF90DF90DA
:102E1000CF90BF90AF909F908F9008952FB7F89468
:102E20006091920370919303809194039091950324
:102E30002FBF08951F920F920FB60F9211242F9358
:102E40003F938F939F93AF93BF9380919203909101
:102E50009303A0919403B09195033091910323E0E3
:102E6000230F2D3720F40196A11DB11D05C026E8C2
:102E7000230F0296A11DB11D20939103809392030D
:102E800090939303A0939403B0939503809196033A
:102E900090919703A0919803B09199030196A11D79
:102EA000B11D8093960390939703A0939803B093DA
:102EB0009903BF91AF919F918F913F912F910F9067
:102EC0000FBE0F901F9018951F920F920FB60F9282
:102ED00011242F933F934F935F936F937F938F931F
:102EE0009F93AF93BF93EF93FF93E0911201F09103
:102EF00013010995FF91EF91BF91AF919F918F9130
:102F00007F916F915F914F913F912F910F900FBEE5
:102F10000F901F9018951F920F920FB60F921124C9
:102F20002F933F934F935F936F937F938F939F93D1
:102F3000AF93BF93EF93FF93E0911001F0911101D4
:102F40000995FF91EF91BF91AF919F918F917F91E3
:102F50006F915F914F913F912F910F900FBE0F9006
:102F60001F901895AF92BF92CF92DF92EF92FF928F
:102F70000F931F93CF93DF9300D0CDB7DEB78C01B3
:102F80005B01C42EFC011182108213821282158211
:102F9000148260E070E00E947E13F801208131818C
:102FA00081110EC02115310519F0C9010E94172C9D
:102FB000F80111821082158214821382128208C0D5
:102FC000F8011582148269EA71E0C9010E94942D0A
:102FD000C5010E94BC190C2C000CDD0897FD24C013
:102FE0008C159D0509F189831A82F801E480F5802A
:102FF000FFEFEF1AFF0AB701C8010E947E13882372
:1030000079F0F8012081318184819581BE016F5F63
:103010007F4F820F931F0E94942DF801F582E48266
:10302000C5010E94BC19DACFC8010F900F90DF9143
:10303000CF911F910F91FF90EF90DF90CF90BF90B5
:10304000AF900895E0919A05F0919B050190F08171
:10305000E02D682F8AE995E00994009769F0FC015A
:1030600001900020E9F73197AF01481B590BBC01D3
:103070008AE995E00C943E1A80E090E008958F92E2
:103080009F92AF92BF920F931F93CF93DF93CDB7D1
:10309000DEB7A1970FB6F894DEBF0FBECDBF19A261
:1030A000423008F44AE08E010F5D1F4F842E912CB0
:1030B000A12CB12CA50194010E94462BE62FB90149
:1030C000CA0101501109EA3014F4E05D01C0E95C65
:1030D000D801EC93232B242B252B61F7C8010E94E8
:1030E0002D18A1960FB6F894DEBF0FBECDBFDF91AD
:1030F000CF911F910F91BF90AF909F908F900895A7
:10310000CF92DF92EF92FF92CF93DF9397FF19C098
:103110006B017C018DE20E942218EC016627772763
:10312000CB016C197D098E099F094AE00E943F1866
:103130008C0F9D1FDF91CF91FF90EF90DF90CF908C
:1031400008954AE0DF91CF91FF90EF90DF90CF900C
:103150000C943F184F925F926F927F928F929F9242
:10316000AF92BF92CF92DF92EF92FF926B017C0100
:10317000B42E9B01AC010E942D2B882319F081ED08
:1031800092E027C026013701E89477F82FEF3FEF50
:103190004FE75FE7C301B2010E942D2B81110DC0E3
:1031A0002FEF3FEF4FE75FE7C301B2010E94852891
:1031B00018161CF485ED92E00CC02FEF3FEF4FE79F
:1031C0005FE4C701B6010E94282B181684F489ED2C
:1031D00092E0FF90EF90DF90CF90BF90AF909F90E4
:1031E0008F907F906F905F904F900C942D182FEFE1
:1031F0003FEF4FE75FECC701B6010E94852887FDCE
:10320000E6CF20E030E0A901C701B6010E94852881
:1032100087FF09C08DE20E9422184C01F7FAF09452
:10322000F7F8F09402C0812C912CA12C60E070E0A2
:1032300080E09FE3AB1441F020E030E040E251E455
:103240000E94802AA394F6CF9B01AC01C701B6016E
:103250000E94142A2B013C010E94F92A6B017C0177
:103260000E948A289B01AC01C301B2010E94132A6B
:103270002B013C014AE0C701B6010E943F187C01C6
:10328000E80CF91CBB2029F08EE20E942218E80EFF
:10329000F91EDB2CDD2021F120E030E040E251E49A
:1032A000C301B2010E94EB282B013C010E94F92AC4
:1032B0004B01A12CB12C4AE0C501B4010E943F187A
:1032C000E80EF91EC501B4010E948A289B01AC01D9
:1032D000C301B2010E94132A2B013C01DA94DACF18
:1032E000C701FF90EF90DF90CF90BF90AF909F907D
:1032F0008F907F906F905F904F900895CF93DF9362
:1033000042E00E94AA18EC0187EA91E00E942D1881
:103310008C0F9D1FDF91CF9108950F931F93CF9333
:10332000DF938C01C0E0D0E0F801EC0FFD1F649149
:10333000662371F0E0919A05F0919B050190F08170
:10334000E02D8AE995E00995892B11F02196ECCFC3
:10335000CE01DF91CF911F910F910895CF93DF930D
:103360000E942D18EC0187EA91E00E942D188C0F25
:103370009D1FDF91CF9108950F931F93CF93DF93FC
:10338000EC010E940E17688779878A879B87CE0198
:103390000E94531097FF17C00E940E1708851985C9
:1033A0002A853B85DC01CB01801B910BA20BB30B63
:1033B0000C811D812E813F8180179107A207B307E1
:1033C00030F38FEF9FEFDF91CF911F910F91089511
:1033D000CF93DF93EC016A8B8091140190911501DA
:1033E000A0911601B09117018E879F87A88BB98B8A
:1033F00080E2689FF0011124E656FC4F448955890C
:1034000060E070E0BA01552744274F8B588F698FD1
:103410007A8F828D938DA0E0B0E0482B592B6A2BD8
:103420007B2B4F8B588F698F7A8F8385887151F4EE
:10343000848D958DA68DB78D8B8B9C8BAD8BBE8B24
:1034400081E00EC0803111F080E015C09E012D5E3C
:103450003F4F8B8D9C8D0E94B20A8823A9F384E094
:103460008D8381E08C831E821F82188619861A86BE
:103470001B861C861D86DF91CF910895CF92DF9227
:10348000EF92FF920F931F93CF93DF936C017A011A
:103490008B01C0E0D0E0CE15DF0589F0D8016D9139
:1034A0008D01D601ED91FC910190F081E02DC601D6
:1034B0000995892B11F47E0102C02196ECCFC7013A
:1034C000DF91CF911F910F91FF90EF90DF90CF9000
:1034D0000895CF93DF93CDB7DEB7C55AD1090FB6A4
:1034E000F894DEBF0FBECDBF789484B5826084BDF2
:1034F00084B5816084BD85B5826085BD85B58160F8
:1035000085BD80916E00816080936E001092810075
:103510008091810082608093810080918100816030
:1035200080938100809180008160809380008091F1
:10353000B10084608093B1008091B000816080937D
:10354000B00080917A00846080937A0080917A0044
:10355000826080937A0080917A00816080937A0003
:1035600080917A00806880937A001092C10080E098
:1035700090E00E94AC2990910001891731F16CE034
:1035800071E081E090E00E94871068E071E089E1DD
:1035900090E00E9487106091000180E090E00E941E
:1035A000B42981E991E00E94AE1980E090E00E9488
:1035B000AC29682F70E080E090E04AE00E943F185C
:1035C00087EA91E00E942D1804C08AEA91E00E94E7
:1035D000AE19E091AA05F091AB0582E08083E091FD
:1035E000A605F091A7051082E091A805F091A90524
:1035F0008FEC80831092B205E091AE05F091AF059B
:1036000086E08083E091AC05F091AD05808180611A
:103610008083E091AC05F091AD0580818860808366
:10362000E091AC05F091AD05808180688083E091E8
:10363000AC05F091AD0580818F7D808389EA91E0B2
:103640000E94AE1981EB91E00E94AE1960E080E12A
:103650000E94141661E086E00E9414168BEB91E044
:103660000E94AE19E7961FAE1EAEE79788EE93E074
:10367000A0E0B0E0EB968CAF9DAFAEAFBFAFEB97E5
:1036800083E291E0E5969FAF8EAFE597C457DF4F99
:1036900019821882CC58D040C158DF4F1882CF57BA
:1036A000D04084EC91E00E94AE1910924406109232
:1036B000420610923F0610923E0684E080933D063B
:1036C0000E940E178B0161E080913D060E94141646
:1036D00061E080913D060E94E415FFB6F894809168
:1036E000E802811127C0E0EEF0E08491E4EFF0E021
:1036F0009491E82FF0E0EE0FFF1FE854FF4FA591E3
:10370000B491EC91E92321F461E08AE00E94E41590
:1037100061E08AE00E9414168CB580618CBD8CB586
:1037200080648CBD61E08DE00E94141661E08BE046
:103730000E9414168091E8028F5F8093E802FFBE1A
:1037400082E5809337061092380680913706909173
:1037500038060E949007AAE0FA2E8FEF0E945107C8
:10376000FA94F110FACF89E396E00E94930720E0E3
:1037700030E0A90160E089E396E00E94A907F82EF5
:103780008093430681E0F81649F00E940E17601BF3
:10379000710B613D774058F381E056C02AEA31E071
:1037A00040E050E068E089E396E00E94A90782FFCC
:1037B00003C0F092440610C0F4E0FF2E0E945807A8
:1037C00080934306FA94F110F9CF8A3A11F082E01F
:1037D0003BC082E08093440680914406823021F011
:1037E000C12CD12C760105C0C12CD12CE12CE0E4F8
:1037F000FE2E20E030E0A90167E389E396E00E9415
:10380000A907A701960169E289E396E00E94A9074A
:1038100080934306882349F00E940E17601B710BAA
:10382000613D774030F388E00FC0809144068230DC
:1038300001F520E030E0A9016AE389E396E00E9407
:10384000A907882341F086E080933E0689E396E04D
:103850000E944607A8C00E945807807C803C19F44B
:1038600083E0809344060E9458070E9458070E94F4
:10387000580789E396E00E94460780E58093370663
:103880001092380681E00E948C14882329F08091E0
:103890006806882341F087C080E00E948C1488234A
:1038A00009F481C0F4CF80915C06803109F582E093
:1038B0008093680610927A0610927B0610927C061E
:1038C00010927D0680915D0690915E06A0E0B0E0CA
:1038D00075E0880F991FAA1FBB1F7A95D1F78093B7
:1038E000760690937706A0937806B09379061EC06B
:1038F000803209F058C083E08093680640915F06EB
:1039000050916006609161067091620640937A065C
:1039100050937B0660937C0670937D0626E736E025
:1039200085E496E00E94B20A8823E9F185E496E0F6
:1039300090937F0680937E0681E0809367061092C5
:10394000690610926A0610926B0610926C0610922D
:103950006D0610926E0610926F061092700610920D
:1039600071061092720610927306109274061092ED
:10397000750663E676E0CE0101960E94C30EBE0195
:103980006F5F7F4FCE01CB960E94C30E19A218A283
:1039900089E591E09F8F8E8F1BA221968FAD219795
:1039A000811104C010C08CED91E084C0825043E0CE
:1039B00052E08230F0F463E676E0CE014E960E944B
:1039C000A513811123C06C961FAE1EAE6C9788EEB6
:1039D00093E0A0E0B0E0A0968CAF9DAFAEAFBFAFDC
:1039E000A097E3961FAE1EAEE397A5961FAEA597D0
:1039F0001EC0BE01655C7F4FCE014E960E94A5138E
:103A0000882309F3CE01CB960E94F20CBE01625EC0
:103A10007F4FCE0101960E94C30E43E052E0BE01EB
:103A20006F5F7F4FCE01885A9F4F0E94140F6C9694
:103A30008EAD9FAD6C97E7969FAF8EAFE797A09640
:103A40008CAD9DADAEADBFADA097EB968CAF9DAFED
:103A5000AEAFBFAFEB97A4968CAD9DADAEADBFAD95
:103A6000A497EF968CAF9DAFAEAFBFAFEF978DE051
:103A7000E8E5F0E0EC0FFD1F3C96A3E7B0E0AC0FEB
:103A8000BD1F1C9601900D928A95E1F7E396EEAD6D
:103A9000FFADE397C457DF4FF983E883CC58D0409C
:103AA000309731F08581882319F00AEE12E040C08A
:103AB00085EF91E00E94AE1980E06CC04AE3BE0140
:103AC0006D587F4FCE014E960E94B2174AE0BE015C
:103AD0006D587F4FCE0101960E94B2178E8D9F8D3B
:103AE000009779F589819A819F8F8E8F8B819C8138
:103AF00099A388A38D819E819BA38AA31A82198290
:103B00001C821B821E821D8289819A810E94172C31
:103B10008E8D9F8D009739F10E940327D8016D93F8
:103B20007D938D939D938D018E8D9F8D0E94172C7B
:103B3000CE018D589F4F0E947304892B09F0BECF90
:103B400016C069817A816115710511F40C945026B3
:103B500048A159A12D813E814217530710F00C94C2
:103B600054260C94502660E070E0CB01D7CFC457A8
:103B7000DF4F88819981CC58D040009751F00E9446
:103B8000F20CC457DF4F88819981CC58D0400E94F5
:103B9000172C81E08093E902882309F474C06091B6
:103BA000EA027091EB028091EC029091ED020E948A
:103BB000F22A70930301609302012091F202309186
:103BC000F3024091F4025091F5026091EE0270917F
:103BD000EF028091F0029091F1020E94EB28609335
:103BE0000401709305018093060190930701609191
:103BF000F6027091F7028091F8029091F9020E940A
:103C0000F22A072E000C880B990B0E948C289B012E
:103C1000AC0160E070E080E89FE30E94802A20E031
:103C200034E244E759E40E94EB2860930801709362
:103C3000090180930A0190930B0168E071E089E12A
:103C400090E00E94871064E0E62E61E0F62E02E329
:103C500010E0F70161917F01C8010E94B4290F5F54
:103C60001F4F06331105A9F7609102018BE490E024
:103C70000E94B429609103018CE490E00E94B42971
:103C80008EE092E041C05CE0E52E51E0F52E01E0CF
:103C900010E0C8010E94AC29D7018D937D010F5F10
:103CA0001F4F05301105A9F748E0E42E41E0F42E3E
:103CB00009E110E0C8010E94AC29F70181937F015E
:103CC0000F5F1F4F0D311105A9F734E0E32E31E0EE
:103CD000F32E02E310E0C8010E94AC29D7018D93B6
:103CE0007D010F5F1F4F06331105A9F78BE490E0AC
:103CF0000E94AC29809302018CE490E00E94AC29E0
:103D0000809303018BE192E00E94AE198AE292E077
:103D10000E942D1860910C0170910D0180910E018F
:103D200090910F010E947E1980E392E00E942D186D
:103D3000609108017091090180910A0190910B0135
:103D40000E947E1986E392E00E942D186091040182
:103D50007091050180910601909107010E947E19E2
:103D600085E492E00E942D18609102017091030198
:103D7000072E000C880B990B0E94801887EA91E0AF
:103D80000E942D1860E082E00E94141660E081E13C
:103D90000E94141661E085E00E941416EBE3F3E044
:103DA0001192119211921192B3E0E336FB07C1F721
:103DB00080EA96E090931101809310018091690050
:103DC0008C7F816080936900E89A60E083E00E94C4
:103DD000141660E085E00E94141661E086E00E94FF
:103DE0001416EBE0F3E0119211921192119223E07C
:103DF000E33DF207C1F788E796E0909313018093C3
:103E0000120180916900837F846080936900E99A40
:103E100061E08AE00E94141661E089E00E941416B5
:103E200061E088E00E94141661E087E00E941416A9
:103E300082E592E00E94AE1980E10E94BB15892BB9
:103E400039F481E10E94BB15892B09F452C042C0AC
:103E50000E940E1760937A0370937B0380937C0318
:103E600090937D0380E10E94BB15892B51F30E9442
:103E70000E1700917A0310917B0320917C033091FF
:103E80007D03DC01CB01801B910BA20BB30B883EA1
:103E90009340A105B10530F360917903F1E06F27FC
:103EA0006093790386E00E94E41587E692E00E9421
:103EB0002D186091790370E080E090E00E948018F6
:103EC00087EA91E00E942D1880E10E94BB15892BA2
:103ED000D9F7C8CF0E940E1760937A0370937B03C3
:103EE00080937C0390937D0381E10E94BB15892B15
:103EF000A1F4C0900801D0900901E0900A01F0906F
:103F00000B018091E2029091E302181619060CF45D
:103F1000E6C0C12CD12C7601FAC00E940E17009188
:103F20007A0310917B0320917C0330917D03DC01A7
:103F3000CB01801B910BA20BB30B883E9340A105D4
:103F4000B10590F280E892E00E94AE1961E085E050
:103F50000E94E41581E10E94BB15892BD9F7E898EE
:103F60008CE793E190931101809310011092DE028F
:103F70001092DF021092E0021092E1020E940E17EE
:103F80006B017C01AEEAB4E0B0931101A093100183
:103F9000809169008C7F816080936900E89A81E15B
:103FA0000E94BB15892B59F50E940E17DC01CB012D
:103FB0008C199D09AE09BF09843A9140A105B1054C
:103FC00050F080910203F1E08F27809302030E945A
:103FD0000E176B017C016091020385E00E94E415DD
:103FE0006091DE027091DF028091E0029091E10227
:103FF0000E94801887EA91E00E942D18D0CFE8989F
:104000009CE7C92E93E1D92ED0921101C0921001E4
:104010006091DE027091DF028091E0029091E102F6
:104020000E948C289B01AC0160E070E088E492E47F
:104030000E94802A20E034E244E759E40E94EB2801
:104040006093FE027093FF0280930003909301033C
:1040500020EAE22E26E0F22EF0921101E092100109
:10406000809169008C7F816080936900E89A8091DB
:10407000FE029091FF02A0910003B0910103809392
:104080000C0190930D01A0930E01B0930F016CE011
:1040900071E081E090E00E94871060910C017091C6
:1040A0000D0180910E0190910F010E947E1985E90A
:1040B00092E00E94AE1960E085E00E94E4150E9443
:1040C0000E1760937A0370937B0380937C03909325
:1040D0007D0381E10E94BB15892BD9F705CF609143
:1040E000E2027091E302072E000C880B990B0E94EC
:1040F0008C289B01AC01C701B6010E94802A20E0F8
:1041000030E040E752E40E94EB286B017C012091F3
:104110000703309108034091090350910A03C70136
:10412000B6010E94852881111AC00E940E170091C5
:104130000303109104032091050330910603DC0171
:10414000CB01801B910BA20BB30B843F9140A105C7
:10415000B105B8F01092E3021092E2022EC00E9464
:104160000E176093030370930403809305039093E9
:104170000603C0920703D0920803E0920903F0926D
:104180000A0320E030E0A901C701B6010E94282BF4
:1041900018169CF420E030E048EC52E4C701B60168
:1041A0000E94852887FF09C020E030E0A901C701EF
:1041B000B6010E94852818161CF0C12CD12C76015E
:1041C00080910F0390911003A0911103B0911203FD
:1041D00080930B0390930C03A0930D03B0930E03F5
:1041E0008091130390911403A0911503B0911603CD
:1041F00080930F0390931003A0931103B0931203C5
:104200008091170390911803A0911903B0911A039C
:104210008093130390931403A0931503B093160394
:1042200080911B0390911C03A0911D03B0911E036C
:104230008093170390931803A0931903B0931A0364
:10424000C0921B03D0921C03E0921D03F0921E0348
:104250000BE013E060E070E0CB01D8012D913D91BF
:104260004D915D918D010E94142AB3E00F311B071F
:10427000A1F720E030E040EA50E40E94802ACE56C8
:10428000DF4F688379838A839B83C259D0406093D0
:104290001B0370931C0380931D0390931E0320E067
:1042A00030E040E85FE30E94852887FF08C0CE56D3
:1042B000DF4F188219821A821B82C259D040809126
:1042C00079038111FEC0C0900C01D0900D01E090E7
:1042D0000E01F0900F018091E4029091E502A0910F
:1042E000E602B091E702181619061A061B06CCF46E
:1042F0006091E4027091E5028091E6029091E702FC
:104300000E948C289B01AC01C701B6010E94802A43
:1043100026E636E646E650E40E94EB286B017C0177
:1043200003C0C12CD12C7601209137033091380382
:104330004091390350913A03C701B6010E94852884
:1043400081111EC00E940E17009133031091340397
:104350002091350330913603DC01CB01801B910B9A
:10436000A20BB30B843F9140A105B105D8F0109288
:10437000E4021092E5021092E6021092E7022EC0CB
:104380000E940E17609333037093340380933503B8
:1043900090933603C0923703D0923803E0923903EA
:1043A000F0923A0320E030E048EC52E4C701B60155
:1043B0000E94282B181694F020E030E0A901C701D4
:1043C000B6010E94852887FD09C020E030E0A901E0
:1043D000C701B6010E94852818161CF0C12CD12CEB
:1043E000760180913F0390914003A0914103B091E9
:1043F000420380933B0390933C03A0933D03B0930F
:104400003E038091430390914403A0914503B091F2
:10441000460380933F0390934003A0934103B093DE
:1044200042038091470390914803A0914903B091C2
:104430004A038093430390934403A0934503B093AE
:10444000460380914B0390914C03A0914D03B09192
:104450004E038093470390934803A0934903B0937E
:104460004A03C0924B03D0924C03E0924D03F0926A
:104470004E030BE313E060E070E0CB01D8012D9117
:104480003D914D915D918D010E94142AB3E00F344E
:104490001B07A1F720E030E040EA50E40E94802AA8
:1044A000C257DF4F688379838A839B83CE58D0407D
:1044B00060934B0370934C0380934D0390934E0392
:1044C0000EC0C12CD12C80EAE82E80E4F82EC25711
:1044D000DF4FC882D982EA82FB82CE58D0406091F9
:1044E000020170910301072E000C880B990B0E94AA
:1044F0008C28C257DF4F288139814A815B81CE5891
:10450000D0400E94EB282091040130910501409198
:104510000601509107010E94EB2820E030E046E1BF
:1045200054E40E94802AC256DF4F688379838A83CD
:104530009B83CE59D0408090A3069090A406A09073
:10454000A506B090A60620919F063091A006409146
:10455000A1065091A206C501B4010E94142A9B0134
:10456000AC01C501B4010E94802A2B013C0160937B
:10457000B3067093B4068093B5069093B606C090C8
:10458000AF06D090B006E090B106F090B20620E001
:1045900030E040EA51E4CE56DF4F688179818A816C
:1045A0009B81C259D0400E94802A20E030EC4FE726
:1045B00054E40E94EB2820E030E0A9010E94142A74
:1045C0000E94F22A072E000C880B990B0E948C285F
:1045D000A70196010E94132A9B01AC01C301B201FD
:1045E0000E94EB289B01AC01C701B6010E94142A6E
:1045F000CA56DF4F688379838A839B83C659D0402C
:104600006093AB067093AC068093AD069093AE06B4
:10461000A301920160E070E080E89FE30E94132A0A
:10462000A50194010E94EB284B015C01CA56DF4FA3
:10463000288139814A815B81C659D040C701B601C2
:104640000E94132A9F772091A7063091A8064091D7
:10465000A9065091AA060E94EB289B01AC01C50156
:10466000B4010E94142A6093A3067093A406809359
:10467000A5069093A606CA56DF4FC880D980EA8067
:10468000FB80C659D040C092AF06D092B006E092EF
:10469000B106F092B2068090BB069090BC06A09046
:1046A000BD06B090BE062091B7063091B806409185
:1046B000B9065091BA06C501B4010E94142A9B01A3
:1046C000AC01C501B4010E94802A2B013C0160931A
:1046D000CB067093CC068093CD069093CE06C09007
:1046E000C706D090C806E090C906F090CA0620E040
:1046F00030E040EA51E4C256DF4F688179818A8117
:104700009B81CE59D0400E94802A20E030EC4FE7B8
:1047100054E40E94EB2820E030E0A9010E94142A12
:104720000E94F22A072E000C880B990B0E948C28FD
:10473000A70196010E94132A9B01AC01C301B2019B
:104740000E94EB289B01AC01C701B6010E94142A0C
:10475000C656DF4F688379838A839B83CA59D040CA
:104760006093C3067093C4068093C5069093C606F3
:10477000A301920160E070E080E89FE30E94132AA9
:10478000A50194010E94EB284B015C01C656DF4F46
:10479000288139814A815B81CA59D040C701B6015D
:1047A0000E94132A9F772091BF063091C006409146
:1047B000C1065091C2060E94EB289B01AC01C501C5
:1047C000B4010E94142A6093BB067093BC068093C8
:1047D000BD069093BE06C656DF4FC880D980EA80DA
:1047E000FB80CA59D040C092C706D092C806E0925A
:1047F000C906F092CA0620E030E040E050E4C2571B
:10480000DF4F688179818A819B81CE58D0400E9498
:1048100085282091010187FF18C080916403909141
:104820006503843191053CF0109265031092640396
:104830001092630333C001969093650380936403E1
:1048400080916303882351F108C010926503109290
:104850006403DD24D394D0926303211141C088EA1C
:1048600092E00E94AE190E94A61061E088E00E94CA
:10487000E41560E087E00E94E4150E940E17609343
:104880007503709376038093770390937803EE24F7
:10489000E394E0920101E092740342C1222309F4FF
:1048A0003FC186EB92E00E94AE190E94A61060E024
:1048B00088E00E94E41561E087E00E94E4150E9410
:1048C0000E1760937503709376038093770390932C
:1048D000780310920101FF24F394F092740320C135
:1048E000C656DF4F688179818A819B81CA59D04041
:1048F0000E94F22A2B013C01CA56DF4F6881798160
:104900008A819B81C659D0400E94F22ACE55DF4F42
:10491000688379838A839B83C25AD0408201CE55B3
:10492000DF4F88819981C25AD040081B190B109320
:104930006F0300936E0320906A0330906B03B10104
:10494000032C000C880B990B0E948C284B015C01F6
:10495000B80117FF04C066277727601B710B072E6D
:10496000000C880B990B0E948C282DEC3CEC4CE43D
:104970005FE30E94EB280E94F22A072E000C880BAE
:10498000990B0E948C286B017C012AE037ED43EAE9
:104990005DE3C501B4010E94EB289B01AC01C70196
:1049A000B6010E94142A0E94F22A072E000C880BDE
:1049B000990B0E948C286B017C01609168037091B7
:1049C00069036419750977FF03C0719561957109D1
:1049D000072E000C880B990B0E948C2820E030E0F9
:1049E00040EC50E40E94EB289B01AC01C701B601EA
:1049F0000E94142A0E94F22A6B017C012DEC3CECEF
:104A00004CEC5DE3C501B4010E94EB284B015C0155
:104A100020E030E040E85FE30E94852887FD05C084
:104A2000D0926D03C0926C0310C0B601DD0C880BF0
:104A3000990B0E948C28A50194010E94EB280E94EA
:104A4000F22A70936D0360936C039FEF291A390A61
:104A500030926B0320926A0380916C0390916D03F6
:104A60008F3F910539F034F08FEF90E090936D0314
:104A700080936C0380916C0390916D0397FF04C049
:104A800010926D0310926C03C8010496099740F4CC
:104A900010926D0310926C0310926B0310926A03D4
:104AA000101611068CF40E94A61083E290E0019784
:104AB000F1F700916C0310916D0360E070E08AE003
:104AC0000E945016B80111C0012B91F00E94A6104F
:104AD00083E290E00197F1F760916C0370916D03B0
:104AE0008AE00E94501660E070E089E00E94501653
:104AF0005092690340926803CE55DF4FA881B98177
:104B0000C25AD040B0936703A093660360E070E0A0
:104B1000CB010E94D416A0906C03B0906D0302C02C
:104B2000A12CB12C80917403882359F10E940E1797
:104B300000917503109176032091770330917803EB
:104B4000DC01CB01801B910BA20BB30B883B9B407C
:104B5000A105B105B0F01092750310927603109282
:104B60007703109278031092740360E088E00E944B
:104B7000E41560E087E00E94E41584EC92E00E9476
:104B8000AE190E940E1700917003109171032091CD
:104B90007203309173036B017C01C01AD10AE20ADF
:104BA000F30AA701960168EE73E080E090E00E94AE
:104BB000462BCA01B9010E948A286B017C010E9420
:104BC0000E17609370037093710380937203909338
:104BD000730342E0C257DF4F688179818A819B81EC
:104BE000CE58D0400E94AA1885EB90E00E948D1903
:104BF00042E0CE56DF4F688179818A819B81C2591C
:104C0000D0400E94AA1882EB90E00E948D1942E0E9
:104C1000C256DF4F688179818A819B81CE59D0400D
:104C20000E94AA188FEA90E00E948D1942E0C656B1
:104C3000DF4F688179818A819B81CA59D0400E9467
:104C4000AA188CEA90E00E948D1942E0CA56DF4F04
:104C5000688179818A819B81C659D0400E94AA18B7
:104C600089EA90E00E948D19B501BB0C880B990B65
:104C70000E94801886EA90E00E948D1960910101DF
:104C800070E080E090E00E94801883EA90E00E944B
:104C90008D19C701B6010E947E190E940C04CCC870
:104CA0000E94172C0C94721D0E94942D8D819E8160
:104CB0009BA38AA30C94821D81E791E090938306C5
:104CC0008093820680919D0690919E06009711F038
:104CD0000C94172C0895EAE9F5E01382128288EE0D
:104CE00093E0A0E0B0E084839583A683B78385E357
:104CF00091E09183808385EC90E09587848784ECB4
:104D000090E09787868780EC90E0918B808B81EC98
:104D100090E0938B828B82EC90E0958B848B86EC79
:104D200090E0978B868B118E128E138E148EE7E394
:104D3000F6E080E580831182E9E3F6E015821682D1
:104D40001186138682E090E0A0E0B0E0848795872A
:104D5000A687B78713A215A614A689E591E093A7A5
:104D600082A717A6E7EBF6E080E090E0A8ECB2E4BB
:104D700080839183A283B38384839583A683B7833F
:104D80004DEC5CEC6CEC7DE3408751876287738768
:104D9000EFE9F6E080839183A283B38384839583D4
:104DA000A683B7834087518762877387E2E8F6E07E
:104DB0001382128220E830E03583248380E490E07F
:104DC000978386833187208793878287158A158604
:104DD00014861786168681E0848B2FEF3FEF338B86
:104DE000228B318B208B868B81E791E091838083AE
:104DF00082E190E0908F878B83E190E0928F818FAA
:104E0000148E138E0895662777270C940727A0E049
:104E1000B0E0EDE0F7E20C94D129EC017B016115E3
:104E2000710519F0DB018D939C938E010F5F1F4F6D
:104E30007880872D90E00E946428892B11F0E8018A
:104E4000F4CFBDE27B1205C00F5F1F4F7980C1E038
:104E500008C0EBE27E1204C08E010E5F1F4F798006
:104E6000C0E06801F1E0CF1AD10843E050E060E70C
:104E700070E0C6010E946D28892BF1F4680122E0E0
:104E8000C20ED11C45E050E06BE670E0C6010E9406
:104E90006D28892B21F4680187E0C80ED11CE1142C
:104EA000F10419F0D701CD92DC92C111FFC060E08E
:104EB00070E080E89FE703C143E050E068E670E0FF
:104EC000C6010E946D28892B51F4E114F10409F404
:104ED000F2C00E5F1F4FF70111830083ECC0680121
:104EE00060E070E0CB0100E010E0F601D0EDD70DFE
:104EF000DA3058F52C2F2260622E2C2F2870C2FF3A
:104F000005C0211128C00F5F1F4F25C0222311F0BB
:104F100001501109A5E0B0E09B01AC010E94C2293B
:104F20004B015C01880C991CAA1CBB1CC501B40177
:104F30006D0F711D811D911D6839A9E97A078A07D6
:104F4000A9E19A0740F0C66005C0DE3F51F4C3FDF9
:104F500044C0C8606C2EBFEFCB1ADB0A7080C62D30
:104F6000C4CF2D2F2F7D2531C1F540814D3211F455
:104F7000C06106C04B3221F0319621E030E006C01E
:104F80003296D60111964C9122E030E0A0EDA40FAC
:104F9000AA3018F0E21BF30B20C040E050E040388C
:104FA000BCE05B075CF49A01220F331F220F331F12
:104FB000420F531F440F551F4A0F511D3196DF01F9
:104FC00011972C91A0EDA20FAA3048F3C4FF03C0A3
:104FD000519541955109040F151FC1FF07C0E114F8
:104FE000F10421F03197D701ED93FC930E948A28B8
:104FF000C370C33019F06B017C0106C06B017C01EA
:10500000F7FAF094F7F8F09420E030E0A901C70136
:10501000B6010E948528882309F445C017FF06C001
:10502000119501951109C7E8D0E002C0CFE9D0E0A1
:105030005E01B8E1AB1AB1084601BE2DAF2D90E27A
:10504000E92EF12C0E151F0584F0FE0125913591F6
:1050500045915491B4018B2F9A2F0E94EB284B015C
:10506000B82FA92F0E191F09EDCF2497F594E794B7
:10507000CA15DB0539F76401EB2EFA2E8E2D880F49
:105080008F2D881F8F3F49F020E030E0A901C70134
:10509000B6010E948528811106C082E290E09093BB
:1050A000D0068093CF06C701B60109C060E070E06A
:1050B00080E89FEF04C060E070E080EC9FE7CDB730
:1050C000DEB7EEE00C94ED2991110C945829803252
:1050D00019F089508550C8F70895FB01DC01415053
:1050E000504088F08D9181341CF08B350CF4805E3B
:1050F000659161341CF06B350CF4605E861B6111A8
:1051000071F3990B0895881BFCCF0E94C72808F4FF
:1051100081E00895E89409C097FB3EF4909580954E
:10512000709561957F4F8F4F9F4F9923A9F0F92F6D
:1051300096E9BB279395F695879577956795B795EB
:10514000F111F8CFFAF4BB0F11F460FF1BC06F5FD1
:105150007F4F8F4F9F4F16C0882311F096E911C0E3
:10516000772321F09EE8872F762F05C0662371F004
:1051700096E8862F70E060E02AF09A95660F771F18
:10518000881FDAF7880F9695879597F90895990FF4
:105190000008550FAA0BE0E8FEEF16161706E80701
:1051A000F907C0F012161306E407F50798F0621B22
:1051B000730B840B950B39F40A2661F0232B242BF7
:1051C000252B21F408950A2609F4A140A6958FEF16
:1051D000811D811D08950E94FE280C9472290E9451
:1051E000642938F00E946B2920F0952311F00C946B
:1051F0005B290C94612911240C94A6290E9483290F
:1052000070F3959FC1F3950F50E0551F629FF00119
:10521000729FBB27F00DB11D639FAA27F00DB11D32
:10522000AA1F649F6627B00DA11D661F829F2227BB
:10523000B00DA11D621F739FB00DA11D621F839F42
:10524000A00D611D221F749F3327A00D611D231F18
:10525000849F600D211D822F762F6A2F11249F5766
:1052600050409AF0F1F088234AF0EE0FFF1FBB1F69
:10527000661F771F881F91505040A9F79E3F510528
:1052800080F00C945B290C94A6295F3FE4F3983ED0
:10529000D4F3869577956795B795F795E7959F5FD2
:1052A000C1F7FE2B880F911D9695879597F9089564
:1052B00099278827089597F99F6780E870E060E054
:1052C00008959FEF80EC089500240A94161617069F
:1052D00018060906089500240A94121613061406E7
:1052E00005060895092E0394000C11F4882352F04A
:1052F000BB0F40F4BF2B11F460FF04C06F5F7F4F02
:105300008F4F9F4F089557FD9058440F551F59F0E8
:105310005F3F71F04795880F97FB991F61F09F3FA2
:1053200079F087950895121613061406551FF2CFCB
:105330004695F1DF08C0161617061806991FF1CF1B
:1053400086957105610508940895E894BB27662742
:105350007727CB0197F90895F999FECF92BD81BDCA
:10536000F89A992780B50895262FF999FECF1FBA8C
:1053700092BD81BD20BD0FB6F894FA9AF99A0FBE7E
:10538000019608950E94042AA59F900DB49F900D48
:10539000A49F800D911D112408952F923F924F924A
:1053A0005F926F927F928F929F92AF92BF92CF92B5
:1053B000DF92EF92FF920F931F93CF93DF93CDB7BE
:1053C000DEB7CA1BDB0B0FB6F894DEBF0FBECDBF36
:1053D00009942A88398848885F846E847D848C8407
:1053E0009B84AA84B984C884DF80EE80FD800C8110
:1053F0001B81AA81B981CE0FD11D0FB6F894DEBFF3
:105400000FBECDBFED010895A29FB001B39FC001B3
:10541000A39F700D811D1124911DB29F700D811DE0
:105420001124911D08955058BB27AA270E942B2AAA
:105430000C9472290E94642938F00E946B2920F094
:1054400039F49F3F19F426F40C9461290EF4E09589
:10545000E7FB0C945B29E92F0E94832958F3BA17C4
:10546000620773078407950720F079F4A6F50C947A
:10547000A5290EF4E0950B2EBA2FA02D0B01B90132
:1054800090010C01CA01A0011124FF27591B99F0BA
:10549000593F50F4503E68F11A16F040A22F232FC6
:1054A000342F4427585FF3CF469537952795A79516
:1054B000F0405395C9F77EF41F16BA0B620B730BBD
:1054C000840BBAF09150A1F0FF0FBB1F661F771F2E
:1054D000881FC2F70EC0BA0F621F731F841F48F4E3
:1054E000879577956795B795F7959E3F08F0B0CF6C
:1054F0009395880F08F09927EE0F97958795089553
:105500000E94942A0C9472290E946B2958F00E94E0
:10551000642940F029F45F3F29F00C945B29511174
:105520000C94A6290C9461290E94832968F399237D
:10553000B1F3552391F3951B550BBB27AA2762178F
:105540007307840738F09F5F5F4F220F331F441F9C
:10555000AA1FA9F335D00E2E3AF0E0E832D09150D0
:105560005040E695001CCAF72BD0FE2F29D0660FBD
:10557000771F881FBB1F261737074807AB07B0E800
:1055800009F0BB0B802DBF01FF2793585F4F3AF006
:105590009E3F510578F00C945B290C94A6295F3F3F
:1055A000E4F3983ED4F3869577956795B795F7958C
:1055B0009F5FC9F7880F911D9695879597F9089574
:1055C000E1E0660F771F881FBB1F62177307840710
:1055D000BA0720F0621B730B840BBA0BEE1F88F71F
:1055E000E09508950E94F92A6894B1110C94A629B7
:1055F00008950E948B2988F09F5798F0B92F99271A
:10560000B751B0F0E1F0660F771F881F991F1AF0AD
:10561000BA95C9F714C0B13091F00E94A529B1E044
:1056200008950C94A529672F782F8827B85F39F043
:10563000B93FCCF3869577956795B395D9F73EF446
:1056400090958095709561957F4F8F4F9F4F0895EE
:105650000E94C72808F48FEF08950E94C728880B7E
:10566000990B089597FB072E16F4009407D077FD49
:1056700009D00E94682B07FC05D03EF490958195D7
:105680009F4F0895709561957F4F0895A1E21A2E5E
:10569000AA1BBB1BFD010DC0AA1FBB1FEE1FFF1FD6
:1056A000A217B307E407F50720F0A21BB30BE40B26
:1056B000F50B661F771F881F991F1A9469F760956D
:1056C0007095809590959B01AC01BD01CF01089527
:1056D000AA1BBB1B51E107C0AA1FBB1FA617B70718
:1056E00010F0A61BB70B881F991F5A95A9F7809534
:1056F0009095BC01CD010895EE0FFF1F0590F49128
:10570000E02D0994CF93DF938230910510F482E06D
:1057100090E0E091D306F091D40620E030E0C0E0C4
:10572000D0E0309711F14081518148175907C0F0FE
:105730004817590761F482819381209719F09B8360
:105740008A832BC09093D4068093D30626C021155C
:10575000310519F04217530718F49A01BE01DF0111
:10576000EF010280F381E02DDCCF2115310509F135
:10577000281B390B2430310590F412968D919C91A1
:1057800013976115710521F0FB019383828304C097
:105790009093D4068093D306FD01329644C0FD0158
:1057A000E20FF31F81939193225031092D933C9383
:1057B0003AC02091D1063091D206232B41F420919A
:1057C0001A0130911B013093D2062093D10620910B
:1057D0001801309119012115310541F42DB73EB75B
:1057E00040911C0150911D01241B350BE091D10605
:1057F000F091D206E217F307A0F42E1B3F0B2817F7
:10580000390778F0AC014E5F5F4F2417350748F039
:105810004E0F5F1F5093D2064093D1068193919310
:1058200002C0E0E0F0E0CF01DF91CF9108950F9347
:105830001F93CF93DF93009709F48CC0FC0132973C
:10584000138212820091D3061091D406011511051E
:1058500081F420813181820F931F2091D1063091F4
:10586000D2062817390779F5F093D206E093D106CE
:1058700071C0D80140E050E0AE17BF0750F4129657
:105880002D913C911397AD012115310509F1D901F5
:10589000F3CF9D01DA013383228360817181860F0A
:1058A000971F8217930769F4EC0128813981260F2D
:1058B000371F2E5F3F4F318320838A819B819383E3
:1058C0008283452B29F4F093D406E093D30642C09B
:1058D0001396FC93EE931297ED01499159919E0115
:1058E000240F351FE217F30771F480819181840F33
:1058F000951F029611969C938E93828193811396A5
:105900009C938E931297E0E0F0E0D80112968D916F
:105910009C911397009719F0F8018C01F6CF8D91A7
:105920009C9198012E5F3F4F820F931F2091D106CB
:105930003091D2062817390769F4309729F410926C
:10594000D4061092D30602C0138212821093D2069C
:105950000093D106DF91CF911F910F910895A0E0A0
:10596000B0E0E5EBFCE20C94D129EC01009721F4C6
:10597000CB010E94822BB8C0FC01E60FF71F9C01EF
:1059800022503109E217F30708F4ACC0D9010D9198
:105990001C91119706171707B0F00530110508F490
:1059A0009FC0C80104978617970708F499C0025052
:1059B0001109061B170B019311936D937C93CF0173
:1059C0000E94172C8DC05B01A01AB10A4C01800EF9
:1059D000911EA091D306B091D40640E050E0E12C96
:1059E000F12C109709F44AC0A815B905D1F56D90AE
:1059F0007C901197630182E0C80ED11CCA14DB04AD
:105A000080F1A3014A195B096A0182E0C80ED11C2A
:105A10001296BC9012971396AC91B5E0CB16D104B8
:105A200040F0B282A38351834083D9016D937C936C
:105A30000AC00E5F1F4FC301800F911FF9019183B0
:105A40008083EB2DFA2FE114F10431F0D701139686
:105A5000FC93EE93129744C0F093D406E093D306E0
:105A60003FC08D919C9111974817590708F4AC01DC
:105A70007D0112960D90BC91A02DB3CF8091D106DF
:105A80009091D20688159905E1F446175707C8F496
:105A90008091180190911901009741F48DB79EB73C
:105AA00040911C0150911D01841B950BE817F907CB
:105AB000C8F4F093D206E093D106F90171836083B4
:105AC0000FC0CB010E94822B7C01009759F0A801E6
:105AD000BE010E948B2DCE010E94172CC70104C06D
