:100000000C9462040C94F01B0C94C51B0C949A1B6A
:100010000C946F1B0C94441B0C94191B0C94EE1A3B
:100020000C94C31A0C9493040C9493040C949304AE
:100030000C9493040C9493040C9493040C949304E4
:100040000C9493040C9493040C9493040C949304D4
:100050000C9493040C9493040C9493040C94791AC8
:100060000C9493040C94E8050C94BE050C94930432
:100070000C9493040C9493040C9493040C949304A4
:100080000C9493040C9493040C9493040C94930494
:100090000C9493040C9493040C9493040C94930484
:1000A0000C9493040C9493040C9493040C94930474
:1000B0000C9493040C9493040C9493040C94930464
:1000C0000C9493040C9493040C9493040C94930454
:1000D0000C9493040C9493040C9493040C94930444
:1000E0000C949304980D9B0D8A0D8E0D940DD20DDA
:1000F0009F0DA30DA90DAD0DB10DB70DBB0DBF0D1E
:10010000D20DC50DC90DCD0D7D1182118711911133
:100110009B111412A511AD11B511BF11C911D31145
:10012000E211EC111412F61100120A120C94202B99
:100130000C9491110C941E140C9487140C949B0D28
:100140000C9444050C94AD0D0C94B4120C94091746
:100150000C94251A0C9456160C94BF110C94B82BC1
:100160000C9471140C94BE190C94C90D0C94C50D0B
:100170000C94980D0C94AD110C949E140C94940D49
:100180000C9414120C9495040C94B8040C94D31190
:100190000C94CD0D0C94D20D0C946C0D0C947D111F
:1001A0000C949F050C94E5170C94CD150C940A1231
:1001B0000C94C8190C94D1150C94F6110C94A5113B
:1001C0000C943C140C94A4040C94C4160C94F512D6
:1001D0000C94E2110C94A30D0C94B70D0C94A11780
:1001E0000C94ED140C94B5110C9487110C949F0D84
:1001F0000C94C9110C94BF0D0C94BC050C9496156D
:100200000C949B110C9499170C948E0D0C94C604AD
:100210000C94FD040C94BD170C94F4120C94001271
:100220000C94B7150C9482110C94EC110C94CE150F
:100230000C94271A0C94B10D0C94BB0D0C948A0DE0
:100240000C94A90D4E414E494E495459494E46CD44
:10025000CCCC3D0AD7233C17B7D13877CC2B32957D
:1002600095E6241FB14F0A000020410000C842005B
:10027000401C4620BCBE4CCA1B0E5AAEC59D742CF9
:1002800020002C20002C20002C20002C20002C20D2
:10029000002C200000002100240027002A002D004F
:1002A0003000330001010000040107010A010000D1
:1002B0002200250028002B002E003100340002010E
:1002C0000000050108010B010000200023002600AA
:1002D00029002C002F00320000010000030106015C
:1002E00009010505050507050808080802020202BC
:1002F0000A0A0808040404040101010101010101C2
:100300000303030303030303040707070C0C0C0C8C
:100310000C0C0C0C02020202060606060606060675
:100320000B0B0B0B0B0B0B0B010210202008081002
:100330002040102040800201020108040201010255
:10034000040810204080804020100804020180042E
:100350000201804020100804020108040201010289
:100360000408102040800102040810204080000092
:100370000A0B02090C0D0E0807030401000000001F
:10038000000000000000000000000000000000006D
:10039000000000000000000000001211100000002A
:1003A000000000000000000000000000000000004D
:1003B000000000007C3C3E5E2B3D3F2F5B5D3B2CF4
:1003C0002A225C0000000000003E5B4F5B3E3E6B5B
:1003D0004F6B3E1C3E7C3E1C183C7E3C181C577DDF
:1003E000571C1C5E7F5E1C00183C1800FFE7C3E72B
:1003F000FF0018241800FFE7DBE7FF30483A060E3D
:100400002629792926407F050507407F05253F5A83
:100410003CE73C5A7F3E1C1C08081C1C3E7F1422F3
:100420007F22145F5F005F5F06097F017F0066899E
:10043000956A606060606094A2FFA29408047E04E4
:100440000810207E201008082A1C08081C2A08080A
:100450001E101010100C1E0C1E0C30383E383006CA
:100460000E3E0E06000000000000005F00000007C6
:10047000000700147F147F14242A7F2A12231308F4
:10048000646236495620500008070300001C2241D0
:10049000000041221C002A1C7F1C2A08083E080874
:1004A0000080703000080808080800006060002024
:1004B000100804023E5149453E00427F4000724907
:1004C0004949462141494D331814127F10274545AB
:1004D00045393C4A494931412111090736494949C1
:1004E00036464949291E000014000000403400002F
:1004F0000008142241141414141400412214080298
:10050000015909063E415D594E7C1211127C7F490A
:100510004949363E414141227F4141413E7F49495F
:1005200049417F090909013E414151737F0808088B
:100530007F00417F41002040413F017F081422415C
:100540007F404040407F021C027F7F0408107F3EB6
:100550004141413E7F090909063E4151215E7F0923
:10056000192946264949493203017F01033F40408A
:10057000403F1F2040201F3F4038403F6314081475
:100580006303047804036159494D43007F414141AD
:100590000204081020004141417F0402010204408E
:1005A00040404040000307080020545478407F2812
:1005B0004444383844444428384444287F38545408
:1005C000541800087E090218A4A49C787F0804042B
:1005D0007800447D40002040403D007F10284400CA
:1005E00000417F40007C047804787C08040478385B
:1005F00044444438FC1824241818242418FC7C088B
:10060000040408485454542404043F44243C404007
:10061000207C1C2040201C3C4030403C44281028BA
:10062000444C9090907C4464544C44000836410003
:100630000000770000004136080002010204023C7D
:100640002623263C1EA1A161123A4040207A38544C
:1006500054555921555579412154547841215554C7
:10066000784020545579400C1E5272123955555518
:1006700059395454545939555454580000457C4103
:100680000002457D420001457C40F0292429F0F01C
:10069000282528F07C545545002054547C547C0A6D
:1006A000097F4932494949323248484832324A483A
:1006B00048303A4141217A3A42402078009DA0A03A
:1006C0007D39444444393D4040403D3C24FF24248E
:1006D000487E4943662B2FFC2F2BFF0929F620C0AB
:1006E000887E090320545479410000447D413048FC
:1006F000484A32384040227A007A0A0A727D0D193F
:10070000317D2629292F28262929292630484D40A0
:1007100020380808080808080808382F10C8ACBA9C
:100720002F102834FA00007B000008142A1422221B
:10073000142A1408AA005500AAAA55AA55AA00000E
:1007400000FF00101010FF00141414FF001010FF21
:1007500000FF1010F010F0141414FC001414F70033
:10076000FF0000FF00FF1414F404FC141417101F02
:1007700010101F101F1414141F00101010F0000090
:1007800000001F101010101F10101010F0100000AB
:1007900000FF101010101010101010FF10000000BB
:1007A000FF140000FF00FF00001F10170000FC04F2
:1007B000F414141710171414F404F40000FF00F7D5
:1007C00014141414141414F700F714141417141038
:1007D000101F101F141414F4141010F010F0000067
:1007E0001F101F0000001F14000000FC140000F088
:1007F00010F01010FF10FF141414FF141010101F2D
:1008000000000000F010FFFFFFFFFFF0F0F0F0F03D
:10081000FFFFFF0000000000FFFF0F0F0F0F0F385A
:10082000444438447C2A2A3E147E02020606027E94
:10083000027E0263554941633844443C04407E20B3
:100840001E2006027E020299A5E7A5991C2A492AC4
:100850001C4C7201724C304A4D4D30304878483053
:10086000BC625A463D3E494949007E0101017E2A4B
:100870002A2A2A2A44445F444440514A444040447E
:100880004A51400000FF0103E080FF000008086BB0
:100890006B083612362436060F090F0600001818AA
:1008A0000000001010003040FF0101001F01011E78
:1008B00000191D1712003C3C3C3C000000000000E9
:1008C000202BB82B11241FBECFEFD1E2DEBFCDBF4E
:1008D00000E00CBF28E0A4E5B4E001C01D92A634FE
:1008E000B207E1F714E0A0E0B2E0E8EFF4E600E0E0
:1008F0000BBF02C007900D92A435B107D9F714E0E1
:10090000C1E6D4E000E006C021970109802FFE0176
:100910000E940730C036D10780E00807A9F70E947F
:10092000E91D0C946A320C940000FC01538D448D37
:10093000252F30E0842F90E0821B930B541710F08A
:10094000CF96089501970895FC01918D828D981797
:1009500061F0828DDF01A80FB11D5D968C91928DA3
:100960009F5F9F73928F90E008958FEF9FEF0895A0
:10097000FC01918D828D981731F0828DE80FF11D69
:10098000858D90E008958FEF9FEF0895FC01918D84
:10099000228D892F90E0805C9F4F821B91098F737D
:1009A0009927089580E097E00E94C60421E0892BF2
:1009B00009F420E0822F0895FC01848DDF01A80F47
:1009C000B11DA35ABF4F2C91848D90E001968F7377
:1009D0009927848FA689B7892C93A089B1898C9196
:1009E00080648C93938D848D981306C00288F3895C
:1009F000E02D80818F7D80830895EF92FF920F9389
:100A00001F93CF93DF93EC0181E0888F9B8D8C8DBA
:100A1000981305C0E889F989808185FD24C0F62EE8
:100A20000B8D10E00F5F1F4F0F731127E02E8C8D81
:100A3000E8120CC00FB607FCFACFE889F98980816B
:100A400085FFF5CFCE010E94DC04F1CF8B8DFE0136
:100A5000E80FF11DE35AFF4FF0820B8FEA89FB8903
:100A60008081806207C0EE89FF896083E889F98907
:100A700080818064808381E090E0DF91CF911F913D
:100A80000F91FF90EF900895CF93DF93EC01888D45
:100A90008823C9F0EA89FB89808185FD05C0A88982
:100AA000B9898C9186FD0FC00FB607FCF5CF808108
:100AB00085FFF2CFA889B9898C9185FFEDCFCE0152
:100AC0000E94DC04E7CFDF91CF91089580E090E0B1
:100AD000892B21F00E94D204811125C080E090E092
:100AE000892B41F080E090E0892B21F00E940000EA
:100AF00081111CC080E090E0892B41F080E090E003
:100B0000892B21F00E940000811113C080E090E049
:100B1000892BA1F080E090E0892B81F00E940000F9
:100B200081110AC008950E940000D8CF0E940000E1
:100B3000E1CF0E940000EACF0C9400000895EF92EC
:100B4000FF920F931F93CF938C017A01C62F6C2FC6
:100B500070E06E157F0554F4D801ED91FC91048C82
:100B6000F58DE02DC8011995CF5FF1CFCF911F9181
:100B70000F91FF90EF9008950E9439321F920F92CB
:100B80000FB60F9211240BB60F922F933F934F93F2
:100B90005F936F937F938F939F93AF93BF93EF93E5
:100BA000FF9380E097E00E94DC04FF91EF91BF91FA
:100BB000AF919F918F917F916F915F914F913F91F5
:100BC0002F910F900BBE0F900FBE0F901F90189596
:100BD0001F920F920FB60F9211240BB60F922F9304
:100BE0008F939F93EF93FF93E0911007F09111077C
:100BF0008081E0911607F091170782FD12C0908165
:100C0000809119078F5F8F7320911A07821751F017
:100C1000E0911907F0E0E050F94F958F80931907A4
:100C200001C08081FF91EF919F918F912F910F9043
:100C30000BBE0F900FBE0F901F9018958FB7F894B2
:100C40008091F0048FBF089561E0FC0184810E94CF
:100C5000E8108091EF0481111092EF0408958EBD89
:100C600000000DB407FEFDCF8EB508958FEF0C94F4
:100C70002F060F931F93CF93DF93EB010E947C12FB
:100C80008B010E9436068F3F49F00E947C12601B48
:100C9000710B6C177D07A8F380E001C081E0DF9144
:100CA000CF911F910F910895CF93DF93EC018E8127
:100CB000882389F08F8198859C012F5F3F4F38876B
:100CC0002F838230924018F40E943606F3CFCE0173
:100CD0000E9424061E82DF91CF9108958CBD9DBD98
:100CE0000895CF93DF93EC018091EF04811109C047
:100CF00081E08093EF0480919D0790919E070E9470
:100D00006E0660E08C81DF91CF910C94E810CF9259
:100D1000DF92FF920F931F93CF93DF9300D01F9228
:100D2000CDB7DEB76C01F62E29833A834B835C8303
:100D30000E945406C6010E9471066CE271E0C60171
:100D40000E9439068F2D80640E942F0608E110E072
:100D50005C814B813A812981DA01C901002E04C0EE
:100D6000B695A795979587950A94D2F729833A83E4
:100D70004B835C830E942F060850110929813A8118
:100D80004B815C81083F8FEF180731F7FF2029F076
:100D9000E8E0FE1204C087E803C085E901C08FEFD8
:100DA0000E942F0610E00E943606F601828787FF18
:100DB00004C01F3F11F01F5FF6CF0F900F900F90F0
:100DC0000F90DF91CF911F910F91FF90DF90CF9007
:100DD0000895AF92BF92CF92DF92EF92FF920F935E
:100DE0001F93CF93DF93EC016901C801820F931F1A
:100DF0008130924008F070C08E81882371F0888124
:100E00009981AA81BB81481759076A077B0729F492
:100E10008F819885C816D906B0F5488359836A83AF
:100E20007B838B85833039F089E0440F551F661F23
:100E3000771F8A95D1F79A01AB0161E1CE010E943B
:100E40008706882319F083E08D8346C00E947C12B8
:100E50005B010E9436068A878F3F49F40E947C120C
:100E60006A197B096D327140A0F38FE003C08E3F99
:100E700031F08DE08D83CE010E9424062DC01886AE
:100E80001F8281E08E838F8198858C159D0540F4AB
:100E90000E9436068F819885019698878F83F3CFBD
:100EA0006701E00EF11ECE14DF0431F00E94360619
:100EB000F60181936F01F7CF8F819885080F191F75
:100EC00018870F838985882319F00115124048F08F
:100ED000CE010E94540605C0CE010E94240680E087
:100EE00001C081E0DF91CF911F910F91FF90EF90B2
:100EF000DF90CF90BF90AF900895EF92FF920F9345
:100F00001F93CF93DF93EC017901411551056105E2
:100F1000710511F482E13CC08B85833039F089E0A2
:100F2000440F551F661F771F8A95D1F79A01AB01B1
:100F300068E1CE010E948706882311F084E028C072
:100F40008EEF0E942F0687018EEFF81AF80181912B
:100F50008F010E942F060E151F05C1F78FEF0E940B
:100F60002F068FEF0E942F060E9436068A878F7108
:100F7000853031F081E18D83CE010E94240609C0C5
:100F800068E572E0CE010E943906811107C085E153
:100F90008D83CE010E94240680E013C020E030E063
:100FA000A9016DE0CE010E948706811104C00E9454
:100FB0003606882311F084E1EBCFCE010E9424068F
:100FC00081E0DF91CF911F910F91FF90EF900895F5
:100FD0008091FF048823A9F14091100250911102E1
:100FE000609112027091130220E035E08091FD04BF
:100FF0009091FE040E947D07811102C080E0089557
:101000004091F1045091F2046091F3047091F40462
:10101000411551056105710591F020E035E08091A1
:10102000FD049091FE040E947D07882339F31092FD
:10103000F1041092F2041092F3041092F40410924E
:10104000FF0481E008958F929F92AF92BF92EF923A
:10105000FF920F931F93CF934B015C01C42F80919C
:10106000100290911102A0911202B0911302881502
:101070009905AA05BB0501F10E94E807811102C08C
:1010800080E020C080E0E82E85E0F82E00E012E04D
:1010900020E030E0B501A4018091FD049091FE04B0
:1010A0000E94E906882361F3809210029092110257
:1010B000A0921202B09213028091FF04C82BC09339
:1010C000FF0481E0CF911F910F91FF90EF90BF90AF
:1010D000AF909F908F9008954F925F926F927F9202
:1010E0008F929F92AF92BF92CF92DF92EF92FF9238
:1010F0000F931F93CF93DF93EC016A017B012801CB
:101100003901423051056105710510F480E073C06A
:1011100089859A85AB85BC850196A11DB11D841773
:101120009507A607B70790F38B889C88AD88BE8883
:101130008F89803129F4BB27AF2D9E2D8D2D09C0BD
:10114000DB01CA0147E0B695A795979587954A9523
:10115000D1F7880E991EAA1EBB1E80911002909195
:101160001102A0911202B091130288169906AA06E4
:10117000BB0679F48F898031A1F4DD24EE24FF24AD
:10118000C601880F991FFC01E050FB4F518240823D
:1011900019C040E0C501B4010E9423088111EACFC3
:1011A000B5CFE894C7F8DD24EE24FF24C601880FEC
:1011B000991F880F991FFC01E050FB4F408251821C
:1011C000628273828091FF0481608093FF048A8928
:1011D000823080F08D819E81AF81B885880E991E06
:1011E000AA1EBB1E8092F1049092F204A092F30416
:1011F000B092F40481E0DF91CF911F910F91FF90A5
:10120000EF90DF90CF90BF90AF909F908F907F90A6
:101210006F905F904F9008958F929F92AF92BF9280
:10122000CF92DF92EF92FF920F931F93CF93DF93B2
:10123000FC0181859285A385B4850196A11DB11D10
:1012400084179507A607B70710F480E05CC0838970
:101250009489A589B689C789C03129F4852E962E2F
:10126000A72EBB2409C04A015B01C7E0B694A7942E
:1012700097948794CA95D1F7E9016A017B018F01A0
:10128000BC01CD01680D791D8A1D9B1D8090100247
:1012900090901102A0901202B09013026815790587
:1012A0008A059B0599F4F80187898031A9F4B70173
:1012B000A601552766277727440F551FFA01E050EE
:1012C000FB4F80819181A0E0B0E018C040E00E9417
:1012D00023088111E8CFB9CFB701A6014F77552771
:1012E00066277727440F551F440F551FFA01E0501A
:1012F000FB4F80819181A281B381BF7088839983E4
:10130000AA83BB8381E0DF91CF911F910F91FF9062
:10131000EF90DF90CF90BF90AF909F908F90089507
:101320004F925F926F927F92AF92BF92CF92DF9275
:10133000EF92FF920F931F93CF93DF9300D01F92F2
:10134000CDB7DEB78C0149835A836B837C83590107
:10135000C12CD12C7601412C82E0582E612C712CAD
:1013600049815A816B817C819E012F5F3F4FC8016B
:101370000E940C09882351F1D301C201F8010584B0
:1013800004C0880F991FAA1FBB1F0A94D2F7C80E6A
:10139000D91EEA1EFB1E49815A816B817C81878997
:1013A000803129F088EF9FEFAFEFBFE004C088EFF6
:1013B0009FEFA0E0B0E0481759076A077B0780F26B
:1013C000F501C082D182E282F38281E00F900F901A
:1013D0000F900F90DF91CF911F910F91FF90EF90A1
:1013E000DF90CF90BF90AF907F906F905F904F90C5
:1013F00008958F929F92AF92BF92CF92DF92EF9219
:10140000FF920F931F93CF93DF93EC018D81811196
:1014100002C080E077C00B891C892D893E890417A2
:10142000150726073707A8F36A017B01823029F4E4
:10143000CA86DB86EC86FD860DC0C114D104E104AA
:10144000F10451F41E821F82188619861A861B86A3
:101450001C861D8681E056C08A849B84AC84BD8432
:10146000EB8DFC8D258530E0275F3F4FB501A40152
:101470004150510961097109022E04C076956795A2
:10148000579547950A94D2F7D701C6010197A1094C
:10149000B10904C0B695A795979587952A95D2F777
:1014A00084179507A607B70720F089288A288B2874
:1014B00049F44F89588D698D7A8D4E835F83688793
:1014C000798704C0841B950BA60BB70B4C015D01FB
:1014D0008E010A5F1F4F81149104A104B10409F425
:1014E000A7CF4E815F816885798598018B8D9C8D12
:1014F0000E940C0991E0891A9108A108B108811194
:10150000EACF87CFDF91CF911F910F91FF90EF909E
:10151000DF90CF90BF90AF909F908F9008953F92B3
:101520004F925F926F927F928F929F92AF92BF92F3
:10153000CF92DF92EF92FF920F931F93CF93DF939F
:10154000CDB7DEB72C970FB6F894DEBF0FBECDBF78
:101550005C01DC015B968D909C905C971696CD901B
:10156000DD90ED90FC901997C114D104E104F104D1
:1015700039F0BFEFCB1ADB0AEB0AFB0A312C07C0AC
:10158000F401C080D180E280F38033243394F401ED
:1015900081859285A385B4859C01AD012F5F3F4F66
:1015A0004F4F5F4F29873A874B875C87260137016A
:1015B0001D821E821F821886F40181859285A38573
:1015C000B4852D813E814F815885281739074A07F8
:1015D0005B0708F063C089859A85AB85BC858C154F
:1015E0009D05AE05BF0550F482E0C82ED12CE12C3C
:1015F000F12C92E0492E512C612C712C9E012F5F11
:101600003F4FB701A601C4010E940C09882309F4C9
:1016100045C089819A81AB81BC81892B8A2B8B2B18
:1016200041F0260137019FEF491A590A690A790AE0
:1016300005C0C414D504E604F70491F02D813E8161
:101640004F8158852F5F3F4F4F4F5F4F2D833E8314
:101650004F8358873FEFC31AD30AE30AF30AACCF8C
:101660000FEF1FEF2FEF3FE0B301A201C4010E9473
:101670006C08882399F0D50116964D915D916D9176
:101680007C911997411551056105710549F0930148
:101690008201C4010E946C08811102C080E02AC04E
:1016A000D50116964D925D926D927C9219973320DA
:1016B00051F0D301C2010196A11DB11DF401808337
:1016C0009183A283B383F5018789908DA18DB28D1B
:1016D000892B8A2B8B2B69F4D50157964D925D92FD
:1016E0006D927C925A9714968C91149780681496F8
:1016F0008C9381E02C960FB6F894DEBF0FBECDBF61
:10170000DF91CF911F910F91FF90EF90DF90CF90DD
:10171000BF90AF909F908F907F906F905F904F9011
:101720003F900895CF93DF93EC018D818823A1F141
:101730008C8187FF2DC06E857F858889998941E0DE
:101740000E942308882341F1EA8980E2E89FF001A2
:101750001124DF01A050BB4F1097F1F08D81823032
:1017600050F44B895C896D897E895C964D935D93BD
:101770006D937C935F978F89988DA98DBA8DE0507A
:10178000FB4F938F828FB58BA48B8C818F778C834B
:10179000DF91CF910C94E80780E0DF91CF9108951D
:1017A000CF93DF93EC010E94920B882311F01D82EE
:1017B00081E0DF91CF9108952F923F924F925F92F7
:1017C0006F927F928F929F92AF92BF92CF92DF9251
:1017D000EF92FF920F931F93CF93DF9300D01F924E
:1017E000CDB7DEB78C015B011A01DC0115968C9137
:1017F00015978130C9F414968C9181FF15C082FF32
:101800001BC0F8014389548965897689828593854F
:10181000A485B58584179507A607B70769F0C801A1
:101820000E94F909811108C081E090E0F8019383DA
:10183000828380E090E039C1610183C0D8015B966A
:101840008D919C915C97FC01248121502A013B01E0
:1018500039E076946794579447943A95D1F7722E6D
:1018600074207A01F1E0FF22772009F476C080E04D
:1018700092E08E199F0946018C159D0508F44C01D4
:10188000D8015B962D913C915C9716968D919D9118
:101890000D90BC91A02D0297A109B109F901058411
:1018A00004C0880F991FAA1FBB1F0A94D2F7468550
:1018B000578560897189840F951FA61FB71F9C01EA
:1018C000AD01270D311D411D511D29013A01811422
:1018D00032E0930609F088C08091100290911102C5
:1018E000A0911202B091130284159505A605B705C3
:1018F00059F48FEF9FEFDC01809310029093110257
:10190000A0931202B09313029501B301A20180913A
:10191000FD049091FE040E947D07882309F484CF82
:101920009EEFB91AC818D908F80182859385A48555
:10193000B585880D991DA11DB11D82879387A48748
:10194000B587D8011A964D915D916D917C911D9747
:10195000C114D10409F072CF87C0E114F10409F079
:1019600086CF16964D915D916D917C911997411599
:1019700051056105710559F457968D919D910D9012
:10198000BC91A02D0097A105B10541F521C09E0194
:101990002F5F3F4F0E940C09882309F44BCF8981A8
:1019A0009A81AB81BC81F801238D348DF90127899F
:1019B000203129F048EF5FEF6FEF7FE004C048EF80
:1019C0005FEF60E070E084179507A607B70730F077
:1019D000C8010E948F0A81114ACF26CFF801868361
:1019E0009783A087B18743CFE114F10429F5D8018B
:1019F0001A964D915D916D917C911D9753968D91A5
:101A00009D910D90BC91A02D481759076A077B073F
:101A100098F00E94E807882309F406CF409210024C
:101A20005092110260921202709213028091FF0490
:101A300081608093FF0408C041E0C301B2010E94AD
:101A40002308882309F4F0CED501F701E050FB4FBD
:101A5000CF01880D991DE817F90719F02D912193F1
:101A6000FACFA80CB91C5ECF53968D919D910D9025
:101A7000BC91A02D84179507A607B70740F4F8017D
:101A8000438B548B658B768B848180688483D801EB
:101A900014968C9183FD02C0C10107C0C8010E9449
:101AA000920B882309F4C0CEF7CF0F900F900F90C0
:101AB0000F90DF91CF911F910F91FF90EF90DF90EA
:101AC000CF90BF90AF909F908F907F906F905F90DE
:101AD0004F903F902F900895CF93DF931F92CDB7F3
:101AE000DEB7698341E050E0BE016F5F7F4F0E9427
:101AF000DC0B0F90DF91CF91089590E0FC013197BE
:101B0000E231F10508F04EC08827EE58FF4F8F4FA5
:101B10000C940730809180008F7703C08091800003
:101B20008F7D80938000089580918000877FF9CF1A
:101B300084B58F7702C084B58F7D84BD0895809170
:101B4000B0008F7703C08091B0008F7D8093B0008C
:101B50000895809190008F7707C0809190008F7DCD
:101B600003C080919000877F8093900008958091BA
:101B7000A0008F7707C08091A0008F7D03C0809167
:101B8000A000877F8093A0000895809120018F7727
:101B900007C0809120018F7D03C080912001877F45
:101BA000809320010895CF93DF93EC016A8B80919D
:101BB000100290911102A0911202B09113028E872F
:101BC0009F87A88BB98B80E2689FF0011124E050B9
:101BD000FB4F4489558960E070E0BA0155274427DE
:101BE0004F8B588F698F7A8F828D938DA0E0B0E0F4
:101BF000482B592B6A2B7B2B4F8B588F698F7A8FF1
:101C00008385887151F4848D958DA68DB78D8B8BCE
:101C10009C8BAD8BBE8B81E00EC0803111F080E0DB
:101C200015C09E012D5E3F4F8B8D9C8D0E949009AB
:101C30008823A9F384E08D8381E08C831E821F8238
:101C4000188619861A861B861C861D86DF91CF9101
:101C50000895CF92DF92EF92FF920F931F93CF934D
:101C6000DF9377FF1DC06A017B01EC016DE20E94EA
:101C70008C1C8C0144275527BA014C195D096E094B
:101C80007F092AE0CE010E94A81C800F911FDF91DE
:101C9000CF911F910F91FF90EF90DF90CF9008951B
:101CA0002AE0DF91CF911F910F91FF90EF90DF908D
:101CB000CF900C94A81CAF92BF92CF92DF92EF927C
:101CC000FF920F931F93CF93DF93CDB7DEB72B9780
:101CD0000FB6F894DEBF0FBECDBF7C01CE010196DA
:101CE0006C01FC0190E28BE08C0D91938E13FDCF83
:101CF000DA0120E037E09D91992339F19E3219F005
:101D0000E4EBF3E00AC03A3009F4AAC028E03AE074
:101D1000F2CF3196891709F4A3C084918111F9CFCC
:101D2000321708F49DC08FED890F8E3508F098C0EA
:101D300081E0820FF601E20FF11D2FE9290F2A3110
:101D400008F490529083282FD6CF8981803209F4ED
:101D500087C08B01FB01838D948DF701948F838F56
:101D6000FB0116821782108611861286138614864E
:101D70001586A12CF80182859385A485B5854389B4
:101D800054896589768984179507A607B70708F0EF
:101D900067C025E0B695A795979587952A95D1F7C1
:101DA000F82FFF70BF2EF8018581823008F458C0EB
:101DB000C8010E94B31897FD53C0F801828593852E
:101DC000A485B5854F96A11DB11D82879387A487F1
:101DD000B587F0E2BF9EC0011124BC0160507B4F6B
:101DE00061157105E9F1FB0120812223B9F1253E3E
:101DF000E1F04BE050E0C6010E943E32892B09F031
:101E0000B9CF6B2DC7012B960FB6F894DEBF0FBE6E
:101E1000CDBFDF91CF911F910F91FF90EF90DF9099
:101E2000CF90BF90AF900C94D30DA11014C0F701C8
:101E3000B28A409110025091110260911202709189
:101E4000130246875787608B718BFC01E050FB4F74
:101E50008081882329F0AA24A3948CCFAA2039F367
:101E600080E02B960FB6F894DEBF0FBECDBFDF919A
:101E7000CF911F910F91FF90EF90DF90CF90BF9087
:101E8000AF9008958F929F92AF92BF92CF92DF92C0
:101E9000EF92FF92CF93DF93C82F8FE997E0909353
:101EA000FE048093FD04CC2369F1C53010F080E07E
:101EB0000DC140E060E070E0CB010E942308882360
:101EC000B1F320E1C29FC001112480519B4FFC015E
:101ED000E254FE4F20812F7751F73C96408151818B
:101EE00062817381443651056105710500F33497B1
:101EF000C080D180E280F380C114D104E104F104F8
:101F000021F4D5CFC12CD12C760140E0C701B60118
:101F10000E942308882359F280910B0590910C05AB
:101F20008115924021F6A0911005AA2309F4BFCF94
:101F300060910E0570910F056115710509F4B7CF19
:101F400020910D05222309F4B2CFA093BD07209361
:101F5000AF0780E030E0E1E0F0E0C82FAF01082EED
:101F600002C0440F551F0A94E2F72417350741F0C9
:101F7000982F8F5F983089F789E08093B80797CFC3
:101F80008093B8072091160530911705211531056A
:101F900019F040E050E008C020912405309125055B
:101FA00040912605509127052093B0073093B10743
:101FB0004093B2075093B30746015701860E971E10
:101FC000A11CB11C8092BE079092BF07A092C007CF
:101FD000B092C107E0911105F0911205F093C4078A
:101FE000E093C307B0E00E94982E860E971EA81EAD
:101FF000B91E8092C5079092C607A092C707B092FB
:10200000C80785E0EE0FFF1F8A95E1F7E150FE4F0C
:10201000EF2FFF27E6958E0E9F1EA11CB11C80920C
:10202000B9079092BA07A092BB07B092BC07209163
:102030001305309114052115310521F0A90160E047
:1020400070E008C040912005509121056091220563
:1020500070912305D701C60188199909AA09BB09FE
:10206000840F951FA61FB71F04C0B695A795979517
:102070008795CA95D2F78093B4079093B507A0933C
:10208000B607B093B707853F2FE09207A105B105CA
:1020900010F48CE018C0853F9F4FA105B10510F4E6
:1020A00080E111C080912C0590912D05A0912E0505
:1020B000B0912F058093C5079093C607A093C707DB
:1020C000B093C80780E28093C20781E0DF91CF918F
:1020D000FF90EF90DF90CF90BF90AF909F908F9048
:1020E00008950F931F93CF93DF93EC01AB01770F0C
:1020F000660B770B0E94290E8C0165EB72E0CE0116
:102100000E94931C800F911FDF91CF911F910F911F
:1021100008950F931F93CF93DF93EC0122E00E9469
:10212000F11C8C0165EB72E0CE010E94931C800FC4
:10213000911FDF91CF911F910F9108950F931F93DE
:10214000CF93DF938C01C0E0D0E0F801EC0FFD1FCE
:102150006491662371F0E0910007F091010701900E
:10216000F081E02D80E097E01995892B11F0219600
:10217000ECCFCE01DF91CF911F910F910895CF93B6
:10218000DF93282F30E0F901E259FC4F8491F901E7
:10219000E85DFC4FD491F901EE51FD4FC491CC2381
:1021A00091F081110E947D0DEC2FF0E0EE0FFF1FEA
:1021B000E853FD4FA591B491EC91ED2381E090E0BF
:1021C00021F480E002C080E090E0DF91CF9108959B
:1021D0001F93CF93DF93282F30E0F901E259FC4F92
:1021E0008491F901E85DFC4FD491F901EE51FD4F66
:1021F000C491CC23C9F0162F81110E947D0DEC2FC4
:10220000F0E0EE0FFF1FE255FD4FA591B4918FB79F
:10221000F894111105C09C91ED2FE095E92302C0BF
:10222000EC91ED2BEC938FBFDF91CF911F9108952F
:10223000CF93DF9390E0FC01E85DFC4F2491FC011B
:10224000EE51FD4F8491882361F190E0880F991F32
:10225000FC01EC56FD4FC591D491FC01E255FD4FB8
:10226000A591B491611109C09FB7F8948881209518
:1022700082238883EC912E230BC0623061F49FB7D8
:10228000F8943881822F809583238883EC912E2BBC
:102290002C939FBF06C08FB7F894E8812E2B28831C
:1022A0008FBFDF91CF9108951F93CF93DF93182FA6
:1022B000EB0161E00E941811209711F460E004C066
:1022C000CF3FD10539F461E0812FDF91CF911F918C
:1022D0000C94E810E12FF0E0E259FC4FE4914E2F0E
:1022E00050E0FA013197E231F10508F09DC08827EE
:1022F000EC57FF4F8F4F0C94073084B5806884BD36
:10230000C7BD97C084B5806284BDC8BD92C08091AE
:102310008000806880938000D0938900C0938800FB
:1023200088C080918000806280938000D0938B0071
:10233000C0938A007EC08091800088608093800076
:10234000D0938D00C0938C0074C08091B0008068E1
:102350008093B000C093B3006CC08091B0008062E5
:102360008093B000C093B40064C0809190008068F6
:1023700080939000D0939900C09398005AC08091A8
:102380009000806280939000D0939B00C0939A004D
:1023900050C080919000886080939000D0939D0001
:1023A000C0939C0046C08091A00080688093A000EC
:1023B0008091A0008F7B8093A000D093A900C09350
:1023C000A80037C08091A00080628093A000D093C5
:1023D000AB00C093AA002DC08091A00088608093BC
:1023E000A000D093AD00C093AC0023C08091200129
:1023F000806880932001D0932901C093280119C0DF
:1024000080912001806280932001D0932B01C093A2
:102410002A010FC080912001886080932001D09311
:102420002D01C0932C0105C0C038D1050CF04BCF55
:1024300045CFDF91CF911F9108953FB7F8948091D8
:10244000F9049091FA04A091FB04B091FC0426B524
:10245000A89B05C02F3F19F00196A11DB11D3FBFDC
:10246000BA2FA92F982F8827820F911DA11DB11D6A
:10247000BC01CD0142E0660F771F881F991F4A9566
:10248000D1F708958F929F92AF92BF92CF92DF9231
:10249000EF92FF926B017C010E941D124B015C01C7
:1024A000C114D104E104F104F1F00E941D12DC0119
:1024B000CB0188199909AA09BB09883E9340A10557
:1024C000B10570F321E0C21AD108E108F10888EEE5
:1024D000880E83E0981EA11CB11CC114D104E10434
:1024E000F10419F7DDCFFF90EF90DF90CF90BF9010
:1024F000AF909F908F9008952FB7F8946091F50456
:102500007091F6048091F7049091F8042FBF08951C
:102510000F931F93CF93DF93EC010E947C12688787
:1025200079878A879B87CE010E94BE1997FF17C0C3
:102530000E947C12088519852A853B85DC01CB0128
:10254000801B910BA20BB30B0C811D812E813F814F
:1025500080179107A207B30730F38FEF9FEFDF914A
:10256000CF911F910F910895CF93DF93FC0177FDD9
:1025700038C0C085D1856C177D079CF557FD31C0EB
:10258000828593854817590764F5A38DB48D1097FC
:1025900041F1CA0157FD0796E3E095958795EA95C5
:1025A000E1F78C9FF0018D9FF00D11246E0F7F1FBE
:1025B000FD01E60FF71FC081CA0168E070E00E94CC
:1025C000D12F41E050E0BA0102C0660F771F8A9513
:1025D000E2F7CB01232B11F08C2B02C080958C23CA
:1025E0008083DF91CF91089508952F923F924F926B
:1025F0005F926F927F928F929F92AF92BF92CF9293
:10260000DF92EF92FF920F931F93CF93DF93CDB79B
:10261000DEB72D970FB6F894DEBF0FBECDBFFC011D
:102620006A3069F424898685978538E0239F800D78
:10263000911D11249787868715861486E4C06D3016
:1026400009F4E1C09D878C875489598382899389D5
:102650009D838C83A089B189BF83AE838684978450
:10266000C484D58480859185C816D906BCF0EC85D4
:10267000FD854489242F30E084859585F6E04F9FC1
:10268000800D911D1124AC85BD851D969C938E9364
:102690001C9756964C91411192C0B5C0EC85FD85B2
:1026A000828593858816990614F7F981AF2EB12C8F
:1026B000C60126E0F29F800D911D112418161906FF
:1026C000B4F6C50123E0880F991F2A95E1F7880D1C
:1026D000991D181619065CF655E0659FB001112486
:1026E00016011A82CB018C199D0999878887D4011C
:1026F0001896BB87AA87BA81B53049F0E885F98575
:10270000E20DF31DEC53FC4F24912B8301C01B827F
:10271000240134013B8130FF13C0AC85BD85ED91B0
:10272000FC91B981B13031F40084F185E02D2E8126
:102730003F8119C00288F389E02DEE80FF801EC022
:10274000EC81FD812E813F81E217F307F1F0AC852A
:10275000BD85ED91FC91B981B13059F40084F185CA
:10276000E02D2C813D81A301B1018C859D851995BA
:102770000CC00288F389E02DEC80FD808501950175
:10278000A201B6018C859D851995EB81E695EB83B9
:10279000FFEF6F1A7F0A4A0C5B1C2A853B85621685
:1027A000730609F0B7CF3A813F5F3A835FEF251A8E
:1027B000350ACA0CDB1C363009F09DCF58CF4AEFE2
:1027C0004203B001439F700D1124AC85BD8518965E
:1027D0004D915C911997460F571F481759079CF464
:1027E00083E0220F331F8A95E1F71E968D919C910D
:1027F0001F97280F391F1F963C932E931E971D96E7
:102800001C921E921C9781E090E02D960FB6F894D2
:10281000DEBF0FBECDBFDF91CF911F910F91FF9013
:10282000EF90DF90CF90BF90AF909F908F907F9070
:102830006F905F904F903F902F900895EF92FF928E
:102840000F931F93DC01ED91FC9111971A960D9156
:102850001C911B9718962D913C9119970288F3892A
:10286000E02D7B0140E050E060E070E019951F91A1
:102870000F91FF90EF9008956F927F928F929F92A9
:10288000AF92BF92CF92DF92EF92FF920F931F937E
:10289000CF93DF936C015A014801EB013B01620EBB
:1028A000731EC615D70574F4D601ED91FC9104840E
:1028B000F585E02D87019401A501BE01C60119959A
:1028C0002196EFCFDF91CF911F910F91FF90EF9065
:1028D000DF90CF90BF90AF909F908F907F906F9040
:1028E0000895EF92FF920F931F93DC01ED91FC91FD
:1028F000260F371F215031090284F385E02D78011E
:102900008A0119951F910F91FF90EF900895EF9212
:10291000FF920F931F937801DC01ED91FC91240F3E
:10292000351F8901015011090284F385E02D9B01B7
:1029300019951F910F91FF90EF9008956F927F92DC
:102940008F929F92AF92BF92CF92DF92EF92FF92BF
:102950000F931F93CF93DF93EC014B015A01690151
:102960003801E881F9810684F785E02D8701199502
:10297000E881F981A501460D571D41505109068492
:10298000F785E02D9601B401CE011995E881F98112
:102990000484F585E02D9301A501B401CE011995BC
:1029A000E881F981C80CD91CB60161507109048411
:1029B000F585E02D9301A501CE011995DF91CF9109
:1029C0001F910F91FF90EF90DF90CF90BF90AF904D
:1029D0009F908F907F906F9008952F923F924F928B
:1029E0005F926F927F928F929F92AF92BF92CF929F
:1029F000DF92EF92FF920F931F93CF93DF9300D05C
:102A0000CDB7DEB74C017B836A836A015901170198
:102A10009801241B350B37FF03C0319521953109EF
:102A2000C5014A815B81841B950B97FF03C091957B
:102A30008195910951E059838217930714F0198207
:102A40000BC09A2D8B2D5801092F182F9A818B813D
:102A5000DB82CA82C92ED82E8A819B81A816B9062C
:102A60005CF49C2D8D2D6801092F182F9A818B8184
:102A7000BB82AA82A92EB82E2501AA81BB814A1A3F
:102A80005B0A38016C187D0877FE03C0719461946D
:102A90007108720157FE03C0BFEFEB1AFB0AF594F1
:102AA000E794C016D1061CF00FEF1FEF1FC001E026
:102AB00010E01CC0D401ED91FC91B9810084F18536
:102AC000E02D9101BB23C1F04A815B81B601C401B5
:102AD0001995E618F708F7FE04C0C00ED11EE40CE5
:102AE000F51CEA81FB813196FB83EA834A815B8195
:102AF000A416B506FCF604C0A6016A817B81E7CF67
:102B00000F900F900F90DF91CF911F910F91FF9039
:102B1000EF90DF90CF90BF90AF909F908F907F907D
:102B20006F905F904F903F902F900895DC015996E1
:102B3000ED91FC915A973097B9F083899489A589D2
:102B4000B6894285538564857585841B950BA60BD4
:102B5000B70B811520E89207A105B10538F08FEF7A
:102B60009FE7A0E0B0E0089580E090E00895CF9363
:102B7000DF931F92CDB7DEB76983DC01ED91FC9145
:102B80000280F381E02D41E050E0BE016F5F7F4F96
:102B900019950F90DF91CF910895089580E090E00E
:102BA00008958091540490915504A0915604B091D9
:102BB00057040196A11DB11D8093540490935504B0
:102BC000A0935604B09357040895CF93DF93EC017C
:102BD00060E0898D0E94E81060E08F890E94E81013
:102BE00061E0898D0E94E81061E08F89DF91CF91CB
:102BF0000C94E810CF93DF93EC0161E0898D0E9483
:102C0000E81061E08F890E94E81060E08F890E94DF
:102C1000E81060E0898DDF91CF910C94E810EF927D
:102C2000FF920F931F93CF93DF93EC0100E010E02E
:102C3000E62EF12CC701002E01C0880F0A94EAF796
:102C400087FF02C061E001C060E08F890E94E81048
:102C500061E0898D0E94E81060E0898D0E94E81093
:102C60000F5F1F4F0830110529F761E08F890E941F
:102C7000E81061E0898D0E94E81060E0898DDF91A5
:102C8000CF911F910F91FF90EF900C94E810CF938C
:102C9000DF93EC010E94FA1568E7CE010E940F163F
:102CA00060E4CE01DF91CF910C940F16EF92FF926A
:102CB0000F931F93CF93DF938B016830710508F05A
:102CC00043C0FC01238D348D232BF1F1EC010E94D4
:102CD000FA1568E7CE010E940F1660E0CE010E944F
:102CE0000F1660EB600FCE010E940F1660E1CE015F
:102CF0000E940F1661E0CE010E940F16CE010E94C5
:102D0000E515CE010E9447161695102F002717953E
:102D100007957801F0E8EF0EF11C0E151F0559F02C
:102D2000EB8DFC8DE00FF11F6081CE010E940F162C
:102D30000F5F1F4FF2CFCE01DF91CF911F910F9107
:102D4000FF90EF900C94E515DF91CF911F910F91BB
:102D5000FF90EF9008951F93CF93DF93EC01162F10
:102D60000E94FA1568E7CE010E940F1660E0CE01BE
:102D70000E940F16612FCE010E940F16CE01DF9127
:102D8000CF911F910C94E515AF92BF92CF92DF9235
:102D9000FF920F931F93CF93DF938C01C0E0D0E09D
:102DA00080EBF82E6F2DC8010E94AB1660E0C801C1
:102DB0000E94AB1660E1C8010E94AB16C8010E94D8
:102DC00047166E0180E8C80ED11CCC15DD0579F0E0
:102DD0005E01EFEFAE1ABE0AF801838D948DC80F25
:102DE000D91F6881C8010E940F16E501EECFC80106
:102DF0000E94E515F394C115F4E0DF0799F6DF9121
:102E0000CF911F910F91FF90DF90CF90BF90AF9027
:102E10000895CF93DF93EC0161E08F890E94181130
:102E200061E0898D0E94181180E094E00E942330B7
:102E30009C8F8B8F009709F478C020E034E0FC0170
:102E4000A901119241505040E1F76EEACE010E9473
:102E5000AB1660E0CE010E94AB1660E1CE010E948D
:102E6000AB1660E4CE010E94AB1660EBCE010E946F
:102E7000AB1661E8CE010E94AB166FECCE010E944A
:102E8000AB1661EACE010E94AB1666EACE010E9443
:102E9000AB1668EACE010E94AB166FE3CE010E942A
:102EA000AB1668ECCE010E94AB1663EDCE010E941A
:102EB000AB1660E0CE010E94AB1665EDCE010E941C
:102EC000AB1660E8CE010E94AB1669EDCE010E9400
:102ED000AB1661EFCE010E94AB166AEDCE010E94E7
:102EE000AB1662E1CE010E94AB166BEDCE010E94E3
:102EF000AB1660E4CE010E94AB166DE8CE010E94D5
:102F0000AB1664E1CE010E94AB166FEACE010E94BF
:102F1000AB166FEACE010E94AB166AE070E080E06B
:102F200090E00E94421281E001C080E0DF91CF91E9
:102F30000895FC01818D928D009711F00C94920BF5
:102F40000895CF93DF93EC01898D9A8D009739F422
:102F500081E090E09B838A8380E090E00BC0FC01DD
:102F6000138212820E94DC0BE98DFA8D228133815B
:102F7000232B71F7DF91CF9108950E941D122091AC
:102F80003B0830913C08621B730B709359046093AB
:102F90005804809158049091590497FF0BC0809178
:102FA00058049091590491958195910990935904F1
:102FB000809358040E941D1260933B0870933C0854
:102FC00080933D0890933E0808950F931F930E94AD
:102FD0001D1200913708109138082091390830915E
:102FE0003A08DC01CB01801B910BA20BB30B809341
:102FF0005A0490935B04A0935C04B0935D048091A9
:103000005A0490915B04A0915C04B0915D04B7FFF9
:1030100017C080915A0490915B04A0915C04B09118
:103020005D04B095A095909581959F4FAF4FBF4F90
:1030300080935A0490935B04A0935C04B0935D0466
:103040000E941D12609337087093380880933908E6
:1030500090933A081F910F910895FC01DB0112969D
:103060008D919C9113979383828387E692E091835D
:10307000808314968C911497848315968C91159760
:10308000858316964D915D916D917C91199746833C
:103090005783608771871A964D915D916D917C91F0
:1030A0001D9742875387648775871E964D915D9162
:1030B0006D917C91519746875787608B718B5296A3
:1030C0008C915297828B53964D915D916D917C912D
:1030D0005697438B548B658B768B57964D915D91AC
:1030E0006D917C915A97478B508F618F728F5B9651
:1030F0008D919C915C97948F838F0895EF92FF92AE
:103100000F931F93CF93DF93EC017B018A011B8206
:103110001A8288EE93E0A0E0B0E08C839D83AE83BA
:10312000BF838FE292E0998388838DE190E00E94D3
:1031300023309A8F898F009779F02DE1F701DC0118
:1031400001900D922A95E1F74CE050E0B801CE01D4
:103150000C960E945B32188EDF91CF911F910F91D8
:10316000FF90EF9008952F923F924F925F926F924F
:103170007F928F929F92AF92BF92CF92DF92EF9207
:10318000FF920F931F93CF93DF931F921F92CDB7A0
:10319000DEB7FC018581882309F4D9C0848180FFD2
:1031A000D6C021E02A83438954896589768982853E
:1031B0009385A485B585481759076A077B0709F4E5
:1031C0001A826F013A81832F90E0DE0111964D0142
:1031D0003F01B6E06B0E711C892B09F47DC0D6014E
:1031E0001A964D915D916D917C911D975A01B1E0B8
:1031F000BB22F60125811A012B0189E056944794E0
:10320000379427948A95D1F7838D948D223061F479
:10321000FC01828D938DA48DB58DBC01CD01620D15
:10322000731D841D951D45C0DC0114961C91115021
:103230001221A114B104D1F4111118C0452B462B51
:10324000472B51F4F6018789908DA18DB28D86832D
:103250009783A087B1870AC04681578160857185B1
:1032600093010E940C09882309F471C0F601238D93
:10327000348D86819781A085B1850297A109B10916
:10328000AC01BD01F901058404C0440F551F661F40
:10329000771F0A94D2F786859785A089B189840F14
:1032A000951FA61FB71FBC01CD01610F711D811DA8
:1032B000911DD60114962C9126FF14C00091100286
:1032C00010911102209112023091130260177107C0
:1032D0008207930751F506C0FA81FF23C1F1898166
:1032E00090E037C040E00E942308882381F1F50177
:1032F000E050FB4FD401CF010196E817F90719F010
:1033000021912D93FACFEFEF8E1A9E0AF601828556
:103310009385A485B5850196A11DB11D82879387EC
:10332000A487B58780E090E057CF740101E010E0FA
:103330009501AB01BC018091FD049091FE040E94B7
:10334000E906882321F0BFEF8B1A9B0ADFCF8FEFAE
:103350009FEF0F900F90DF91CF911F910F91FF90F2
:10336000EF90DF90CF90BF90AF909F908F907F9025
:103370006F905F904F903F902F900895FC01818D4A
:10338000928D009711F00C94B3188FEF9FEF089572
:103390000F931F93CF93DF93FC01818D928D009744
:1033A000B9F0EF010E94B3188C010F3F8FEF18079F
:1033B00091F0898D9A8DFC014285538564857585D0
:1033C00041505109610971090E94F909C80105C0FC
:1033D00080E090E002C08FEF9FEFDF91CF911F91CF
:1033E0000F9108950C94822EEF92FF920F931F93EA
:1033F000CF93DF937C018B01C0E0D0E0F8016191B5
:103400008F01CE018E0D9F1D0E948A2E2196C43001
:10341000D105A1F784E090E0DF91CF911F910F914A
:10342000FF90EF90089560E088E00E94E81060E06F
:1034300087E00C94E81060E070E08AE00E9454118C
:1034400060E070E089E00C94541108950895CF92E3
:10345000DF92EF92FF920F931F93CF93DF936C0154
:103460007A018B01C0E0D0E0CE15DF0589F0D801EC
:103470006D918D01D601ED91FC910190F081E02DCF
:10348000C6011995892B11F47E0102C02196ECCF5B
:10349000C701DF91CF911F910F91FF90EF90DF90C7
:1034A000CF9008950F931F93CF93DF93EC01888102
:1034B0009981009729F02A813B812617370788F4E4
:1034C0008B016F5F7F4F0E945031009761F09983AD
:1034D00088831B830A832C813D81232B11F4FC01FB
:1034E000108281E001C080E0DF91CF911F910F91A8
:1034F00008951F920F920FB60F9211242F933F93AE
:103500008F939F93AF93BF938091F5049091F604AE
:10351000A091F704B091F80430913F0823E0230F05
:103520002D3720F40196A11DB11D05C026E8230FFB
:103530000296A11DB11D20933F088093F50490933E
:10354000F604A093F704B093F8048091F9049091E5
:10355000FA04A091FB04B091FC040196A11DB11DD9
:103560008093F9049093FA04A093FB04B093FC04B5
:10357000BF91AF919F918F913F912F910F900FBE6F
:103580000F901F9018951F920F920FB60F92112453
:103590000BB60F922F933F934F935F936F937F934D
:1035A0008F939F93AF93BF93EF93FF93E09122028A
:1035B000F09123021995FF91EF91BF91AF919F91E7
:1035C0008F917F916F915F914F913F912F910F90CC
:1035D0000BBE0F900FBE0F901F9018951F920F9269
:1035E0000FB60F9211240BB60F922F933F934F9368
:1035F0005F936F937F938F939F93AF93BF93EF935B
:10360000FF93E0912002F09121021995FF91EF9133
:10361000BF91AF919F918F917F916F915F914F91EA
:103620003F912F910F900BBE0F900FBE0F901F90E8
:1036300018951F920F920FB60F9211240BB60F928E
:103640002F933F934F935F936F937F938F939F93AA
:10365000AF93BF93EF93FF93E0911602F09117029F
:103660001995FF91EF91BF91AF919F918F917F91AC
:103670006F915F914F913F912F910F900BBE0F90E3
:103680000FBE0F901F9018951F920F920FB60F92BA
:1036900011240BB60F922F933F934F935F936F9329
:1036A0007F938F939F93AF93BF93EF93FF93E0919B
:1036B0001402F09115021995FF91EF91BF91AF910E
:1036C0009F918F917F916F915F914F913F912F913A
:1036D0000F900BBE0F900FBE0F901F9018951F926A
:1036E0000F920FB60F9211240BB60F922F933F93A8
:1036F0004F935F936F937F938F939F93AF93BF93FA
:10370000EF93FF93E0911E02F0911F021995FF9134
:10371000EF91BF91AF919F918F917F916F915F9149
:103720004F913F912F910F900BBE0F900FBE0F90B6
:103730001F9018951F920F920FB60F9211240BB67F
:103740000F922F933F934F935F936F937F938F933A
:103750009F93AF93BF93EF93FF93E0911C02F0917F
:103760001D021995FF91EF91BF91AF919F918F919C
:103770007F916F915F914F913F912F910F900BBE71
:103780000F900FBE0F901F9018951F920F920FB6BB
:103790000F9211240BB60F922F933F934F935F9389
:1037A0006F937F938F939F93AF93BF93EF93FF9309
:1037B000E0911A02F0911B021995FF91EF91BF91D0
:1037C000AF919F918F917F916F915F914F913F91B9
:1037D0002F910F900BBE0F900FBE0F901F9018955A
:1037E0001F920F920FB60F9211240BB60F922F93C8
:1037F0003F934F935F936F937F938F939F93AF9379
:10380000BF93EF93FF93E0911802F091190219957D
:10381000FF91EF91BF91AF919F918F917F916F91A8
:103820005F914F913F912F910F900BBE0F900FBE64
:103830000F901F901895AF92BF92CF92DF92EF92A8
:10384000FF920F931F93CF93DF931F921F92CDB7D9
:10385000DEB78C015B01C42EFC0111821082138241
:1038600012821582148260E070E00E94521AF80100
:103870002081318181110EC02115310519F0C90156
:103880000E94B830F80111821082158214821382CE
:10389000128208C0F8011582148267EB72E0C90138
:1038A0000E945432C5010E9488120C2C000CDD08C5
:1038B00097FD24C08C159D0509F189831A82F801B2
:1038C000E480F580FFEFEF1AFF0AB701C8010E94FC
:1038D000521A882379F0F801208131818481958101
:1038E000BE016F5F7F4F820F931F0E945432F80119
:1038F000F582E482C5010E948812DACFC8010F90D8
:103900000F90DF91CF911F910F91FF90EF90DF907B
:10391000CF90BF90AF900895DC01ED91FC910190A4
:10392000F081E02D19946115710579F0FB0101908A
:103930000020E9F73197AF01461B570BDC01ED91F1
:10394000FC910280F381E02D199480E090E00895CD
:103950004F925F926F927F92EF92FF920F931F931D
:10396000CF93DF93CDB7DEB7A1970FB6F894DEBF44
:103970000FBECDBF7C01FA01CB0119A2223008F4A1
:103980002AE08E010F5D1F4F422E512C612C712CAD
:10399000BF01A30192010E94E52FF901CA01015064
:1039A00011096A3014F4605D01C0695CD8016C9340
:1039B000232B242B252B61F7B801C7010E94931CF0
:1039C000A1960FB6F894DEBF0FBECDBFDF91CF91A9
:1039D0001F910F91FF90EF907F906F905F904F90AD
:1039E00008954F925F926F927F928F929F92AF92C3
:1039F000BF92CF92DF92EF92FF92CF93DF93EC01D1
:103A00006A017B01B22E9A01AB01C701B6010E9487
:103A1000CC2F882319F067E474E027C02601370112
:103A2000E89477F82FEF3FEF4FE75FE7C301B2016C
:103A30000E94CC2F81110DC02FEF3FEF4FE75FE7C2
:103A4000C301B2010E945B2D18161CF46BE474E0F4
:103A50000CC02FEF3FEF4FE75FE4C701B6010E94B4
:103A6000C72F18169CF46FE474E0CE01DF91CF915C
:103A7000FF90EF90DF90CF90BF90AF909F908F908E
:103A80007F906F905F904F900C94931C2FEF3FEFBF
:103A90004FE75FECC701B6010E945B2D87FDE3CFC6
:103AA00020E030E0A901C701B6010E945B2D87FF2D
:103AB0000AC06DE2CE010E948C1C4C01F7FAF09412
:103AC000F7F8F09402C0812C912CA12C60E070E0FA
:103AD00080E09FE3AB1441F020E030E040E251E4AD
:103AE0000E941F2FA394F6CF9B01AC01C701B60122
:103AF0000E94B32E2B013C010E94982F6B017C0188
:103B00000E94602D9B01AC01C301B2010E94B22E44
:103B10002B013C012AE0B701A601CE010E94A81C9E
:103B20007C01E80CF91CBB2031F06EE2CE010E9452
:103B30008C1CE80EF91EDB2CDD2029F120E030E0A2
:103B400040E251E4C301B2010E94C12D2B013C01AE
:103B50000E94982F4B01A12CB12C2AE0B501A401A1
:103B6000CE010E94A81CE80EF91EC501B4010E94F6
:103B7000602D9B01AC01C301B2010E94B22E2B014A
:103B80003C01DA94D9CFC701DF91CF91FF90EF903C
:103B9000DF90CF90BF90AF909F908F907F906F906D
:103BA0005F904F9008950F931F93CF93DF93EC0195
:103BB0000E94931C8C0165EB72E0CE010E94931C65
:103BC000800F911FDF91CF911F910F9108950C9459
:103BD000931CCF93DF93CDB7DEB7C55AD1090FB68B
:103BE000F894DEBF0FBECDBF789484B5826084BDEB
:103BF00084B5816084BD85B5826085BD85B58160F1
:103C000085BD80916E00816080936E00109281006E
:103C10008091810082608093810080918100816029
:103C200080938100809180008160809380008091EA
:103C3000B10084608093B1008091B0008160809376
:103C4000B0008091910082608093910080919100FA
:103C500081608093910080919000816080939000BA
:103C60008091A10082608093A1008091A100816079
:103C70008093A1008091A00081608093A00080913A
:103C800021018260809321018091210181608093D4
:103C900021018091200181608093200180917A0030
:103CA000846080937A0080917A00826080937A00A9
:103CB00080917A00816080937A0080917A00806898
:103CC00080937A001092C10080E090E00E94F21987
:103CD00090910002891761F16CE072E081E090E060
:103CE0000E94F41968E072E089E190E00E94F41902
:103CF0006091000280E090E00E948A2E6FE972E0FD
:103D000080E097E00E94D31D80E090E00E94F219CD
:103D1000482F50E060E070E02AE080E097E00E94E9
:103D2000A81C65EB72E080E097E00E94931C06C03F
:103D300068EB72E080E097E00E94D31DE0911007ED
:103D4000F091110782E08083E0910C07F0910D075C
:103D50001082E0910E07F0910F078FEC8083109294
:103D60001807E0911407F091150786E08083E09131
:103D70001207F0911307808180618083E091120720
:103D8000F0911307808188608083E0911207F091A1
:103D90001307808180688083E0911207F0911307F8
:103DA00080818F7D808367EB72E080E097E00E94E6
:103DB000D31D6FEB72E080E097E00E94D31D88EE88
:103DC00097E00E94091769EC72E080E097E00E949A
:103DD000D31D60E070E088EE97E00E941E1468ED4D
:103DE00072E080E097E00E94D31D81E08093FC07A1
:103DF00088EE97E00E94C41660E088E30E941811E4
:103E000061E086E00E94181164EE72E080E097E0C5
:103E10000E94D31DE7961FAE1EAEE79788EE93E093
:103E2000A0E0B0E0EB968CAF9DAFAEAFBFAFEB972D
:103E30008FE292E0E5969FAF8EAFE597C457DF4FD4
:103E400019821882CC58D040C158DF4F1882CF5702
:103E5000D0406DEE72E080E097E00E94D31D10929A
:103E6000AA071092A8071092A5071092A40784E051
:103E70008093A3070E947C128B0161E08091A307CD
:103E80000E94181161E08091A3070E94E810FFB61C
:103E9000F89480915E04811127C0E7E1F3E08491FA
:103EA000EDE5F3E09491E82FF0E0EE0FFF1FEC5604
:103EB000FD4FA591B491EC91E92321F461E085E3F4
:103EC0000E94E81061E085E30E9418118CB58061C2
:103ED0008CBD8CB580648CBD61E084E30E941811B8
:103EE00061E083E30E94181180915E048F5F8093EC
:103EF0005E04FFBE82E580939D0710929E0780912D
:103F00009D0790919E070E946E067AE0F72E8FEF34
:103F10000E942F06FA94F110FACF8FE997E00E94E1
:103F2000710620E030E0A90160E08FE997E00E948F
:103F30008706F82E8093A90781E0F81649F00E94C1
:103F40007C12601B710B613D774058F381E056C0D5
:103F50002AEA31E040E050E068E08FE997E00E9413
:103F6000870682FF03C0F092AA0710C064E0F62E15
:103F70000E9436068093A907FA94F110F9CF8A3A85
:103F800011F082E03BC082E08093AA078091AA07EB
:103F9000823021F0C12CD12C760105C0C12CD12C4E
:103FA000E12C50E4F52E20E030E0A90167E38FE931
:103FB00097E00E948706A701960169E28FE997E0E2
:103FC0000E9487068093A907882349F00E947C12EB
:103FD000601B710B613D774030F388E00FC080912A
:103FE000AA07823001F520E030E0A9016AE38FE9F9
:103FF00097E00E948706882341F086E08093A4071B
:104000008FE997E00E942406A8C00E943606807CB3
:10401000803C19F483E08093AA070E9436060E9430
:1040200036060E9436068FE997E00E94240680E556
:1040300080939D0710929E0781E00E94420F882383
:1040400029F08091CE07882341F087C080E00E944C
:10405000420F882309F481C0F4CF8091C2078031D8
:1040600009F582E08093CE071092E0071092E107F5
:104070001092E2071092E3078091C3079091C40762
:10408000A0E0B0E045E0880F991FAA1FBB1F4A952A
:10409000D1F78093DC079093DD07A093DE07B09300
:1040A000DF071EC0803209F058C083E08093CE073E
:1040B0004091C5075091C6076091C7077091C80726
:1040C0004093E0075093E1076093E2077093E307A2
:1040D0002CED37E08BEA97E00E9490098823E9F104
:1040E0008BEA97E09093E5078093E40781E0809363
:1040F000CD071092CF071092D0071092D1071092DF
:10410000D2071092D3071092D4071092D5071092BD
:10411000D6071092D7071092D8071092D90710929D
:10412000DA071092DB0769EC77E0CE0101960E9476
:104130002D18BE016F5F7F4FCE01CB960E942D18C8
:1041400019A218A287E692E09F8F8E8F1BA221965C
:104150008FAD2197811104C010C065E073E084C069
:1041600082504CE253E08230F0F469EC77E0CE010B
:104170004E960E945B0E811123C06C961FAE1EAE40
:104180006C9788EE93E0A0E0B0E0A0968CAF9DAF76
:10419000AEAFBFAFA097E3961FAE1EAEE397A59656
:1041A0001FAEA5971EC0BE01655C7F4FCE014E9627
:1041B0000E945B0E882309F3CE01CB960E94D00BA0
:1041C000BE01625E7F4FCE0101960E942D184CE227
:1041D00053E0BE016F5F7F4FCE01885A9F4F0E9410
:1041E0007E186C968EAD9FAD6C97E7969FAF8EAFA5
:1041F000E797A0968CAD9DADAEADBFADA097EB9609
:104200008CAF9DAFAEAFBFAFEB97A4968CAD9DAD1D
:10421000AEADBFADA497EF968CAF9DAFAEAFBFAFC5
:10422000EF978DE0E8E5F0E0EC0FFD1F3C96A3E78B
:10423000B0E0AC0FBD1F1C9601900D928A95E1F77E
:10424000E396EEADFFADE397C457DF4FF983E88304
:10425000CC58D040309731F08581882319F000E6A2
:1042600014E042C06EE173E080E097E00E94D31D4D
:1042700080E06CC04AE3BE016D587F4FCE014E9680
:104280000E941B1C4AE0BE016D587F4FCE01019673
:104290000E941B1C8E8D9F8D009779F589819A81D4
:1042A0009F8F8E8F8B819C8199A388A38D819E8106
:1042B0009BA38AA31A8219821C821B821E821D82E2
:1042C00089819A810E94B8308E8D9F8D009739F137
:1042D0000E94C72BD8016D937D938D939D938D0183
:1042E0008E8D9F8D0E94B830CE018D589F4F0E94B9
:1042F0009615892B09F0BECF16C069817A816115A8
:10430000710511F40C94142B48A159A12D813E8103
:104310004217530710F00C94182B0C94142B60E0E8
:1043200070E0CB01D7CFC457DF4F88819981CC583B
:10433000D040009751F00E94D00BC457DF4F8881C6
:104340009981CC58D0400E94B83081E080935F04BE
:10435000882309F474C060916004709161048091B5
:104360006204909163040E94912F70930302609302
:104370000202209168043091690440916A045091CE
:104380006B0460916404709165048091660490915F
:1043900067040E94C12D609304027093050280930C
:1043A00006029093070260916C0470916D048091F5
:1043B0006E0490916F040E94912F072E000C880BC1
:1043C000990B0E94622D9B01AC0160E070E080E8D7
:1043D0009FE30E941F2F20E034E244E759E40E944B
:1043E000C12D609308027093090280930A02909392
:1043F0000B0268E072E089E190E00E94F41934E079
:10440000E32E32E0F32E02E310E0F70161917F0129
:10441000C8010E948A2E0F5F1F4F06331105A9F7AE
:10442000609102028BE490E00E948A2E6091030268
:104430008CE490E00E948A2E67E373E041C00CE0B8
:1044400012E081E090E07C01FFEFEF1AFF0A0E948A
:10445000F219D8018D938D01C7018530910599F727
:1044600008E012E089E190E07C01BFEFEB1AFB0A63
:104470000E94F219F80181938F01C7018D319105D6
:1044800099F704E012E082E390E07C01FFEFEF1A7D
:10449000FF0A0E94F219D8018D938D01C70186335E
:1044A000910599F78BE490E00E94F2198093020243
:1044B0008CE490E00E94F2198093030264E473E0BC
:1044C00080E097E00E94D31D63E573E080E097E011
:1044D0000E94E71D40910C0250910D0260910E0266
:1044E00070910F0280E097E00E94891069E573E007
:1044F00080E097E00E94E71D409108025091090278
:1045000060910A0270910B0280E097E00E9489108E
:104510006FE573E080E097E00E94E71D40910402A0
:1045200050910502609106027091070280E097E0C9
:104530000E9489106EE673E080E097E00E94E71D1C
:10454000609102027091030280E097E00E94711076
:1045500063E573E088EE97E00E94E71D40910C024E
:1045600050910D0260910E0270910F0288EE97E05B
:104570000E94891069E573E088EE97E00E94E71DCC
:10458000409108025091090260910A0270910B0259
:1045900088EE97E00E9489106FE573E088EE97E05F
:1045A0000E94E71D409104025091050260910602AD
:1045B0007091070288EE97E00E9489106EE673E022
:1045C00088EE97E00E94E71D60910202709103025D
:1045D00088EE97E00E94711088EE97E00E94C41662
:1045E00060E082E00E94181160E089E30E941811E7
:1045F00061E085E00E941811E1EBF4E01192119264
:1046000011921192B4E0E93DFB07C1F785EE97E105
:10461000909315028093140280916A008C7F8160D0
:1046200080936A00EC9A60E083E00E94181160E0D9
:1046300085E00E94181161E086E00E941811E1E80F
:10464000F4E0119211921192119225E0E934F207EF
:10465000C1F78DEB97E1909317028093160280913A
:104660006A00837F846080936A00ED9A61E08AE04B
:104670000E94181161E089E00E94181161E088E051
:104680000E94181161E087E00E94181160E070E05C
:104690008AE00E9454116FEF70E089E00E9454118B
:1046A00068E873E180E090E00E9442120E941B1AC9
:1046B0006BE773E080E097E00E94D31D88E30E94DF
:1046C000BF10892B39F489E30E94BF10892B09F4AC
:1046D00050C040C00E947C126093EB047093EC04C5
:1046E0008093ED049093EE0488E30E94BF10892B21
:1046F00051F30E947C120091EB041091EC04209184
:10470000ED043091EE04DC01CB01801B910BA20B78
:10471000B30B883E9340A105B10530F36091EA04E4
:10472000F1E06F276093EA0486E00E94E81060E9F8
:1047300073E080E097E00E94E71D6091EA0470E07A
:1047400080E097E00E94711088E30E94BF10892BDF
:10475000D9F7CACF0E947C126093EB047093EC04EB
:104760008093ED049093EE0489E30E94BF10892B9F
:10477000A1F4C0900802D0900902E0900A02F090E3
:104780000B028091580490915904181619060CF4E4
:10479000F0C0C12CD12C760104C10E947C12009182
:1047A000EB041091EC042091ED043091EE04DC0157
:1047B000CB01801B910BA20BB30B883E9340A1054C
:1047C000B10590F269EA73E080E097E00E94D31DA2
:1047D00061E085E00E94E81089E30E94BF10892B08
:1047E000D9F7EC9885E29AE1909315028093140230
:1047F00010925404109255041092560410925704CB
:104800000E947C126B017C01A1EDB5E1B093150211
:10481000A093140280916A008C7F816080936A006B
:10482000EC9A89E30E94BF10892B79F50E947C12D3
:10483000DC01CB018C199D09AE09BF09843A914076
:10484000A105B10550F080917804F1E08F278093A5
:1048500078040E947C126B017C016091780485E0F1
:104860000E94E81040915404509155046091560400
:104870007091570480E097E00E94290E65EB72E08A
:1048800080E097E00E94931CCCCFEC9895E2C92E73
:104890009AE1D92ED0921502C0921402609154046C
:1048A0007091550480915604909157040E94622D96
:1048B0009B01AC0160E070E088E492E40E941F2F4D
:1048C00020E034E244E759E40E94C12D609374046F
:1048D00070937504809376049093770425EEE22E0E
:1048E00027E1F22EF0921502E092140280916A0004
:1048F0008C7F816080936A00EC9A8091740490911F
:104900007504A0917604B091770480930C02909383
:104910000D02A0930E02B0930F026CE072E081E0F2
:1049200090E00E94F41940910C0250910D026091A8
:104930000E0270910F0280E097E00E9489106EEBEA
:1049400073E080E097E00E94D31D60E085E00E9464
:10495000E8100E947C126093EB047093EC04809347
:10496000ED049093EE0489E30E94BF10892BD9F7E0
:10497000FBCE6091580470915904072E000C880BEF
:10498000990B0E94622D9B01AC01C701B6010E94E8
:104990001F2F20E030E040E752E40E94C12D6B0160
:1049A0007C0120917D0430917E0440917F045091E0
:1049B0008004C701B6010E945B2D81111AC00E94BC
:1049C0007C120091790410917A0420917B0430913B
:1049D0007C04DC01CB01801B910BA20BB30B843F49
:1049E0009140A105B105B8F01092590410925804F5
:1049F0002EC00E947C126093790470937A04809395
:104A00007B0490937C04C0927D04D0927E04E0925B
:104A10007F04F092800420E030E0A901C701B601D4
:104A20000E94C72F18169CF420E030E048EC52E4B6
:104A3000C701B6010E945B2D87FF09C020E030E06E
:104A4000A901C701B6010E945B2D18161CF0C12CEC
:104A5000D12C76018091850490918604A0918704E1
:104A6000B09188048093810490938204A09383047E
:104A7000B09384048091890490918A04A0918B045E
:104A8000B0918C048093850490938604A09387044E
:104A9000B093880480918D0490918E04A0918F042E
:104AA000B09190048093890490938A04A0938B041E
:104AB000B0938C048091910490919204A0919304FE
:104AC000B091940480938D0490938E04A0938F04EE
:104AD000B0939004C0929104D0929204E092930417
:104AE000F092940401E814E060E070E0CB01D8019A
:104AF0002D913D914D915D918D010E94B32EB4E0B9
:104B000005391B07A1F720E030E040EA50E40E949D
:104B10001F2FCE56DF4F688379838A839B83C259C8
:104B2000D040609391047093920480939304909387
:104B3000940420E030E040E85FE30E945B2D87FFB3
:104B400008C0CE56DF4F188219821A821B82C259C2
:104B5000D0408091EA048111FEC0C0900C02D09038
:104B60000D02E0900E02F0900F0280915A04909195
:104B70005B04A0915C04B0915D04181619061A0636
:104B80001B06CCF460915A0470915B0480915C0424
:104B900090915D040E94622D9B01AC01C701B6019A
:104BA0000E941F2F26E636E646E650E40E94C12DFD
:104BB0006B017C0103C0C12CD12C76012091AD0486
:104BC0003091AE044091AF045091B004C701B601DA
:104BD0000E945B2D81111EC00E947C120091A904CD
:104BE0001091AA042091AB043091AC04DC01CB01FC
:104BF000801B910BA20BB30B843F9140A105B10523
:104C0000D8F010925A0410925B0410925C04109237
:104C10005D042EC00E947C126093A9047093AA04C4
:104C20008093AB049093AC04C092AD04D092AE04D8
:104C3000E092AF04F092B00420E030E048EC52E49F
:104C4000C701B6010E94C72F181694F020E030E08B
:104C5000A901C701B6010E945B2D87FD09C020E0B4
:104C600030E0A901C701B6010E945B2D18161CF0A7
:104C7000C12CD12C76018091B5049091B604A091FD
:104C8000B704B091B8048093B1049093B204A09398
:104C9000B304B093B4048091B9049091BA04A09184
:104CA000BB04B091BC048093B5049093B604A09368
:104CB000B704B093B8048091BD049091BE04A09154
:104CC000BF04B091C0048093B9049093BA04A09338
:104CD000BB04B093BC048091C1049091C204A09124
:104CE000C304B091C4048093BD049093BE04A09308
:104CF000BF04B093C004C092C104D092C204E09239
:104D0000C304F092C40401EB14E060E070E0CB0156
:104D1000D8012D913D914D915D918D010E94B32E51
:104D2000B4E0053C1B07A1F720E030E040EA50E486
:104D30000E941F2FC257DF4F688379838A839B832A
:104D4000CE58D0406093C1047093C2048093C304D2
:104D50009093C4040EC0C12CD12C80EAE82E80E4CC
:104D6000F82EC257DF4FC882D982EA82FB82CE5822
:104D7000D0406091020270910302072E000C880B54
:104D8000990B0E94622DC257DF4F288139814A81D9
:104D90005B81CE58D0400E94C12D209104023091F9
:104DA000050240910602509107020E94C12D20E0A9
:104DB00030E046E154E40E941F2FC256DF4F688363
:104DC00079838A839B83CE59D04080900908909044
:104DD0000A08A0900B08B0900C08209105083091AB
:104DE00006084091070850910808C501B4010E94C7
:104DF000B32E9B01AC01C501B4010E941F2F2B01F2
:104E00003C016093190870931A0880931B089093D3
:104E10001C08C0901508D0901608E0901708F09074
:104E2000180820E030E040EA51E4CE56DF4F6881B8
:104E300079818A819B81C259D0400E941F2F20E036
:104E400030EC4FE754E40E94C12D20E030E0A9018E
:104E50000E94B32E0E94912F072E000C880B990BF5
:104E60000E94622DA70196010E94B22E9B01AC0107
:104E7000C301B2010E94C12D9B01AC01C701B60163
:104E80000E94B32ECA56DF4F688379838A839B833F
:104E9000C659D0406093110870931208809313088C
:104EA00090931408A301920160E070E080E89FE312
:104EB0000E94B22EA50194010E94C12D4B015C01FC
:104EC000CA56DF4F288139814A815B81C659D0405B
:104ED000C701B6010E94B22E9F7720910D08309134
:104EE0000E0840910F08509110080E94C12D9B019F
:104EF000AC01C501B4010E94B32E60930908709300
:104F00000A0880930B0890930C08CA56DF4FC8809C
:104F1000D980EA80FB80C659D040C0921508D09253
:104F20001608E0921708F0921808809021089090D7
:104F30002208A0902308B090240820911D083091E9
:104F40001E0840911F0850912008C501B4010E941D
:104F5000B32E9B01AC01C501B4010E941F2F2B0190
:104F60003C0160933108709332088093330890932A
:104F70003408C0902D08D0902E08E0902F08F090B3
:104F8000300820E030E040EA51E4C256DF4F68814B
:104F900079818A819B81CE59D0400E941F2F20E0C9
:104FA00030EC4FE754E40E94C12D20E030E0A9012D
:104FB0000E94B32E0E94912F072E000C880B990B94
:104FC0000E94622DA70196010E94B22E9B01AC01A6
:104FD000C301B2010E94C12D9B01AC01C701B60102
:104FE0000E94B32EC656DF4F688379838A839B83E2
:104FF000CA59D0406093290870932A0880932B08DF
:1050000090932C08A301920160E070E080E89FE398
:105010000E94B22EA50194010E94C12D4B015C019A
:10502000C656DF4F288139814A815B81CA59D040F9
:10503000C701B6010E94B22E9F77209125083091BA
:10504000260840912708509128080E94C12D9B01F5
:10505000AC01C501B4010E94B32E60932108709386
:1050600022088093230890932408C656DF4FC880F7
:10507000D980EA80FB80CA59D040C0922D08D092D6
:105080002E08E0922F08F092300820E030E040E057
:1050900050E4C257DF4F688179818A819B81CE5865
:1050A000D0400E945B2D2091010287FF18C08091A3
:1050B000DA049091DB04843191053CF01092DB041A
:1050C0001092DA041092D90429C001969093DB045F
:1050D0008093DA048091D904882301F108C01092EA
:1050E000DB041092DA04DD24D394D092D904211188
:1050F00033C061ED73E080E097E00E94D31D0E9411
:105100001B1A61E088E00E94E81060E087E00E94DE
:10511000E810EE24E394E092010215C0222309F482
:105120003BC16FED73E080E097E00E94D31D0E94C9
:105130001B1A60E088E00E94E81061E087E00E94AE
:10514000E8101092010268EB7BE080E090E00E94A2
:1051500042120E94131A20C1C656DF4F688179811E
:105160008A819B81CA59D0400E94912F4B015C01DA
:10517000CA56DF4F688179818A819B81C659D040A8
:105180000E94912FCE55DF4F688379838A839B835A
:10519000C25AD0408401CE55DF4F88819981C25ACE
:1051A000D040081B190B1093E5040093E4042090F1
:1051B000E0043090E104B101032C000C880B990B42
:1051C0000E94622D2B013C01B80117FF04C0662725
:1051D0007727601B710B072E000C880B990B0E9420
:1051E000622D2DEC3CEC4CE45FE30E94C12D0E944B
:1051F000912F072E000C880B990B0E94622D6B01DA
:105200007C012AE037ED43EA5DE3C301B2010E946D
:10521000C12D9B01AC01C701B6010E94B32E0E94B3
:10522000912F072E000C880B990B0E94622D6B01A9
:105230007C016091DE047091DF046819790977FFC1
:1052400003C0719561957109072E000C880B990BAD
:105250000E94622D20E030E040EC50E40E94C12D1D
:105260009B01AC01C701B6010E94B32E0E94912F91
:105270006B017C012DEC3CEC4CEC5DE3C301B20115
:105280000E94C12D2B013C0120E030E040E85FE3AB
:105290000E945B2D87FD05C0D092E304C092E2041A
:1052A00010C0B601DD0C880B990B0E94622DA30182
:1052B00092010E94C12D0E94912F7093E30460938C
:1052C000E2049FEF291A390A3092E1042092E004A7
:1052D0008091E2049091E3048F3F910539F034F01E
:1052E0008FEF90E09093E3048093E2048091E204D6
:1052F0009091E30497FF04C01092E3041092E2043B
:10530000C8010496099740F41092E3041092E20455
:105310001092E1041092E004101611068CF40E9421
:105320001B1A83E290E00197F1F70091E2041091DB
:10533000E30460E070E08AE00E945411B80111C0FB
:10534000012B91F00E941B1A83E290E00197F1F784
:105350006091E2047091E3048AE00E94541160E0DD
:1053600070E089E00E9454119092DF048092DE0484
:10537000CE55DF4FA881B981C25AD040B093DD0429
:10538000A093DC0460E070E0CB010E944212A09088
:10539000E204B090E30402C0A12CB12C0E947C1264
:1053A0000091E6041091E7042091E8043091E904AB
:1053B0006B017C01C01AD10AE20AF30AA701960127
:1053C00068EE73E080E090E00E94E52FCA01B90129
:1053D0000E94602D6B017C010E947C126093E604A8
:1053E0007093E7048093E8049093E90422E0C257A5
:1053F000DF4F488159816A817B81CE58D04080E05F
:1054000097E00E94F11C81E992E00E949E1022E048
:10541000CE56DF4F488159816A817B81C259D04085
:1054200080E097E00E94F11C8EE892E00E949E10BE
:1054300022E0C256DF4F488159816A817B81CE5973
:10544000D04080E097E00E94F11C8BE892E00E943F
:105450009E1022E0C656DF4F488159816A817B81C8
:10546000CA59D04080E097E00E94F11C88E892E0A1
:105470000E949E1022E0CA56DF4F488159816A81FE
:105480007B81C659D04080E097E00E94F11C85E8FE
:1054900092E00E949E10A5010B2C000C660B770B6E
:1054A00080E097E00E94290E82E892E00E949E1020
:1054B0004091010250E060E070E080E097E00E94DF
:1054C000290E8FE792E00E949E10B701A60180E0AE
:1054D00097E00E94891060E070E088EE97E00E94FB
:1054E0001E14DD24D394D092FC071092F50710927D
:1054F000F4071092F7071092F6076DEE73E088EE4E
:1055000097E00E94E71DC257DF4F488159816A81A9
:105510007B81CE58D04088EE97E00E94891067EFDB
:1055200073E088EE97E00E94E71D2AE0A216B1041E
:105530001CF461E074E002C069E074E088EE97E07A
:105540000E94D31D62E174E088EE97E00E94E71D9F
:1055500080910102882319F06CE174E002C064E2DA
:1055600074E088EE97E00E94D31D81E08093FC07F1
:1055700067EF73E088EE97E00E94E71D22E0CE56C9
:10558000DF4F488159816A817B81C259D04088EEC2
:1055900097E00E94F11C6FE274E088EE97E00E94B1
:1055A000E71DC256DF4F488159816A817B81CE5900
:1055B000D04088EE97E00E94891063E374E088EEA3
:1055C00097E00E94E71D22E0CA56DF4F48815981CB
:1055D0006A817B81C659D04088EE97E00E94F11C19
:1055E0006FE274E088EE97E00E94E71DC656DF4F39
:1055F000488159816A817B81CA59D04088EE97E001
:105600000E9489106DE374E088EE97E00E94E71D28
:10561000B50188EE97E00E94711088EE97E00E9435
:10562000C4160E9466054AC80E94B8300C944E21E8
:105630000E9454328D819E819BA38AA30C945E218B
:10564000E0E0F7E01382128288EE93E0A0E0B0E0A1
:1056500084839583A683B78383E492E091838083D8
:1056600085EC90E09587848784EC90E09787868727
:1056700080EC90E0918B808B81EC90E0938B828B1F
:1056800082EC90E0958B848B86EC90E0978B868BF8
:10569000118E128E138E148EEDE9F7E080E5808373
:1056A0001182EFE9F7E0158216821186138682E0F7
:1056B00090E0A0E0B0E084879587A687B78713A223
:1056C00015A614A687E692E093A782A717A6EDE198
:1056D000F8E080E090E0A8ECB2E480839183A283BC
:1056E000B38384839583A683B7834DEC5CEC6CEC29
:1056F0007DE34087518762877387E5E0F8E0808328
:105700009183A283B38384839583A683B7834087E1
:10571000518762877387E8EEF7E01382128220E8F0
:1057200030E03583248380E490E09783868331875B
:10573000208793878287158A158614861786168692
:1057400081E0848B2FEF3FEF338B228B318B208BCB
:10575000868B8FE792E09183808384E190E0908F45
:10576000878B85E190E0928F818F148E138E089540
:105770008FE792E09093E9078093E8078091030810
:1057800090910408009711F00C94B83008956627A2
:1057900077270C94CB2B6F927F928F929F92AF9230
:1057A000BF92CF92DF92EF92FF920F931F93CF930E
:1057B000DF93EC017B016115710519F0DB018D931D
:1057C0009C938E010F5F1F4F7880872D90E00E9481
:1057D0003A2D892B11F0E801F4CFBDE27B1205C010
:1057E0000F5F1F4F7980C1E008C0EBE27E1204C05A
:1057F0008E010E5F1F4F7980C0E06801F1E0CF1A83
:10580000D10843E050E06CE472E0C6010E94432DF1
:10581000892BF1F4680122E0C20ED11C45E050E072
:1058200067E472E0C6010E94432D892B21F46801D0
:1058300087E0C80ED11CE114F10419F0D701CD9214
:10584000DC92C111FFC060E070E080E89FE703C117
:1058500043E050E064E472E0C6010E94432D892BCE
:1058600051F4E114F10409F4F2C00E5F1F4FF70187
:1058700011830083ECC0680160E070E0CB0100E0C0
:1058800010E0F601D0EDD70DDA3058F52C2F22605C
:10589000622E2C2F2870C2FF05C0211128C00F5F77
:1058A0001F4F25C0222311F001501109A5E0B0E0DF
:1058B0009B01AC010E94982E4B015C01880C991C45
:1058C000AA1CBB1CC501B4016D0F711D811D911D6A
:1058D0006839A9E97A078A07A9E19A0740F0C66002
:1058E00005C0DE3F51F4C3FD44C0C8606C2EBFEF5D
:1058F000CB1ADB0A7080C62DC4CF2D2F2F7D25310A
:10590000C1F540814D3211F4C06106C04B3221F027
:10591000319621E030E006C03296D60111964C91C6
:1059200022E030E0A0EDA40FAA3018F0E21BF30B48
:1059300020C040E050E04038BCE05B075CF49A01D6
:10594000220F331F220F331F420F531F440F551FC7
:105950004A0F511D3196DF0111972C91A0EDA20F36
:10596000AA3048F3C4FF03C0519541955109040F73
:10597000151FC1FF07C0E114F10421F03197D701D1
:10598000ED93FC930E94602DC370C33019F06B013E
:105990007C0106C06B017C01F7FAF094F7F8F094F3
:1059A00020E030E0A901C701B6010E945B2D8823E9
:1059B00009F445C017FF06C0119501951109C3E60A
:1059C000D2E002C0CBE7D2E05E01B8E1AB1AB10889
:1059D0004601BE2DAF2D90E2E92EF12C0E151F05CC
:1059E00084F0FE012591359145915491B4018B2F9E
:1059F0009A2F0E94C12D4B01B82FA92F0E191F09F4
:105A0000EDCF2497F594E794CA15DB0539F76401C7
:105A1000EB2EFA2E8E2D880F8F2D881F8F3F49F089
:105A200020E030E0A901C701B6010E945B2D811181
:105A300006C082E290E09093410880934008C7013D
:105A4000B60109C060E070E080E89FEF04C060E04C
:105A500070E080EC9FE7DF91CF911F910F91FF9055
:105A6000EF90DF90CF90BF90AF909F908F907F90FE
:105A70006F90089591110C942E2E803219F0895058
:105A80008550C8F70895FB01DC014150504088F073
:105A90008D9181341CF08B350CF4805E65916134FE
:105AA0001CF06B350CF4605E861B611171F3990B71
:105AB0000895881BFCCF0E949D2D08F481E0089575
:105AC000E89409C097FB3EF4909580957095619598
:105AD0007F4F8F4F9F4F9923A9F0F92F96E9BB274E
