:100000000C945D000C9485000C9485000C94850084
:100010000C9485000C9485000C9485000C9485004C
:100020000C9485000C9485000C9485000C9485003C
:100030000C9485000C9485000C9485000C9485002C
:100040000C94E4020C9485000C9454030C942E033D
:100050000C9485000C9485000C9485000C9485000C
:100060000C9485000C94850000000008000201003B
:100070000003040700000000000000000000000072
:10008000250028002B0000000000240027002A0083
:10009000040404040404040402020202020203032E
:1000A0000303030301020408102040800102040836
:1000B0001020010204081020570411241FBECFEFA6
:1000C000D8E0DEBFCDBF11E0A0E0B1E0E2E2F9E0B0
:1000D00002C005900D92A032B107D9F721E0A0E24D
:1000E000B1E001C01D92A63CB207E1F710E0CDE5FA
:1000F000D0E004C02197FE010E948404CC35D107D2
:10010000C9F70E9486030C948F040C94000090E0C1
:10011000FC01EC55FF4F2491FC01E057FF4F849107
:10012000882399F090E0880F991FFC01EA57FF4F50
:10013000A591B491FC01E458FF4F859194918FB73C
:10014000F894EC91E22BEC938FBF089590E0FC01C2
:10015000E859FF4F3491FC01EC55FF4F2491FC010D
:10016000E057FF4FE491EE2309F43BC0332339F10C
:10017000333091F038F43130A9F0323001F584B5E4
:100180008F7D12C0373091F03830A1F03430B9F49F
:10019000809180008F7D03C0809180008F77809355
:1001A00080000DC084B58F7784BD09C08091B000F8
:1001B0008F7703C08091B0008F7D8093B000F0E016
:1001C000EE0FFF1FE458FF4FA591B4918FB7F8943D
:1001D000EC91611103C020952E2301C02E2B2C938E
:1001E0008FBF08951F93CF93DF93182FEB010E94C9
:1001F0008700209711F460E004C0CF3FD10539F4A7
:1002000061E0812FDF91CF911F910C94A600E12F27
:10021000F0E0E859FF4FE491E330F9F048F4E130C1
:10022000B9F0E230A1F584B5806284BDC8BD34C0A8
:10023000E730E9F0E83019F1E43049F580918000C9
:10024000806280938000D0938B00C0938A0024C08A
:1002500084B5806884BDC7BD1FC080918000806860
:1002600080938000D0938900C093880015C080914E
:10027000B00080688093B000C093B3000DC080913F
:10028000B00080628093B000C093B40005C0C03855
:10029000D1050CF0B5CFAFCFDF91CF911F9108956D
:1002A0003FB7F8948091250190912601A0912701F4
:1002B000B091280126B5A89B05C02F3F19F00196E3
:1002C000A11DB11D3FBFBA2FA92F982F8827820FDC
:1002D000911DA11DB11DBC01CD0142E0660F771F2C
:1002E000881F991F4A95D1F708958F929F92AF92D8
:1002F000BF92CF92DF92EF92FF920E9450014B018A
:100300005C018AE0C82ED12CE12CF12C0E94500116
:10031000DC01CB0188199909AA09BB09883E9340E1
:10032000A105B10558F021E0C21AD108E108F10891
:1003300088EE880E83E0981EA11CB11CC114D10464
:10034000E104F10419F7FF90EF90DF90CF90BF9098
:10035000AF909F908F900895CF92DF92EF92FF928F
:100360000F931F93CF93DF936C017A018B01C0E051
:10037000D0E0CE15DF0589F0D8016D918D01D60151
:10038000ED91FC910190F081E02DC6010995892B3A
:1003900011F47E0102C02196ECCFC701DF91CF910D
:1003A0001F910F91FF90EF90DF90CF9008950895E7
:1003B00080E090E00895FC01538D448D252F30E0BE
:1003C000842F90E0821B930B541710F0CF96089562
:1003D00001970895FC01918D828D981761F0828DAF
:1003E000DF01A80FB11D5D968C91928D9F5F9F7369
:1003F000928F90E008958FEF9FEF0895FC01918D0B
:10040000828D981731F0828DE80FF11D858D90E077
:1004100008958FEF9FEF0895FC01918D228D892F14
:1004200090E0805C9F4F821B91098F7399270895FC
:1004300089E291E00E940C0221E0892B09F420E07E
:10044000822F0895FC01848DDF01A80FB11DA35AEE
:10045000BF4F2C91848D90E001968F739927848FE4
:10046000A689B7892C93A089B1898C9180648C93DB
:10047000938D848D981306C00288F389E02D8081C6
:100480008F7D80830895EF92FF920F931F93CF93F8
:10049000DF93EC0181E0888F9B8D8C8D981305C0D4
:1004A000E889F989808185FD24C0F62E0B8D10E046
:1004B0000F5F1F4F0F731127E02E8C8DE8120CC0B9
:1004C0000FB607FCFACFE889F989808185FFF5CF5F
:1004D000CE010E942202F1CF8B8DFE01E80FF11DAB
:1004E000E35AFF4FF0820B8FEA89FB89808180629B
:1004F00007C0EE89FF896083E889F989808180647B
:10050000808381E090E0DF91CF911F910F91FF9068
:10051000EF900895CF93DF93EC01888D8823C9F085
:10052000EA89FB89808185FD05C0A889B9898C91FC
:1005300086FD0FC00FB607FCF5CF808185FFF2CF97
:10054000A889B9898C9185FFEDCFCE010E94220246
:10055000E7CFDF91CF91089580E090E0892B29F0DB
:100560000E94180281110C940000089560E070E070
:1005700089E00E94F20060E070E08AE00C94F200F2
:10058000CF93DF93009779F0FC0101900020E9F709
:100590003197AF01481B590BBC0189E291E00E94E1
:1005A000AC01EC0102C0C0E0D0E042E050E062E10A
:1005B00071E089E291E00E94AC018C0F9D1FDF91F8
:1005C000CF9108950E948A041F920F920FB60F9246
:1005D00011242F933F938F939F93AF93BF93809159
:1005E000210190912201A0912301B0912401309129
:1005F000200123E0230F2D3720F40196A11DB11D0A
:1006000005C026E8230F0296A11DB11D20932001ED
:100610008093210190932201A0932301B0932401A0
:100620008091250190912601A0912701B091280188
:100630000196A11DB11D8093250190932601A093E1
:100640002701B0932801BF91AF919F918F913F9166
:100650002F910F900FBE0F901F9018951F920F9221
:100660000FB60F9211242F933F934F935F936F9385
:100670007F938F939F93AF93BF93EF93FF9389E201
:1006800091E00E942202FF91EF91BF91AF919F9163
:100690008F917F916F915F914F913F912F910F902B
:1006A0000FBE0F901F9018951F920F920FB60F92CA
:1006B00011242F938F939F93EF93FF93E091390130
:1006C000F0913A018081E0913F01F091400182FD7B
:1006D00012C09081809142018F5F8F7320914301FE
:1006E000821751F0E0914201F0E0E75DFE4F958FF7
:1006F0008093420101C08081FF91EF919F918F9182
:100700002F910F900FBE0F901F901895789484B57D
:10071000826084BD84B5816084BD85B5826085BDFD
:1007200085B5816085BD80916E00816080936E008B
:10073000109281008091810082608093810080917D
:10074000810081608093810080918000816080932E
:1007500080008091B10084608093B1008091B000EE
:1007600081608093B00080917A00846080937A00E9
:1007700080917A00826080937A0080917A00816013
:1007800080937A0080917A00806880937A0010923A
:10079000C100E0913901F0913A0182E08083E0915B
:1007A0003501F09136011082E0913701F091380166
:1007B0008FEC808310924101E0913D01F0913E0168
:1007C00086E08083E0913B01F0913C018081806173
:1007D0008083E0913B01F0913C01808188608083BF
:1007E000E0913B01F0913C01808180688083E09141
:1007F0003B01F0913C0180818F7D808389E00E94E4
:1008000087008AE00E948700C0E0D0E060E070E0EE
:1008100089E00E94F200BE018AE00E94F2000E947C
:1008200075012196CF3FD10589F7CFEFD0E060E089
:1008300070E089E00E94F200BE018AE00E94F200AE
:100840000E947501219799F785E191E00E94C0020D
:100850000E94B6020E947501C0E0D0E0BE0189E0AE
:100860000E94F20060E070E08AE00E94F2000E94C4
:1008700075012196CF3FD10589F7CFEFD0E0BE01BA
:1008800089E00E94F20060E070E08AE00E94F200DD
:100890000E947501219799F70E94B6020E94750186
:1008A0008BE191E00E94C0020E94AC02ADCFE9E270
:1008B000F1E01382128288EE93E0A0E0B0E084833E
:1008C0009583A683B78384E091E09183808385EC50
:1008D00090E09587848784EC90E09787868780EC0A
:1008E00090E0918B808B81EC90E0938B828B82ECFB
:1008F00090E0958B848B86EC90E0978B868B118EA5
:10090000128E138E148E0895EE0FFF1F0590F49132
:10091000E02D099481E090E0F8940C948F04F89411
:02092000FFCF07
:10092200000000004302AC01DB018A020C02EA0172
:10093200FE010D0A00436C6F7365004F70656E0017
:00000001FF
